:020000040800F2
:100000000000022069070008610600086306000876
:100010006506000867060008690600080000000081
:100020000000000000000000000000006B06000857
:100030006D060008000000006F0600087106000849
:10004000B9070008B9070008B9070008B907000890
:10005000B9070008B9070008B9070008B907000880
:10006000B9070008B9070008B9070008B907000870
:10007000B9070008B9070008B9070008B907000860
:10008000B9070008B9070008B9070008B907000850
:1000900079060008B9070008B9070008B907000881
:1000A000B9070008B9070008B9070008B907000830
:1000B000B9070008B9070008B9070008B907000820
:1000C000B9070008B9070008B9070008B907000810
:1000D000B9070008B9070008B9070008B907000800
:1000E000B9070008B9070008B9070008B9070008F0
:1000F000B9070008B9070008B9070008B9070008E0
:10010000B9070008B9070008B9070008B9070008CF
:10011000B9070008B9070008B9070008B9070008BF
:10012000B9070008B9070008B9070008B9070008AF
:10013000B9070008B9070008B9070008B90700089F
:10014000B9070008B9070008B9070008B90700088F
:10015000B9070008B9070008B9070008B90700087F
:10016000B9070008B9070008B9070008B90700086F
:10017000B9070008B9070008B90700080000000027
:08018000B9070008B9070008E7
:1001880053B94AB9002908BF00281CBF4FF0FF31F6
:100198004FF0FF3000F00CB8ADF1080C6DE904CE5B
:1001A80001F0B4FCDDF804E0DDE9022304B0704797
:1001B800704700BF0348044B834202D0034B03B18E
:1001C80018477047100000201000002000000000B1
:1001D8000548064B1B1AD90F01EBA301491002D0A1
:1001E800034B03B11847704710000020100000208F
:1001F8000000000010B5064C237843B9FFF7DAFF7A
:10020800044B13B10448AFF300800123237010BDE1
:100218001000002000000000C81F000808B5054BAA
:100228001BB105490548AFF30080BDE80840FFF75A
:10023800CFBF00BF0000000014000020C81F000846
:1002480030B58BB0012208920023069307920093E1
:10025800019302930393059304930E4C6946204639
:1002680000F0B4FB204600F04FFC0221204600F0CD
:10027800A3FD0E23099305936946204600F0A6FBCB
:10028800204600F041FC0221204600F095FD0BB00D
:1002980030BD00BF380000200268164B9A4200D0DB
:1002A800704700B58BB001AB03AA002100F0CFFC6A
:1002B800039A40F205239A4202D00BB05DF804FB82
:1002C8009DF804309DF8052042EA03220A4B9A80E3
:1002D8009DF806109DF8072042EA0122DA809DF871
:1002E80008109DF8092042EA01221A819DF80A2087
:1002F8009A72E2E7006400402C00002000B589B043
:100308006A4600230093019340F2FF100290049381
:1003180005930823069341FA03F38DF800308DF80E
:100328000110012302A9034800F01CFC09B05DF884
:1003380004FB00BF3800002008B50D480D4B0360D2
:100348000323436000238360C3604FF410220261DB
:100358004FF400124261037643768376C3760377BF
:10036800437700F08DFA00B908BD00F097F8FBE775
:10037800380000200064004010B588B000230393C3
:1003880004930593069307930268184B9A4201D089
:1003980008B010BD0024019403F5EA331A6C42F04A
:1003A80000721A641A6C02F000720192019A0294A7
:1003B8001A6B42F008021A631B6B03F008030293DE
:1003C800029B0323039302220492069309230793B3
:1003D80003A9074800F0B2FE22462146142000F087
:1003E80085FE142000F092FED2E700BF00640040B2
:1003F800000C024070B58AB005AD0024059406943F
:100408000794089409940094224B1A6B42F0010255
:100418001A631A6B02F001020092009A01941A6B97
:1004280042F002021A631A6B02F002020192019A68
:1004380002941A6B42F008021A631A6B02F008025F
:100448000292029A03941A6B42F004021A631A6B1E
:1004580002F004020392039A04941A6B42F0800299
:100468001A631B6B03F080030493049B0A4E224615
:100478004FF4E051304600F05BFF4FF4E053059332
:1004880001230693079408942946304600F056FE47
:100498000AB070BD00380240001C024072B6FEE788
:1004A80000B595B03022002108A801F0ABFC03A8E4
:1004B8000023039343608360C36003610193254A6B
:1004C800116C41F080511164126C02F0805201925B
:1004D800019A0293204A116841F480411160126820
:1004E80002F480420292029A0122039204930521A7
:1004F80001F07EF940BB012308934FF48033099340
:1005080002230E934FF480020F9206221092A82223
:10051800119212930423139308A800F019FFA8B9A5
:100528000F23039302230493002305934FF4A0534E
:1005380006934FF480530793052103A801F058F957
:1005480030B915B05DF804FBFFF7A8FFFFF7A6FF69
:10055800FFF7A4FF003802400070004008B500F023
:100568004FF9FFF79DFFFFF745FFFFF7E5FEFFF7A0
:1005780067FE00F031F8FFF793FFFFF73BFFFFF747
:10058800DBFE00F07FF809E064210C48FFF7B6FEB7
:10059800282000F061F9282000F05EF9084A138845
:1005A80001331BB21380192BEED1134600221A8097
:1005B8004FF40061034800F0C1FEE5E73800002071
:1005C80060000020001C0240016042608360009BC4
:1005D800C360019B0361704710B582B000240A4BC9
:1005E800019300932346224608490948FFF7ECFF88
:1005F800084B019300942346224607490748FFF712
:10060800E3FF02B010BD00BF0060EA460000F04101
:10061800980000200000A0430000C84364000020A8
:1006280082B0002100910B4B5A6C42F480425A640C
:100638005A6C02F480420092009A01911A6C42F0BE
:1006480080521A641B6C03F080530193019B02B023
:10065800704700BF00380240FEE7FEE7FEE7FEE70E
:10066800FEE770477047704708B500F0E3F808BD2B
:1006780008B5024800F0BEFB08BD00BF38000020E6
:100688007047000008B50A480A4B03604FF4E1338D
:10069800436000238360C36003610C22426183616D
:1006A800C36101F003FA00B908BDFFF7F7FEFBE7E5
:1006B800CC000020001001402DE9F04188B0002353
:1006C80003930493059306930793026803F1804309
:1006D80003F588339A4202D008B0BDE8F0810024BF
:1006E800009403F594335A6C42F010025A645A6C21
:1006F80002F010020092009A01941A6B42F0020272
:100708001A631A6B02F002020192019A02941A6BA0
:1007180042F001021A631B6B03F001030293029B70
:10072800802303934FF00208CDF810800327069723
:100738000726079603AD2946074800F0FFFC4FF44B
:1007480000730393CDF81080059406970796294601
:10075800024800F0F3FCBFE700040240000002403A
:10076800DFF834D0FFF78CFF0C480D490D4A002301
:1007780002E0D458C4500433C4188C42F9D30A4A4E
:100788000A4C002301E013600432A242FBD301F0BB
:1007980087FBFFF7E3FE70470000022000000020FF
:1007A800100000200C20000810000020B0020020DB
:1007B800FEE7000010B504460E4B1A784FF47A7322
:1007C800B3FBF2F30C4A1068B0FBF3F000F0A2FCA4
:1007D80068B90F2C01D901200AE0002221464FF008
:1007E800FF3000F083FC054B1C60002000E0012076
:1007F80010BD00BF040000200000002008000020F9
:1008080008B50B4B1A6842F400721A601A6842F471
:1008180080621A601A6842F480721A60032000F03D
:1008280053FC0F20FFF7C6FFFFF7FAFE002008BDB4
:10083800003C0240034A1168034B1B780B441360C9
:10084800704700BF1401002004000020014B186805
:10085800704700BF1401002038B50446FFF7F6FFC3
:100868000546B4F1FF3F02D0044B1B781C44FFF748
:10087800EDFF401BA042FAD338BD00BF04000020A2
:10088800002800F0A18038B5044690F82030D3B194
:100898002268136843F001031360FFF7D7FF05468A
:1008A80023685A6812F0010F10D1FFF7CFFF401BE1
:1008B8000A28F5D9636A43F400336362052384F890
:1008C8002030012038BDFFF757FDE1E71A6822F014
:1008D80002021A60FFF7BAFF054623685A6812F049
:1008E800020F0DD0FFF7B2FF401B0A28F5D9636A43
:1008F80043F400336362052384F820300120E1E7E4
:10090800227E012A3DD01A6822F080021A60637E96
:10091800012B3BD02268136823F040031360A37EA9
:10092800012B39D02268136823F020031360E37E7B
:10093800012B37D02268136843F010031360237F1C
:10094800012B35D02268136823F008031360637FF6
:10095800012B33D02268136823F004031360A368C3
:10096800E268134322691343626913436268013AD8
:1009780021681343CB6100206062012384F8203092
:10098800A0E71A6842F080021A60C0E7226813687C
:1009980043F040031360C2E72268136843F0200362
:1009A8001360C4E72268136823F010031360C6E7D6
:1009B8002268136843F008031360C8E722681368C5
:1009C80043F004031360CAE70120704790F8203011
:1009D800013BDBB2012B05D9436A43F48023436210
:1009E8000120704710B5474BD3F8002242F00102AE
:1009F800C3F80022D3F8002222F47C52C3F8002264
:100A0800D3F80022486A42EA0022C3F800224A6961
:100A180002F01F02012000FA02F2D3F81C026FEA6A
:100A2800020C20EA0200C3F81C02CB69CBB9354B93
:100A3800D3F80C020CEA0000C3F80C028C88486951
:100A4800D1F80CE044EA0E44483043F830408C6852
:100A5800088840EA04404C6904F1480E03EBCE03D1
:100A68005860CB69012B1ED08B69002B35D12548E6
:100A7800D0F804320CEA0303C0F804320B699BBBBC
:100A88002048D0F814320CEA0303C0F814320B6A79
:100A9800012B30D01B4AD2F8003223F00103C2F8F0
:100AA8000032002010BD174BD3F80C021043C3F8D6
:100AB8000C028C884869D1F800E044EA0E444830BA
:100AC80043F8304088894C69D1F808E040EA0E4084
:100AD800483403EBC4035860C6E70A48D0F8043228
:100AE8001343C0F80432C9E70648D0F81432134358
:100AF800C0F81432CBE70349D1F81C321343C1F8CC
:100B08001C32C7E70064004070B5044690F82030F6
:100B1800012B06D0436A43F4002343620126304682
:100B280070BDDEB2022380F820300268136823F01B
:100B380001031360FFF78AFE054623685B6813F01C
:100B4800010F0CD0FFF782FE431B0A2BF5D9636A0D
:100B580043F400336362052384F82030DFE700267E
:100B68006662DCE730B590F820C00468A4680CF130
:100B7800FF3C5FFA8CFCBCF1010F62D814F0E05F17
:100B880059D0C4F3016C012404FA0CF41C608B687E
:100B9800002B3DD10D68CB68046843EA45550CF13C
:100BA80018031B01E55003680C690CF1180E03EBE0
:100BB8000E135C600B7D012B35D0D17993791B0422
:100BC80043EA0163517943EA012314790168234315
:100BD80001EB0C11C1F88C31D17893781B0443EAEE
:100BE8000163517843EA0123117802680B4302EB51
:100BF8000C12C2F8883102680CF1180C4FEA0C1C70
:100C080052F80C3043F0010342F80C3000201DE08C
:100C18004C6843EAC403CC6823430CF1180424014C
:100C280005682B51BFE7036803EB0E13596841F4BD
:100C380080715960C1E7436A43F40013436201209D
:100C480004E0436A43F480234362012030BD90F8F6
:100C580020C00CF1FF3C5FFA8CFCBCF1010F00F2E4
:100C6800A58030B451B90468E46814F0030F10D1BA
:100C7800436A43F40013436201207EE00468246958
:100C880014F0030F05D1436A43F4001343620120B3
:100C980073E0056801F11B0424012C5904F00404D5
:100CA8009460002C6BD1056801F11B0424012C59B8
:100CB800640D1460046801F11B0C4FEA0C1C54F815
:100CC8000C4004F00204D4600468A444DCF8045026
:100CD80015F0080F5BD008241461046801F11B0C9F
:100CE80004EB0C146468C4F307249461046804EBEF
:100CF8000C146468240C5461026802EB0112D2F8E7
:100D0800B8211A70026802EB0112D2F8B821C2F3B6
:100D180007225A70026802EB0112D2F8B821C2F316
:100D280007429A70026802EB0112D2F8B821120E3B
:100D3800DA70026802EB0112D2F8BC211A7102685B
:100D480002EB0112D2F8BC21C2F307225A710268E1
:100D580002EB0112D2F8BC21C2F307429A71026871
:100D680002EB0112D2F8BC21120EDA71C1B9026885
:100D7800D36843F02003D360002030BC7047056877
:100D880001F11B0424012C59E408546092E701F195
:100D98001B0504EB0514646804F00F0414619CE758
:100DA8000268136943F020031361E5E7436A43F4DB
:100DB800802343620120704790F82030013BDBB26A
:100DC800012B05D9436A43F480234362012070470D
:100DD800026853690B43536100207047704770479E
:100DE8007047704770477047704770477047704743
:100DF800704770472DE9F84F054603685C69D3F8DA
:100E080004809F68D3F80CA0D3F81090D3F818B0DA
:100E180014F001063BD017F0010616D001229A60A3
:100E280017F0020F08D117F0040F0CD117F00806BD
:100E380006D04FF4805608E0FFF7D0FF002604E004
:100E4800FFF7CFFF01E04FF4006617F4807F0DD065
:100E58002B684FF480729A6017F4007F40F09680F8
:100E680017F4806F00F0968046F4005617F4803F20
:100E78000DD02B684FF480329A6017F4003F40F091
:100E8800938017F4802F00F0938046F4004614F006
:100E9800080F07D01AF0100F04D046F400762B681C
:100EA8001022DA6014F0040F03D01AF0080F40F093
:100EB800898014F0020F05D02B68DB6813F0030F4C
:100EC80040F0878014F0400F07D019F0100F04D0BD
:100ED80046F480662B6810221A6114F0200F02D0A5
:100EE80019F0080F79D114F0100F04D02B681B6982
:100EF80013F0030F78D114F4003F02D018F0100F4C
:100F080076D114F4803F02D018F0080F77D114F48A
:100F1800004F37D018F0040F31D014F4807F04D07C
:100F28001BF0010F01D046F0010614F4007F04D035
:100F38001BF0020F01D046F0020614F4806F04D0B3
:100F48001BF0040F01D046F0040614F4006F16D00D
:100F58001BF0700B13D0BBF1400F66D056D8BBF115
:100F6800200F5CD0BBF1300F5CD0BBF1100F01D16A
:100F780046F008062A68936923F0700393612B688A
:100F880004225A60002E56D1BDE8F88F2846FFF794
:100F980026FF6BE717F4006F02D046F4804665E73A
:100FA8002846FFF71FFF61E72846FFF719FF6EE79E
:100FB80017F4002F02D046F4803668E72846FFF77A
:100FC80012FF64E72B680822DA602846FFF70CFF57
:100FD8006FE72846FFF760F974E72B6808221A6163
:100FE8002846FFF703FF7EE72846FFF7FEFE82E765
:100FF8002B6810225A602846FFF7F9FE81E72B6814
:1010080008225A602846FFF7F3FE80E7BBF1500F2D
:101018000ED0BBF1600FADD146F48076AAE746F05A
:101028001006A7E746F02006A4E746F04006A1E729
:1010380046F080069EE76B6A33436B622846FFF7EB
:10104800D8FEA1E7002807DB00F01F0240090123B2
:101058009340024A42F82030704700BF00E100E0A8
:10106800002808DB0901C9B200F1604000F56140C1
:1010780080F80013704700F00F000901C9B2014B56
:101088001954704714ED00E000B500F00700C0F1F6
:10109800070CBCF1040F28BF4FF0040C031D062BEE
:1010A8000FD9C31E4FF0FF3E0EFA0CF021EA0001E3
:1010B80099400EFA03FE22EA0E0241EA02005DF8A8
:1010C80004FB0023EEE70000074AD36823F4E0633B
:1010D8001B041B0C000200F4E060034343F0BF63F1
:1010E80043F40033D360704700ED00E010B50446C8
:1010F800054BD868C0F30220FFF7C6FF014620461B
:10110800FFF7AEFF10BD00BF00ED00E008B5FFF728
:1011180099FF08BD0138B0F1807F0BD24FF0E02372
:101128005861054AF02182F82310002098610722AF
:101138001A6170470120704700ED00E000230F2B73
:1011480000F2EC8030B583B068E085684FEA430E62
:10115800032404FA0EF425EA0405CC6804FA0EF414
:101168002C438460446824EA02044A68C2F30012EB
:101178009A40224342605FE0DC08083450F824209B
:1011880003F00705AD004FF00F0E0EFA05FE22EA38
:101198000E0E0A69AA4042EA0E0240F824205FE0D7
:1011A800072200E0002202FA0EF22A4302345C4DC4
:1011B80045F824205B4A94686FEA0C0224EA0C057F
:1011C800D1F804E01EF4801F01D04CEA0405554C08
:1011D800A560E46802EA0405D1F804E01EF4001FE3
:1011E80001D04CEA04054F4CE560646802EA040546
:1011F800D1F804E01EF4003F01D04CEA0405494C44
:101208006560246822404D6815F4803F01D04CEA9F
:101218000402444C226001330F2B7DD801229A40EE
:101228000C6804EA020C32EA0404F4D14C6804F0B5
:101238000304013C012C88D94A6802F00302032AFE
:1012480009D0C4685D000322AA4024EA02048A681F
:10125800AA402243C2604A6802F00302022A8BD0E5
:1012680004684FEA430E032202FA0EF224EA02044B
:101278004A6802F0030202FA0EF2224302604A6848
:1012880012F4403FC7D000220192274A546C44F41C
:1012980080445464526C02F480420192019A9C0882
:1012A800A51C1F4A52F8255003F0030E4FEA8E0E74
:1012B8000F2202FA0EF225EA02051C4A90423FF478
:1012C80071AF02F5806290421AD002F580629042B6
:1012D80018D002F58062904216D002F580629042E2
:1012E80014D002F58062904212D002F580629042DA
:1012F80010D002F5806290423FF452AF082252E7C4
:10130800012250E702224EE703224CE704224AE773
:10131800052248E7062246E703B030BD704700BF04
:1013280000380140003C0140003802400000024003
:101338000AB181617047090481617047436901EA14
:10134800030221EA030141EA02418161704700007A
:10135800002800F0E08170B582B00446036813F0FD
:10136800010F3BD09F4B9B6803F00C03042B2CD040
:101378009C4B9B6803F00C03082B21D06368B3F5E2
:10138800803F4FD0B3F5A02F52D0964B1A6822F465
:1013980080321A601A6822F480221A606368002B6F
:1013A80050D0FFF753FA05468E4B1B6813F4003FE5
:1013B80014D1FFF74BFA401B6428F5D90320B1E19B
:1013C800884B5B6813F4800FD8D0864B1B6813F4E6
:1013D800003F03D06368002B00F09F81236813F05F
:1013E800020F54D07F4B9B6813F00C0F3ED07D4BFF
:1013F8009B6803F00C03082B33D0E368002B68D0FC
:10140800794B01221A60FFF721FA0546754B1B68D4
:1014180013F0020F54D1FFF719FA401B0228F5D92F
:1014280003207FE16F4A136843F480331360B5E704
:101438006C4B1A6842F480221A601A6842F48032AF
:101448001A60ABE7FFF702FA0546664B1B6813F410
:10145800003FC3D0FFF7FAF9401B6428F5D90320F1
:1014680060E1604B5B6813F4800FC6D15D4B1B686D
:1014780013F0020F03D0E368012B40F05081594A62
:10148800136823F0F803216943EAC1031360236852
:1014980013F0080F42D063696BB3534B0122C3F8B2
:1014A800802EFFF7D3F905464E4B5B6F13F0020F02
:1014B80034D1FFF7CBF9401B0228F5D9032031E1DD
:1014C800484A136823F0F803216943EAC10313600B
:1014D800DDE7454B00221A60FFF7B8F90546414B96
:1014E8001B6813F0020FD2D0FFF7B0F9401B022897
:1014F800F5D9032016E13C4B0022C3F8802EFFF7F4
:10150800A5F90546374B5B6F13F0020F06D0FFF7BE
:101518009DF9401B0228F5D9032003E1236813F045
:10152800040F77D02F4B1B6C13F0805F33D100234F
:1015380001932C4B1A6C42F080521A641B6C03F016
:1015480080530193019B0125284B1B6813F4807F6E
:1015580023D0A368012B34D0052B38D0214B1A6F28
:1015680022F001021A671A6F22F004021A67A368B0
:10157800002B3DD0FFF76AF906461A4B1B6F13F094
:10158800020F46D1FFF762F9801B41F28833984277
:10159800F3D90320C6E00025D6E7144A136843F4BC
:1015A80080731360FFF752F90646104B1B6813F45B
:1015B800807FCED1FFF74AF9801B0228F5D9032096
:1015C800B0E0084A136F43F001031367CFE7054BF8
:1015D8001A6F42F004021A671A6F42F001021A6782
:1015E800C5E700BF003802400000474200700040D5
:1015F800FFF72CF90646524B1B6F13F0020F08D069
:10160800FFF724F9801B41F288339842F3D903206D
:1016180088E0EDB9A369002B00F08380484A9268FE
:1016280002F00C02082A51D0022B17D0454B002299
:101638001A66FFF70BF90446414B1B6813F0007F4D
:1016480042D0FFF703F9001B0228F5D9032069E00F
:101658003B4A136C23F080531364DBE7394B0022B9
:101668001A66FFF7F3F80546354B1B6813F0007F41
:1016780006D0FFF7EBF8401B0228F5D9032051E00C
:10168800E369226A1343626A43EA8213A26A520830
:10169800013A43EA0243E26A43EA0263284A536092
:1016A800284B01221A66FFF7D1F80446244B1B6821
:1016B80013F0007F06D1FFF7C9F8001B0228F5D9FF
:1016C80003202FE000202DE000202BE0012B2BD061
:1016D8001B4B5B6803F48001E269914226D103F059
:1016E8003F02216A8A4223D1616A47F6C0721A40D2
:1016F800B2EB811F1ED103F44031A26A5208013AAD
:10170800B1EB024F18D103F07063E26AB3EB026FDA
:1017180014D1002006E001207047012002E00120DA
:1017280000E0002002B070BD0120FBE70120F9E7CE
:101738000120F7E70120F5E70120F3E70120F1E7B1
:10174800003802400000474208B5264B9B6803F06A
:101758000C03042B41D0082B41D1224B5A6802F0CC
:101768003F025B6813F4800F12D01E4B5968C1F317
:1017780088111D480023A1FB0001FEF701FD194B4C
:101788005B68C3F3014301335B00B0FBF3F008BDB2
:10179800144B5868C0F388104FEA401CBCEB000C8F
:1017A8006EEB0E0E4FEA8E1343EA9C634FEA8C11E0
:1017B800B1EB0C0163EB0E03DB0043EA5173C90084
:1017C80011EB000C43F10003990200234FEA8C202F
:1017D80041EA9C51FEF7D4FCD1E70348D7E7034818
:1017E800D5E700BF00380240001BB7000024F40012
:1017F800002800F09B8070B50D4604464F4B1B68CF
:1018080003F007038B4208D2CBB24C4A137013681B
:1018180003F007038B4240F08B80236813F0020F1C
:1018280017D013F0040F04D0454A936843F4E053EB
:101838009360236813F0080F04D0414A936843F477
:10184800604393603E4A936823F0F003A1680B431A
:101858009360236813F0010F32D06368012B21D005
:101868009A1E012A25D9364A126812F0020F61D051
:1018780033498A6822F0030213438B60FEF7E6FFC0
:1018880006462F4B9B6803F00C036268B3EB820F8C
:1018980016D0FEF7DBFF801B41F288339842F0D95F
:1018A800032042E0264A126812F4003FE0D10120EA
:1018B8003BE0234A126812F0007FD9D1012034E0BE
:1018C8001E4B1B6803F00703AB4207D9EAB21B4B58
:1018D8001A701B6803F00703AB422DD1236813F07D
:1018E800040F06D0164A936823F4E053E1680B43CB
:1018F8009360236813F0080F07D0114A936823F404
:101908006043216943EAC1039360FFF71DFF0C4B55
:101918009B68C3F303130B4AD35CD8400A4B186087
:101928000A4B1868FEF746FF002070BD012070477B
:101938000120FAE70120F8E70120F6E7003C024021
:1019480000380240E81F00080000002008000020BE
:10195800014B1868704700BF0000002008B5FFF76A
:10196800F7FF044B9B68C3F38223034AD35CD84038
:1019780008BD00BF00380240E01F000808B5FFF7A7
:10198800E7FF044B9B68C3F34233034AD35CD84058
:1019980008BD00BF00380240E01F000810B504462B
:1019A8000268136923F44053C1680B4313618368C9
:1019B80002691A4343691A43C3691A430168CB6829
:1019C80023F4164323F00C031343CB6002685369D6
:1019D80023F4407381690B4353610368314A93428E
:1019E80006D002F58062934202D0FFF7B7FF01E00C
:1019F800FFF7C4FFE369B3F5004F29D000210318AE
:101A080049411B1841F10001C90041EA5371DB004B
:101A1800181863684FEA83024FEA937341F1000193
:101A2800FEF7AEFB204AA2FB00314909642303FB01
:101A380011031B013233A2FB03235B0903F0F002FD
:101A480002EB011203F00F03216813448B6010BDF1
:101A58000023021843EB0301121841F10001C900E9
:101A680041EA5271D200101841F1000162689218DF
:101A78005B41FEF785FB0C4AA2FB00314909642350
:101A880003FB1103DB003233A2FB03235B095A007B
:101A980002F4F87202EB011203F007032168134401
:101AA8008B60D4E7001001401F85EB5160B310B57F
:101AB800044690F8413013B3242384F84130226857
:101AC800D36823F40053D3602046FFF767FF2268EA
:101AD800136923F4904313612268536923F02A039E
:101AE80053612268D36843F40053D36000206064D4
:101AF800202384F8413084F84230606310BD80F8B8
:101B08004030FEF7D9FDD7E7012070472DE9F047AF
:101B1800089D0F4604468C46002B48D18A4216463B
:101B280061D9B2FA82F34BB1C3F1200201FA03FC86
:101B380020FA02F29E4042EA0C0C9C404FEA164EF4
:101B4800B7B2BCFBFEF1220C0EFB11CC42EA0C42F0
:101B580001FB07F0904209D9B21801F1FF3C80F06F
:101B6800EE80904240F2EB8002393244121AA4B25D
:101B7800B2FBFEF00EFB102244EA024400FB07F71A
:101B8800A74209D9341900F1FF3280F0DA80A74260
:101B980040F2D7803444023840EA0140E41B002177
:101BA8001DB1DC400023C5E90043BDE8F0878B4246
:101BB80006D90DB1C5E9000100210846BDE8F08746
:101BC800B3FA83F1002948D1BB4202D3824200F222
:101BD8000781841A67EB030201209446002DE4D0A4
:101BE800C5E9004CE1E7002A00F09280B2FA82F3DE
:101BF800002B40F0A8808A1A4FEA164E1FFA86FC7E
:101C08000121200CB2FBFEF70EFB172240EA02422C
:101C18000CFB07F0904207D9B21807F1FF3802D23F
:101C2800904200F2E2804746121AA4B2B2FBFEF0DC
:101C38000EFB102244EA02440CFB00FCA44507D921
:101C4800341900F1FF3202D2A44500F2CB801046CD
:101C5800A4EB0C0440EA0740A2E7C1F120068B4040
:101C680022FA06FC4CEA030C07FA01F420FA06F300
:101C7800F7404FEA1C49234300FA01F81FFA8CFE8B
:101C8800B7FBF9F01C0C09FB107744EA074400FB8A
:101C98000EF7A74202FA01F20AD91CEB040400F17C
:101CA800FF3A80F09B80A74240F298800238644453
:101CB800E41B9FB2B4FBF9F309FB134447EA04445D
:101CC80003FB0EFEA64509D91CEB040403F1FF37FC
:101CD80080F08280A6457FD9023B644443EA0040F5
:101CE800A4EB0E04A0FB02E7BC427346B94663D3DB
:101CF80060D05DB1B8EB030264EB090404FA06F6A0
:101D080022FA01F31E43CC40C5E9006400214CE7E8
:101D18006208480842EAC1710B0C43EA00438AB2E0
:101D280042EA0342B3FBF6F1E407B4463746B64647
:101D38001F23B0FBF6F0D21B41EA004161E7614680
:101D480014E7104628E7C3F1200120FA01F29E406B
:101D580027FA01F19F403A434FEA164E1FFA86FCD4
:101D6800B1FBFEF70EFB1710110C41EA004107FB0F
:101D78000CF8884504FA03F43AD9711807F1FF30D2
:101D880001D288451FD8A1EB0801B1FBFEF808FB7A
:101D98000CF70EFB181192B242EA0142BA422FD256
:101DA800B21808F1FF31C6D2BA42C4D2A8F1020172
:101DB8003244C0E7F0459CD2BEEB020367EB0C0748
:101DC8000138B94695E7A6EB08084144B81EB1FBAF
:101DD800FEF808FB0CF7DCE73B467FE7504667E771
:101DE8000846FBE63444023832E7023F32441BE738
:101DF800A1EB08013846B1FBFEF808FB0CF7C8E771
:101E0800414698E7830730B546D08418844604E0F5
:101E180003F8011B9D0704D09C46A4456346F7D1EF
:101E280030BD013A0244A2EB0C02032A29D9CCB2F4
:101E380004EB04240F2A04EB04442FD9A2F1100C5C
:101E48002CF00F0C03F11005AC44C3E90044C3E9BE
:101E5800024410336345F8D112F00C0F02F00F0E54
:101E680018D02EF0030C9C44AEF104051A4642F833
:101E7800044B6245FBD125F0030404330EF0030242
:101E88002344002ACCD0C9B21A4403F8011B934258
:101E9800FBD130BD7246F4E70346C6E79646E0E755
:101EA80070B50F4B0F4DAB42A3EB050607D0B6102C
:101EB800002455F8043B01349847A642F9D800F0AD
:101EC8007FF8094D094B5E1BAB424FEAA60606D0C8
:101ED800002455F8043B01349847A642F9D870BD50
:101EE8000020000800200008002000080820000842
:101EF800704700BF704700BF024B13B1024800F0A3
:101F080005B8704700000000211F000800230146A3
:101F18001A46184600F014B838B5074D074C2C1B64
:101F2800A41005D0013C55F8043D9847002CF9D180
:101F3800BDE8384000F04AB80C2000080820000826
:101F48002DE9F8431B4D0646286898460F469146EA
:101F5800FFF7CEFF184B1C681CB3286865681F2D57
:101F680022DC4EB96B1C0235636044F82570FFF71C
:101F7800C1FF0020BDE8F88304EB85010123C1F807
:101F88008890D4F88821AB401A43022EC4F88821DF
:101F9800C1F80881E6D1D4F88C211A43C4F88C2101
:101FA800E0E7064C1C60D8E7FFF7A4FF4FF0FF30CE
:101FB800E0E700BF0C0000201C01002020010020E9
:101FC800F8B500BFF8BC08BC9E467047F8B500BF1E
:081FD800F8BC08BC9E467047EE
:101FE00000000000010203040000000000000000E7
:081FF0000102030406070809C1
:081FF8001CFBFF7F010000004B
:08200000011F00082502000881
:04200800FD010008CE
:10200C000024F40001000000100000001801002062
:04000005080007697F
:00000001FF
