:020000040800F2
:100000000000022031260008C5210008C721000891
:10001000C9210008CB210008CD2100080000000004
:10002000000000000000000000000000CF210008D8
:10003000D121000800000000D3210008D5210008CC
:1000400081260008812600088126000881260008F4
:1000500081260008812600088126000881260008E4
:1000600081260008812600088126000881260008D4
:10007000DD2100088126000881260008812600086D
:1000800081260008812600088126000881260008B4
:10009000ED2100088126000881260008812600083D
:1000A0008126000881260008812600088126000894
:1000B0008126000881260008812600088126000884
:1000C0008126000881260008812600088126000874
:1000D00081260008FD210008812600080D22000865
:1000E0008126000881260008812600088126000854
:1000F0008126000881260008812600088126000844
:100100008126000881260008812600088126000833
:100110008126000881260008812600088126000823
:1001200081260008812600082122000831220008CB
:100130008126000881260008812600088126000803
:100140004122000881260008812600088126000837
:100150008126000881260008512200088126000817
:1001600081260008812600088126000881260008D3
:100170008126000881260008812600080000000072
:08018000812600088126000819
:1001C00081F0004102E000BF83F0004330B54FEA08
:1001D00041044FEA430594EA050F08BF90EA020F75
:1001E0001FBF54EA000C55EA020C7FEA645C7FEA08
:1001F000655C00F0E2804FEA5454D4EB5555B8BF2B
:100200006D420CDD2C4480EA020281EA030382EA9B
:10021000000083EA010180EA020281EA0303362D2D
:1002200088BF30BD11F0004F4FEA01314FF4801C00
:100230004CEA113102D0404261EB410113F0004F12
:100240004FEA03334CEA133302D0524263EB4303C9
:1002500094EA050F00F0A780A4F10104D5F1200E67
:100260000DDB02FA0EFC22FA05F2801841F10001C2
:1002700003FA0EF2801843FA05F359410EE0A5F196
:1002800020050EF1200E012A03FA0EFC28BF4CF0C7
:10029000020C43FA05F3C01851EBE37101F000457D
:1002A00007D54FF0000EDCF1000C7EEB00006EEB8A
:1002B0000101B1F5801F1BD3B1F5001F0CD3490814
:1002C0005FEA30004FEA3C0C04F101044FEA44526B
:1002D00012F5800F80F09A80BCF1004F08BF5FEAF2
:1002E000500C50F1000041EB045141EA050130BDD2
:1002F0005FEA4C0C404141EB0101013C28BFB1F5E4
:10030000801FE9D291F0000F04BF01460020B1FA2E
:1003100081F308BF2033A3F10B03B3F120020CDA01
:100320000C3208DD02F1140CC2F10C0201FA0CF0DF
:1003300021FA02F10CE002F11402D8BFC2F1200C44
:1003400001FA02F120FA0CFCDCBF41EA0C019040FA
:10035000E41AA2BF01EB0451294330BD6FEA040443
:100360001F3C1CDA0C340EDC04F11404C4F120022E
:1003700020FA04F001FA02F340EA030021FA04F340
:1003800045EA030130BDC4F10C04C4F1200220FA97
:1003900002F001FA04F340EA0300294630BD21FAD5
:1003A00004F0294630BD94F0000F83F4801306BF9B
:1003B00081F480110134013D4EE77FEA645C18BF8F
:1003C0007FEA655C29D094EA050F08BF90EA020F26
:1003D00005D054EA000C04BF1946104630BD91EA1E
:1003E000030F1EBF0021002030BD5FEA545C05D121
:1003F0004000494128BF41F0004130BD14F5800460
:100400003CBF01F5801130BD01F0004545F0FE41D3
:1004100041F470014FF0000030BD7FEA645C1ABF08
:10042000194610467FEA655C1CBF0B46024650EA3F
:10043000013406BF52EA033591EA030F41F400216B
:1004400030BD00BF90F0000F04BF0021704730B5F1
:100450004FF4806404F132044FF000054FF00001C6
:1004600050E700BF90F0000F04BF0021704730B587
:100470004FF4806404F1320410F0004548BF40425C
:100480004FF000013EE700BF42004FEAE2014FEAB1
:1004900031014FEA02701FBF12F07F4393F07F4F8C
:1004A00081F06051704732F07F4208BF704793F08F
:1004B0007F4F04BF41F40021704730B54FF46074A2
:1004C00001F0004521F000411CE700BF50EA0102A5
:1004D00008BF704730B54FF000050AE050EA01024E
:1004E00008BF704730B511F0004502D5404261EBBE
:1004F00041014FF4806404F132045FEA915C3FF4FF
:10050000D8AE4FF003025FEADC0C18BF03325FEA9B
:10051000DC0C18BF033202EBDC02C2F1200300FA4C
:1005200003FC20FA02F001FA03FE40EA0E0021FA71
:1005300002F11444BDE600BF70B54FF0FF0C4CF45F
:10054000E06C1CEA11541DBF1CEA135594EA0C0F11
:1005500095EA0C0F00F0DEF82C4481EA030621EA4C
:100560004C5123EA4C5350EA013518BF52EA033587
:1005700041F4801143F4801338D0A0FB02CE4FF039
:100580000005E1FB02E506F00042E0FB03E54FF069
:100590000006E1FB03569CF0000F18BF4EF0010E61
:1005A000A4F1FF04B6F5007F64F5407404D25FEA5D
:1005B0004E0E6D4146EB060642EAC62141EA555110
:1005C0004FEAC52040EA5E504FEACE2EB4F1FD0C52
:1005D00088BFBCF5E06F1ED8BEF1004F08BF5FEAD0
:1005E000500E50F1000041EB045170BD06F0004682
:1005F00046EA010140EA020081EA0301B4EB5C042F
:10060000C2BFD4EB0C0541EA045170BD41F4801126
:100610004FF0000E013C00F3AB8014F1360FDEBF4B
:10062000002001F0004170BDC4F10004203C35DA27
:100630000C341BDC04F11404C4F1200500FA05F3AA
:1006400020FA04F001FA05F240EA020001F000424B
:1006500021F0004110EBD37021FA04F642EB0601C1
:100660005EEA430E08BF20EAD37070BDC4F10C04EB
:10067000C4F1200500FA04F320FA05F001FA04F2AF
:1006800040EA020001F0004110EBD37041F100019B
:100690005EEA430E08BF20EAD37070BDC4F12005A6
:1006A00000FA05F24EEA020E20FA04F301FA05F20E
:1006B00043EA020321FA04F001F0004121FA04F2B6
:1006C00020EA020000EBD3705EEA430E08BF20EA86
:1006D000D37070BD94F0000F0FD101F000464000C0
:1006E00041EB010111F4801F08BF013CF7D041EA42
:1006F000060195F0000F18BF704703F00046520046
:1007000043EB030313F4801F08BF013DF7D043EA16
:100710000603704794EA0C0F0CEA135518BF95EACC
:100720000C0F0CD050EA410618BF52EA4306D1D153
:1007300081EA030101F000414FF0000070BD50EA72
:10074000410606BF1046194652EA430619D094EAFC
:100750000C0F02D150EA013613D195EA0C0F05D1E6
:1007600052EA03361CBF104619460AD181EA03013A
:1007700001F0004141F0FE4141F470014FF00000F2
:1007800070BD41F0FE4141F4780170BD70B54FF08D
:10079000FF0C4CF4E06C1CEA11541DBF1CEA13550D
:1007A00094EA0C0F95EA0C0F00F0A7F8A4EB0504EF
:1007B00081EA030E52EA03354FEA013100F08880E6
:1007C0004FEA03334FF0805545EA131343EA1263AF
:1007D0004FEA022245EA111545EA10654FEA002664
:1007E0000EF000419D4208BF964244F1FD0404F51D
:1007F000407402D25B084FEA3202B61A65EB030579
:100800005B084FEA32024FF480104FF4002CB6EB35
:10081000020E75EB030E22BFB61A754640EA0C00B5
:100820005B084FEA3202B6EB020E75EB030E22BFF5
:10083000B61A754640EA5C005B084FEA3202B6EB36
:10084000020E75EB030E22BFB61A754640EA9C00F5
:100850005B084FEA3202B6EB020E75EB030E22BFC5
:10086000B61A754640EADC0055EA060E18D04FEA83
:10087000051545EA16754FEA06164FEAC30343EA23
:1008800052734FEAC2025FEA1C1CC0D111F4801FF0
:100890000BD141EA00014FF000004FF0004CB6E7E9
:1008A00011F4801F04BF01430020B4F1FD0C88BF88
:1008B000BCF5E06F3FF6AFAEB5EB030C04BFB6EB93
:1008C000020C5FEA500C50F1000041EB045170BD86
:1008D0000EF0004E4EEA113114EB5C04C2BFD4EBB3
:1008E0000C0541EA045170BD41F480114FF0000E37
:1008F000013C90E645EA060E8DE60CEA135594EAB3
:100900000C0F08BF95EA0C0F3FF43BAF94EA0C0FB5
:100910000AD150EA01347FF434AF95EA0C0F7FF42A
:1009200025AF104619462CE795EA0C0F06D152EA7E
:1009300003353FF4FDAE1046194622E750EA410662
:1009400018BF52EA43067FF4C5AE50EA41047FF473
:100950000DAF52EA43057FF4EBAE12E780F00040A2
:1009600002E000BF81F0004142001FBF5FEA410387
:1009700092EA030F7FEA226C7FEA236C6AD04FEA87
:100980001262D2EB1363C1BFD218414048404140CC
:10099000B8BF5B42192B88BF704710F0004F40F47E
:1009A000000020F07F4018BF404211F0004F41F49A
:1009B000000121F07F4118BF494292EA030F3FD066
:1009C000A2F1010241FA03FC10EB0C00C3F1200379
:1009D00001FA03F100F0004302D5494260EB400008
:1009E000B0F5000F13D3B0F1807F06D340084FEA73
:1009F000310102F10102FE2A51D2B1F1004F40EB68
:100A0000C25008BF20F0010040EA030070474900CF
:100A100040EB0000013A28BFB0F5000FEDD2B0FA6C
:100A200080FCACF1080CB2EB0C0200FA0CF0AABF8F
:100A300000EBC25052421843BCBFD040184370472D
:100A400092F0000F81F4000106BF80F40000013233
:100A5000013BB5E74FEA41037FEA226C18BF7FEA0A
:100A6000236C21D092EA030F04D092F0000F08BF4C
:100A70000846704790EA010F1CBF0020704712F033
:100A80007F4F04D1400028BF40F00040704712F172
:100A900000723CBF00F50000704700F0004343F0D7
:100AA000FE4040F4000070477FEA226216BF08460D
:100AB0007FEA23630146420206BF5FEA412390EAD0
:100AC000010F40F4800070474FF0000304E000BFC6
:100AD00010F0004348BF40425FEA000C08BF704777
:100AE00043F0964301464FF000001CE050EA01023B
:100AF00008BF70474FF000030AE000BF50EA010250
:100B000008BF704711F0004302D5404261EB41013C
:100B10005FEA010C02BF84460146002043F0B64361
:100B200008BFA3F18053A3F50003BCFA8CF2083A86
:100B3000A3EBC25310DB01FA02FC634400FA02FC8F
:100B4000C2F12002BCF1004F20FA02F243EB020096
:100B500008BF20F00100704702F1200201FA02FCF8
:100B6000C2F1200250EA4C0021FA02F243EB0200EB
:100B700008BF20EADC7070474FF0FF0C1CEAD0522F
:100B80001EBF1CEAD15392EA0C0F93EA0C0F6FD0F0
:100B90001A4480EA010C400218BF5FEA41211ED0CE
:100BA0004FF0006343EA501043EA5111A0FB0131BA
:100BB0000CF00040B1F5000F3EBF490041EAD3718F
:100BC0005B0040EA010062F17F02FD2A1DD8B3F10B
:100BD000004F40EBC25008BF20F00100704790F07A
:100BE000000F0CF0004C08BF49024CEA502040EACC
:100BF00051207F3AC2BFD2F1FF0340EAC250704792
:100C000040F400004FF00003013A5DDC12F1190FCF
:100C1000DCBF00F000407047C2F10002410021FA41
:100C200002F1C2F1200200FA02FC5FEA310040F159
:100C3000000053EA4C0308BF20EADC70704792F0D2
:100C4000000F00F0004C02BF400010F4000F013A0A
:100C5000F9D040EA0C0093F0000F01F0004C02BF05
:100C6000490011F4000F013BF9D041EA0C018FE774
:100C70000CEAD15392EA0C0F18BF93EA0C0F0AD07A
:100C800030F0004C18BF31F0004CD8D180EA0100A0
:100C900000F00040704790F0000F17BF90F0004F39
:100CA000084691F0000F91F0004F14D092EA0C0F1B
:100CB00001D142020FD193EA0C0F03D14B0218BFAE
:100CC000084608D180EA010000F0004040F0FE40F4
:100CD00040F40000704740F0FE4040F44000704790
:100CE0004FF0FF0C1CEAD0521EBF1CEAD15392EA0F
:100CF0000C0F93EA0C0F69D0A2EB030280EA010CFF
:100D000049024FEA402037D04FF0805343EA111197
:100D100043EA10130CF000408B4238BF5B0042F1F5
:100D20007D024FF4000C8B4224BF5B1A40EA0C009A
:100D3000B3EB510F24BFA3EB510340EA5C00B3EBCC
:100D4000910F24BFA3EB910340EA9C00B3EBD10FBA
:100D500024BFA3EBD10340EADC001B0118BF5FEA0C
:100D60001C1CE0D1FD2A3FF650AF8B4240EBC25035
:100D700008BF20F0010070470CF0004C4CEA5020F6
:100D80007F32C2BFD2F1FF0340EAC250704740F445
:100D900000004FF00003013A37E792F0000F00F037
:100DA000004C02BF400010F4000F013AF9D040EAB5
:100DB0000C0093F0000F01F0004C02BF490011F449
:100DC000000F013BF9D041EA0C0195E70CEAD15341
:100DD00092EA0C0F08D142027FF47DAF93EA0C0F28
:100DE0007FF470AF084676E793EA0C0F04D14B020C
:100DF0003FF44CAF08466EE730F0004C18BF31F0BE
:100E0000004CCAD130F000427FF45CAF31F00043B7
:100E10007FF43CAF5FE700BF4FF0FF3C06E000BF50
:100E20004FF0010C02E000BF4FF0010C4DF804CD73
:100E30004FEA40024FEA41037FEA226C18BF7FEA83
:100E4000236C11D001B052EA530C18BF90EA010F85
:100E500058BFB2EB030088BFC81738BF6FEAE17014
:100E600018BF40F0010070477FEA226C02D15FEAB0
:100E7000402C05D17FEA236CE4D15FEA412CE1D01C
:100E80005DF8040B704700BF844608466146FFE7E3
:100E90000FB5FFF7C9FF002848BF10F1000F0FBDC5
:100EA0004DF808EDFFF7F4FF0CBF012000205DF8BE
:100EB00008FB00BF4DF808EDFFF7EAFF34BF012043
:100EC00000205DF808FB00BF4DF808EDFFF7E0FFDC
:100ED00094BF012000205DF808FB00BF4DF808ED2D
:100EE000FFF7D2FF94BF012000205DF808FB00BF90
:100EF0004DF808EDFFF7C8FF34BF012000205DF872
:100F000008FB00BF4FEA4002B2F1FE4F0FD34FF093
:100F10009E03B3EB12620DD94FEA002343F0004366
:100F200010F0004F23FA02F018BF404270474FF014
:100F30000000704712F1610F01D1420205D110F09B
:100F4000004008BF6FF0004070474FF0000070474E
:100F500053B94AB9002908BF00281CBF4FF0FF3120
:100F60004FF0FF3000F00CB8ADF1080C6DE904CE85
:100F700004F06CFADDF804E0DDE9022304B0704708
:100F8000704700BF000000000000000000000000EB
:100F90000000000000000000000000000000000051
:100FA0000000000000000000000000000000000041
:100FB0000000000000000000000000000000000031
:100FC00030B490F800F020F007016FF0000C10F042
:100FD000070491F820F040F048804FF000046FF0D3
:100FE0000700D1E9002391F840F000F1080082FAEF
:100FF0004CF2A4FA8CF283FA4CF3A2FA8CF34BBBBA
:10100000D1E9022382FA4CF200F10800A4FA8CF232
:1010100083FA4CF3A2FA8CF3E3B9D1E9042382FA00
:101020004CF200F10800A4FA8CF283FA4CF3A2FA15
:101030008CF37BB9D1E9062301F1200182FA4CF24D
:1010400000F10800A4FA8CF283FA4CF3A2FA8CF3B4
:10105000002BC6D0002A04BF04301A4612BAB2FAD6
:1010600082F200EBD20030BC7047D1E9002304F0DB
:101070000305C4F100004FEAC50514F0040F91F810
:1010800040F00CFA05F562EA05021CBF63EA0503AD
:1010900062464FF00004AAE70000000000000000D4
:1010A00001F0FF01102A2BDB10F0070F08D010F819
:1010B000013B013A8B422DD010F0070F42B3F6D11D
:1010C000F0B441EA012141EA014122F007047FF036
:1010D00000070023F0E80256083C85EA010586EA8D
:1010E000010685FA47F5A3FA87F586FA47F6A5FAC9
:1010F00087F68EB9EED1F0BC01F0FF0102F00702D5
:1011000032B110F8013B013A83EA010313B1F8D17F
:101110000020704701387047002D06BF3546033860
:10112000073815F0010F07D1013015F4807F02BF99
:10113000013015F4C03F0130F0BC0138704700BFEA
:10114000844641EA000313F003036DD1403A41D3D2
:1011500051F8043B40F8043B51F8043B40F8043B91
:1011600051F8043B40F8043B51F8043B40F8043B81
:1011700051F8043B40F8043B51F8043B40F8043B71
:1011800051F8043B40F8043B51F8043B40F8043B61
:1011900051F8043B40F8043B51F8043B40F8043B51
:1011A00051F8043B40F8043B51F8043B40F8043B41
:1011B00051F8043B40F8043B51F8043B40F8043B31
:1011C00051F8043B40F8043B51F8043B40F8043B21
:1011D000403ABDD2303211D351F8043B40F8043BC1
:1011E00051F8043B40F8043B51F8043B40F8043B01
:1011F00051F8043B40F8043B103AEDD20C3205D3D1
:1012000051F8043B40F8043B043AF9D2043208D0C8
:10121000D2071CBF11F8013B00F8013B01D30B883A
:1012200003806046704700BF082A13D38B078DD018
:1012300010F003038AD0C3F10403D21ADB071CBFEA
:1012400011F8013B00F8013B80D331F8023B20F854
:10125000023B7BE7043AD9D3013A11F8013B00F88D
:10126000013BF9D20B7803704B7843708B78837015
:10127000604670474FF0FF3C06E000BF4FF0010CA6
:1012800002E000BF4FF0010C4DF804CD4FEA410CD5
:101290007FEA6C5C4FEA430C18BF7FEA6C5C1BD0A2
:1012A00001B050EA410C0CBF52EA430C91EA030F23
:1012B00002BF90EA020F0020704710F1000F91EA80
:1012C000030F58BF994208BF90422CBFD8176FEA4E
:1012D000E37040F0010070474FEA410C7FEA6C5C1C
:1012E00002D150EA013C07D14FEA430C7FEA6C5C23
:1012F000D6D152EA033CD3D05DF8040B704700BF4F
:101300008446104662468C461946634600E000BF9C
:1013100001B5FFF7B7FF002848BF10F1000F01BD6E
:101320004DF808EDFFF7F4FF0CBF012000205DF839
:1013300008FB00BF4DF808EDFFF7EAFF34BF0120BE
:1013400000205DF808FB00BF4DF808EDFFF7E0FF57
:1013500094BF012000205DF808FB00BF4DF808EDA8
:10136000FFF7CEFF94BF012000205DF808FB00BF0F
:101370004DF808EDFFF7C4FF34BF012000205DF8F1
:1013800008FB00BF4FEA410C7FEA6C5C02D150EAD7
:10139000013C0AD14FEA430C7FEA6C5C02D152EA6D
:1013A000033C02D14FF0000070474FF0010070473E
:1013B0004FEA410212F5001215D211D56FF478737D
:1013C000B3EB625212D94FEAC12343F0004343EA20
:1013D000505311F0004F23FA02F018BF40427047FB
:1013E0004FF00000704750EA013005D111F0004085
:1013F00008BF6FF0004070474FF00000704700BF1B
:101400000348044B834202D0034B03B11847704793
:101410000C0700200C070020000000000548064BC8
:101420001B1AD90F01EBA301491002D0034B03B1E2
:10143000184770470C0700200C0700200000000030
:1014400010B5064C237843B9FFF7DAFF044B13B10C
:101450000448AFF300800123237010BD0C07002067
:1014600000000000F0C3000808B5054B1BB105499A
:101470000548AFF30080BDE80840FFF7CFBF00BFCD
:101480000000000010070020F0C300082DE9F04123
:101490008AB04FF00108CDF8208000240694CDF8E2
:1014A0001C80009401940294039405940494204DAC
:1014B0006946284601F0CCFD284601F067FE02216E
:1014C000284601F0BBFF0E27099705976946284675
:1014D00001F0BEFD284601F059FE0221284601F028
:1014E000ADFFCDF820800694CDF81C8000940194C7
:1014F00002940394059404940E4C6946204601F02E
:10150000A7FD204601F042FE0221204601F096FF91
:10151000099705976946204601F09AFD204601F09B
:1015200035FE0221204601F089FF0AB0BDE8F081B6
:10153000540700202C07002008B50D480D4B036010
:101540000323436000238360C3604FF410220261D1
:101550004FF400124261037643768376C3760377B5
:10156000437701F0CFFC00B908BD00F0BDFAFBE7FE
:10157000540700200064004008B50D480D4B03607F
:101580000323436000238360C3604FF41022026191
:101590004FF400124261037643768376C376037775
:1015A000437701F0AFFC00B908BD00F09DFAFBE7FE
:1015B0002C0700200068004010B58AB00023059376
:1015C000069307930893099303683D4A934204D016
:1015D0003C4A934234D00AB010BD3B4A13680133F1
:1015E0001360012B1FD000240194384B1A6B42F07A
:1015F00008021A631B6B03F008030193019B03238A
:1016000005930222069208930923099305A93048FD
:1016100002F034FB22462146142002F0A9F81420DF
:1016200002F0B6F8D7E700230093284B1A6C42F07B
:1016300000721A641B6C03F000730093009BD2E7E6
:1016400000230293214B1A6C42F080621A641B6CD7
:1016500003F080630293029B1B4A136801331360FB
:10166000012B20D000240494184B1A6B42F0020284
:101670001A631B6B03F002030493049B602305931E
:1016800002230693032308930923099305A911480C
:1016900002F0F4FA22462146402002F069F8402088
:1016A00002F076F897E700230393084B1A6C42F098
:1016B00000721A641B6C03F000730393039BD1E761
:1016C0000064004000680040280700200038024005
:1016D000000C02400004024010B582B000240094C7
:1016E0001A4B1A6B42F400121A631A6B02F40012BE
:1016F0000092009A01941A6B42F480021A631B6BE9
:1017000003F480030193019B224621460C2002F042
:101710002FF80C2002F03CF8224621463A2002F035
:1017200027F83A2002F034F8224621463B2002F006
:101730001FF83B2002F02CF822462146462002F0FA
:1017400017F8462002F024F802B010BD003802401D
:101750002DE9F0438DB007AD002407940894099457
:101760000A940B9401943D4B1A6B42F002021A63E7
:101770001A6B02F002020192019A02941A6B42F073
:1017800001021A631A6B02F001020292029A039498
:101790001A6B42F008021A631A6B02F008020392F5
:1017A000039A04941A6B42F004021A631A6B02F053
:1017B00004020492049A05941A6B42F080021A63A0
:1017C0001A6B02F080020592059A06941A6B42F099
:1017D00020021A631B6B03F020030693069BDFF8BD
:1017E000809022464FF4E051484602F041FBDFF87A
:1017F000748001221021404602F03AFB1A4F012268
:101800001146384602F034FB4FF4E05307930126AB
:10181000089609940A942946484602F02FFA1023A4
:1018200007930896099602240A942946404602F036
:1018300025FA302307934FF4881308930996294615
:101840000A4802F01BFA0796089609960A94294658
:10185000384602F013FA0DB0BDE8F08300380240BC
:10186000001C024000000240000402400008024048
:101870002DE9F04F97B005900C4616468E4B0FCBD6
:1018800016AD05E90F00029425681095039634689B
:10189000119400212046FFF76FF901462846FFF713
:1018A00063F800900E9000212846FFF765F9014685
:1018B0002046FFF759F801900F90804CD4F8009023
:1018C000A76800213846FFF757F980460146484689
:1018D000FFF74AF88246666800213046FFF74CF968
:1018E000054601465046FFF73FF88346D4F80CA062
:1018F00000215046FFF740F904900021FFF73CF922
:1019000001465846FFF730F86D4B1968FFF72CF881
:1019100083460A9000214846FFF72EF981460021B0
:101920004046FFF729F901464846FFF71DF80146F2
:101930003046FFF719F801460498FFF715F80646F8
:101940000B9049463846FFF70FF807460021284616
:10195000FFF712F901463846FFF706F801460498EA
:10196000FFF702F807460C9000214846FFF704F9FC
:1019700001464046FEF7F8FF01462846FEF7F4FF11
:1019800001465046FEF7F0FF4E4B1968FEF7ECFF9C
:1019900005460D9008AA484901F1100393E8030099
:1019A00082E8030001990098FEF7DEFF01460598E2
:1019B000FEF7D8FF824639465846FEF7D5FF014666
:1019C0003046FEF7D1FF01462846FEF7CDFF3E4BDD
:1019D0001968FEF7C9FF814631465846FEF7C4FF35
:1019E0004946FFF77DF98046069029463846FEF7BE
:1019F000BBFF4946FFF774F98146079051464046C0
:101A0000FFF7BAF801460098FEF7AEFF029B186098
:101A100051464846FFF7B0F801460198FEF7A4FF8B
:101A2000039B186041464FF07E50FEF79BFF8246B5
:101A300001465846FFF7A0F8009041463846FFF7A8
:101A40009BF801460098FEF78DFF20605146304616
:101A5000FFF792F8824641462846FFF78DF8014687
:101A60005046FEF77FFF606009F1004A5146584634
:101A7000FFF782F8834649464FF07E50FEF772FF2B
:101A8000804601463846FFF777F801465846FEF78C
:101A90006BFFA06051463046FFF76EF806464146A0
:101AA0002846FFF769F801463046FEF75DFFE06023
:101AB00017B0BDE8F08F00BF08C400080000002088
:101AC0001800002014000020100000200268044BC1
:101AD0009A4200D07047034B01221A70FAE700BF08
:101AE000001001401C00002072B6FEE700B595B062
:101AF0003022002108A803F07FFF03A800230393EE
:101B000043608360C36003610193254A116C41F017
:101B100080511164126C02F080520192019A02937A
:101B2000204A116841F480411160126802F4804239
:101B30000292029A012203920493052102F0F8FB1B
:101B400040BB012308934FF48033099302230E9383
:101B50004FF480020F9206221092A8221192129343
:101B60000423139308A802F093F9A8B90F23039351
:101B700002230493002305934FF4A05306934FF4DC
:101B800080530793052103A802F0D2FB30B915B0AA
:101B90005DF804FBFFF7A8FFFFF7A6FFFFF7A4FF20
:101BA00000380240007000402DE9F04FFDB001F018
:101BB0007DF9FFF79BFFFFF7CBFDFFF78DFDFFF7EB
:101BC000BBFC00F02DFC00F045FCFFF7D5FC00F05D
:101BD00023FA00F0EBFB00F0DDFE0028FBD1FFF75D
:101BE00055FC01F0BDF800249B4DDFF870824FF0EA
:101BF0008D4701979A4E009623462A4641462FA8C4
:101C000000F0A2F90197009623462A46414622A8F1
:101C100000F09AF9DFF84C820197009623462A4695
:101C2000414615A800F090F90197009623462A46F0
:101C3000414608A800F088F9079406940594049496
:101C4000BBE031463846FEF78FFE80462146FEF760
:101C50008BFE00F100408449FEF78EFF81464FF075
:101C60007E512846FEF780FE054601464846FEF7AF
:101C700083FF049039463046FEF774FE064621463F
:101C8000FEF770FE7849FEF777FF01462846FEF71B
:101C900073FF059021464046FEF764FE00F10040C8
:101CA0007149FEF769FF01462846FEF765FF069079
:101CB00021463046FEF758FE6B49FEF75DFF0146B0
:101CC0002846FEF759FF0790002000F09BFF804652
:101CD000012000F097FF0746022000F093FF064620
:101CE000032000F08FFF0546B8F90200FEF7F0FE72
:101CF000024604992FA800F033F98346B7F9020091
:101D0000FEF7E6FE0246059922A800F029F9824670
:101D1000B6F90200FEF7DCFE0246069915A800F0AF
:101D20001FF98146B5F90200FEF7D2FE0246079977
:101D300008A800F015F904465046FFF7E3F80FFA3B
:101D400080FA5846FFF7DEF8514600B200F016FF61
:101D50002046FFF7D7F804B24846FFF7D3F82146EC
:101D600000B200F02DFF414C414A2146414800F0AD
:101D70001FFE2068404B18606368DFF80091C9F8C7
:101D80000030A3683E4C236000233E4A3E49FFF7E3
:101D90006FFD01233D4A3E49D9F80000FFF768FD79
:101DA00002233C4A3C492068FFF762FD3B4A138806
:101DB00001331BB21380022B76D000F0DBFF044608
:101DC000002881D0B0F90000FEF782FE00F1004843
:101DD000B4F90200FEF77CFE0646B4F90400FEF7F3
:101DE00077FE00F10047B4F90600FEF771FE0546E4
:101DF0002B493846FEF774FF074629493046FEF75F
:101E00006FFF064626494046FEF76AFF044624490E
:101E10002846FEF765FF054627F000402149FFF7F9
:101E200049F800B1002726F000401E49FFF742F8AC
:101E300000B1002624F000401A49FFF73BF800B13A
:101E4000002425F000401749FFF734F800283FF43C
:101E5000F8AE0025F5E600BF0AD7233C000090400D
:101E60000060EA460000604000007A44A4070020B9
:101E7000A0070020B00700209C0700209807002042
:101E8000940700208407002090070020800700208E
:101E90008C0700207C07002088070020BC0700205A
:101EA00000002544CDCC4C3D134600221A804FF44F
:101EB00000611D4801F0E2FF1C4B1B78012B7FF4F1
:101EC0007CAFB8F90220B7F90230B6F90210B5F9C3
:101ED00002003CAC019000911549204603F022FD20
:101EE000144B1868FEF7D0FA06460F46124B1868D6
:101EF000FEF7CAFACDE90201104B1868FEF7C4FAE2
:101F0000CDE9000132463B460D49204603F00AFD6B
:101F1000064B00221A702046FFF752F882B2214683
:101F2000084803F031F848E7001C02401C0000207C
:101F300020C4000890070020880700208C0700209C
:101F400030C400082C0A0020016042608360009BBE
:101F5000C360019B03610023C36103628362704716
:101F60002DE9F8430446084611466061A261D4F8A1
:101F70001C80C4F82080FEF7F5FC0546E06121686E
:101F8000FEF7FAFD07466062A66A61682846FEF71A
:101F9000F3FD01463046FEF7E7FC0646A062D4F8A2
:101FA000089041462846FEF7DDFC01464846FEF70C
:101FB000E3FD0546E062D4F80C8008F1004949468B
:101FC0003046FEF777FFB0B1C4F82890A16A3846D2
:101FD000FEF7CAFC01462846FEF7C6FC054620630C
:101FE000266906F100473946FEF764FF60B12763B2
:101FF000206BBDE8F88341463046FEF779FF0028A4
:10200000E4D0C4F82880E1E731462846FEF770FFA7
:102010000028EDD02663EBE708B50F480F4B0360AF
:102020004FF48273436000238360C3600222026125
:10203000012242614FF4007282613822C261036260
:10204000436283620A23C36202F0ECFA00B908BD5E
:10205000FFF74AFDFBE700BF800800200030014089
:102060002DE9F04389B0002303930493059306936D
:10207000079302683E4B9A4202D009B0BDE8F08354
:1020800004460025009503F584335A6C42F48052CF
:102090005A645A6C02F480520092009A01951A6BAD
:1020A00042F002021A631A6B02F002020192019AD4
:1020B00002951A6B42F001021A631B6B03F00103D5
:1020C0000293029B182303934FF00209CDF810905E
:1020D0004FF00308CDF818800527079703AE314667
:1020E000244801F0CBFD80230393CDF81090059593
:1020F000CDF81880079731461F4801F0BFFD1F48F3
:102100001F4B03604FF0C06343608560C5604FF4B0
:102110008063036145618561C5614FF440330362AB
:10212000456201F0C7FBE8B9144BE3649C631548B2
:10213000154B03604FF0C06343604023836000236E
:10214000C3604FF48062026143618361C3614FF4F5
:1021500000320262436201F0ADFB30B9094BA36467
:102160009C638AE7FFF7C0FCDEE7FFF7BDFCF5E7FD
:10217000003001400004024000000240200800201E
:1021800040640240C00700205864024082B0002131
:1021900000910B4B5A6C42F480425A645A6C02F420
:1021A00080420092009A01911A6C42F080521A64A7
:1021B0001B6C03F080530193019B02B0704700BF7A
:1021C00000380240FEE7FEE7FEE7FEE7FEE7704765
:1021D0007047704708B500F083FE08BD08B5024897
:1021E00001F05EFC08BD00BF2409002008B50248CC
:1021F00001F042F908BD00BF5407002008B50248AD
:1022000002F0E2FF08BD00BF2C0A002008B5034819
:1022100002F0DAFF00F0B2FD08BD00BFE4090020C3
:1022200008B5024801F03CFC08BD00BF20080020B2
:1022300008B5024801F034FC08BD00BFC00700200B
:1022400008B5024801F018F908BD00BF2C070020AE
:1022500008B5024801F024FC08BD00BF8409002035
:102260000120704708B503F069FC162303604FF0A6
:10227000FF3008BD08B54FF0FF31FFF7F3FFFEE771
:1022800070B50C461646002506E0AFF300802146E7
:1022900001F8010B01350C46B542F6DB304670BD46
:1022A00070B50C461646002504E014F8010BAFF398
:1022B00000800135B542F8DB304670BD4FF0FF308D
:1022C00070474FF400534B60002070470120704767
:1022D0000020704710B503460C4A0D490D480068B0
:1022E00040B10C4800680344521A934206D8094A88
:1022F000136010BD0748084C0460F2E703F01EFCB1
:102300000C2303604FF0FF30F3E700BF0000022012
:1023100000040000D8080020580E0020704700007C
:102320000268094B9A4200D0704782B000230193A3
:10233000064B5A6C42F400325A645B6C03F400336F
:102340000193019B02B070470044014000380240F5
:1023500000B587B000230193029303930493059380
:1023600002680F4B9A4202D007B05DF804FB0023CD
:1023700000930C4B1A6B42F020021A631B6B03F0A4
:1023800020030093009B40230193022302930493B4
:102390000323059301A9044801F070FCE4E700BFA2
:1023A00000440140003802400014024000B589B0EA
:1023B00000230193029303930493059306930793D9
:1023C0001548164A02604360836041F28732C2605A
:1023D0000361836102F0B4FBA0B90F4802F0DCFB9B
:1023E00098B960230193002202920392059201A9F9
:1023F000094802F035FC58B90748FFF7A9FF09B0B2
:102400005DF804FBFFF770FBE7E7FFF76DFBE8E71C
:10241000FFF76AFBF0E700BFDC0800200044014042
:1024200008B50A480A4B03604FF4E13343600023C8
:102430008360C36003610C2242618361C36102F067
:1024400073FD00B908BDFFF74FFBFBE72C0A002026
:102450000010014008B50A480A4B03600A4B43606C
:1024600000238360C36003610C2242618361C36106
:1024700002F05AFD00B908BDFFF736FBFBE700BFCD
:10248000E409002000480040A08601002DE9F04347
:102490008BB0044600230593069307930893099392
:1024A0000368594A934205D0584A934263D00BB00F
:1024B000BDE8F08300250095554B5A6C42F01002A0
:1024C0005A645A6C02F010020092009A01951A6B3D
:1024D00042F002021A631A6B02F002020192019AA0
:1024E00002951A6B42F001021A631B6B03F00103A1
:1024F0000293029B802305934FF00209CDF81890B8
:102500004FF00308CDF820800727099705AE314624
:10251000404801F0B3FB4FF400730593CDF81890D9
:102520000795CDF82080099731463B4801F0A6FB7E
:102530003A483B4B03604FF00063436040238360A5
:10254000C5604FF48063036145618561C5610562C3
:10255000456201F0AFF958B9304BA3639C63002288
:102560001146252001F004F9252001F011F99EE71C
:10257000FFF7BAFAF0E700250395254B1A6C42F4F1
:1025800080221A641A6C02F480220392039A049542
:102590001A6B42F004021A631B6B03F004030493EA
:1025A000049B4FF44063059302230693032308938F
:1025B0000723099305A91B4801F060FB1A481B4B30
:1025C00003604FF0006343608560C5604FF4806333
:1025D0000361456185614FF48073C3614FF400333B
:1025E0000362456201F066F958B90F4BE3639C63DF
:1025F00000221146272001F0BBF8272001F0C8F87F
:1026000055E7FFF771FAF0E700100140004800407D
:10261000003802400004024000000240840900200B
:10262000B8640240000802402409002028600240EB
:10263000DFF834D0FFF772FE0C480D490D4A002335
:1026400002E0D458C4500433C4188C42F9D30A4A67
:102650000A4C002301E013600432A242FBD303F0D2
:1026600073FAFFF7A1FA7047000002200000002073
:102670000C07002098C800080C070020580E002006
:10268000FEE77047704710B44FF0E0235C69A82262
:1026900002FB00FC9B69002104E0E01A02441144A3
:1026A000614509D21A464FF0E0239B699A42FAD05D
:1026B000F3D9D21A1144F3E710BC704710B504E007
:1026C0004FF47A70FFF7DFFF2046431E9CB20028CC
:1026D000F6D110BD08B500221021024801F0C8FB58
:1026E00008BD00BF0000024008B5012210210248C9
:1026F00001F0BEFB08BD00BF0000024008B500228B
:102700000121024801F0B4FB08BD00BF00040240F3
:1027100008B501221146024801F0AAFB08BD00BF1E
:102720000004024000B587B08DF80F004FF47A73B3
:10273000009301230DF117020DF10F01034801F081
:10274000D0FF9DF8170007B05DF804FB800800205B
:1027500010B50C46FFF7E6FF2046FFF7E3FF10BD7C
:1027600010B50C4640F08000FFF7DCFF5520FFF766
:10277000D9FF207010BD38B50D46144640F08000DA
:10278000FFF7D0FF06E05520FFF7CCFF05F8010B5F
:10279000013CE4B2002CF6D138BD000070B5FFF763
:1027A00099FF8020FFF7BEFF5520FFF7BBFF5520A4
:1027B000FFF7B8FFFFF798FF9620FFF764FFFFF7DA
:1027C00089FF8020FFF7AEFF5520FFF7ABFF5520B4
:1027D000FFF7A8FFFFF788FF9620FFF754FFFFF7EA
:1027E00079FFB6217E20FFF7B3FFFFF77DFF502072
:1027F000FFF764FFFFF76EFF8020FFF793FF552080
:10280000FFF790FF5520FFF78DFFFFF76DFF962034
:10281000FFF739FFFFF75EFF8020FFF783FF5520AA
:10282000FFF780FF5520FFF77DFF0446FFF75CFFB1
:102830009620FFF728FF1E2C32D10024052C2DD81E
:10284000FFF748FF174A04EB4403D1184E78D55CD4
:1028500031462846FFF77CFFFFF746FF9620FFF73B
:1028600012FFFFF737FF45F08000FFF75BFF5520B1
:10287000FFF758FF5520FFF755FF0546FFF734FFD8
:102880009620FFF700FFAE4202D10134E4B2D5E753
:1028900004EB4404034B2344987800E0002070BD0F
:1028A000FF20FCE724C6000870B582B000248DF834
:1028B0000740FFF723FF0DF1070529462046FFF7E4
:1028C0004FFFFFF725FF9620FFF7DDFEFFF716FF0E
:1028D00029462046FFF744FFFFF71AFF9620FFF72F
:1028E000D2FEFFF70BFFB6211420FFF731FFFFF7F1
:1028F0000FFF5020FFF7E2FEFFF700FF29462046BA
:10290000FFF72EFFFFF704FF9620FFF7BCFEFFF74F
:10291000F5FE29462046FFF723FFFFF7F9FE962034
:10292000FFF7B1FE9DF807300F2B2ED1052C29D8CB
:10293000FFF7E4FE164A04EB4403D1184D78D65C49
:1029400029463046FFF704FFFFF7E2FE9620FFF727
:102950009AFEFFF7D3FE0DF107013046FFF700FFA7
:10296000FFF7D6FE9620FFF78EFE9DF807309D42BA
:1029700002D10134E4B2D9E704EB4404044B23440C
:10298000987800E0002002B070BDFF20FBE700BF98
:1029900010C6000810B5FFF774FEFFF773FEFFF7CF
:1029A000FDFE0446FFF780FF2043C0B210BD0000CB
:1029B0002DE9F04383B005460C46164600270097E4
:1029C0000197FFF787FE9220FFF7ACFE06226946CB
:1029D0001220FFF7D0FEFFF787FE9DF801301B02A3
:1029E0001BB29DF800001843FEF772F8DFF8FC9068
:1029F000D9F80010FEF7C0F820609DF803301B02E4
:102A00001BB29DF80200D9F800901843FEF760F859
:102A10004946FEF7B1F860609DF805301B021BB215
:102A20009DF804001843FEF753F84946FEF7A4F852
:102A3000A060FFF763FE082269463846FFF79BFE59
:102A4000FFF766FE9DF800300F2B24D0FFF742FE03
:102A5000A220FFF767FE022269462220FFF78BFEC5
:102A6000FFF742FE9DF800309DF80100400940EA62
:102A7000C300B0F5806F01DBA0F50060FEF728F819
:102A80004FF07851FEF778F81949FDF76DFF306087
:102A900003B0BDE8F0839DF803301B021BB29DF824
:102AA00002001843FEF714F8124C2168FEF764F890
:102AB00028609DF805301B021BB29DF804002468B5
:102AC0001843FEF705F82146FEF756F868609DF8B2
:102AD00007301B021BB29DF806001843FDF7F8FFF4
:102AE0002146FEF749F8A860B0E700BF28000020A3
:102AF0000000B8412400002000B58BB001AB03AA50
:102B0000002100F0E6FB039BA3F20122062A2DD848
:102B1000013BDBB2174A1370174903EB83004200F5
:102B2000881831F902C0A0F808C09DF804E09DF8AB
:102B300005C04CEA0E2C21F802C09DF806201202B6
:102B400012B29DF807C042EA0C0242809DF80820AC
:102B5000120212B29DF809C042EA0C0282809DF86E
:102B60000A0003EB83035A008B1898710BB05DF8D1
:102B700004FB00BF740A0020980A002000B583B04F
:102B80000B460C494FF400720A6000228A60CA604A
:102B900008220A61084A4FEA202C82F800C05070CF
:102BA00018129070D37001AB044800F01DFB03B005
:102BB0005DF804FB800A0020780A002054070020FA
:102BC00000B583B00B460C494FF400720A60002236
:102BD0008A60CA6008220A61084A4FEA202C82F8FB
:102BE00004C0507118129071D37101AB044800F009
:102BF000FBFA03B05DF804FB800A0020780A00208D
:102C00002C07002000F0030000EB8000014B03EBD9
:102C100040007047980A002010B4164B1B685C698E
:102C200044F040045C61DC6844F01004DC60124B4A
:102C30001C68236823F00103236003E01C6824F070
:102C400001041C600C4B1B681C6814F0010FF5D1CB
:102C50000A4C9C60D86019615A601A6842F480225C
:102C60001A60054B1A68136843F00103136010BC27
:102C7000704700BFE40900202409002004480040F8
:102C800000286BD00346002968D030B5047842781C
:102C900044EA0224C4F30A040C80427890F802E06B
:102CA0004FEA4E1E4EEAD20ECEF30A0EA1F802E013
:102CB0008078DA78920042EA9012187942EA80220B
:102CC000C2F30A028A801D795879C00140EA550092
:102CD000C0F30A00C88093F805C0CCF3011C81F84A
:102CE0000AC093F805C04FEA9C1C81F80BC093F80A
:102CF00006C0DD794CEA052CA1F80CC093F808C099
:102D00005D7A4CEA052CA1F80EC093F80AC0DD7A72
:102D10004CEA052CA1F810C01D7B8D745D7BCD7431
:102D200093F80EC0DD7B4CEA052CA1F814C093F893
:102D300010C05B7C4CEA03230B81A4F580640C80FB
:102D4000AEF5806EA1F802E0A2F580628A80A0F55F
:102D50008060C880A3F580630B8130BD70470000A0
:102D600008B503492422A1F12400FFF755FF08BD4F
:102D7000040B002000487047280B002000B583B0EA
:102D80002F4B1B681A6812F0200F09D00022009206
:102D90001A6800925B680093009B03B05DF804FB27
:102DA000284A126812F0100FF7D0002201921A6818
:102DB00001925B680193019B234B1B681A6812F414
:102DC000002F1DD11A6822F001021A601E48026805
:102DD0005368C3F124039BB21C490B80242151602A
:102DE000116841F40021116001680A6842F0010293
:102DF0000A60122BD1D116491648FFF741FFCCE7E4
:102E00001A6822F001021A600F490A685368C3F178
:102E100024039BB20D480380242050600E48826A30
:102E200022F40022826209680A6842F001020A6004
:102E3000122BB2D106490948FFF722FFADE700BFC8
:102E4000E40900200048004024090020DE0A002098
:102E5000280B0020E00A002000600240040B002044
:102E600010B504460E4B1A784FF47A73B3FBF2F3A5
:102E70000C4A1068B0FBF3F000F08EFC68B90F2C20
:102E800001D901200AE0002221464FF0FF3000F076
:102E90006FFC054B1C60002000E0012010BD00BF4E
:102EA0002C000020200000203000002008B50B4B33
:102EB0001A6842F400721A601A6842F480621A605A
:102EC0001A6842F480721A60032000F03FFC0F2061
:102ED000FFF7C6FFFFF75AF9002008BD003C02408B
:102EE000034A1168034B1B780B441360704700BF03
:102EF000400B00202C000020014B1868704700BFD9
:102F0000400B0020002800F0A18038B5044690F85E
:102F10002030D3B12268136843F001031360FFF738
:102F2000EBFF054623685A6812F0010F10D1FFF736
:102F3000E3FF401B0A28F5D9636A43F40033636258
:102F4000052384F82030012038BDFEF735FBE1E78A
:102F50001A6822F002021A60FFF7CEFF05462368C6
:102F60005A6812F0020F0DD0FFF7C6FF401B0A2867
:102F7000F5D9636A43F400336362052384F8203093
:102F80000120E1E7227E012A3DD01A6822F080026A
:102F90001A60637E012B3BD02268136823F0400344
:102FA0001360A37E012B39D02268136823F020031D
:102FB0001360E37E012B37D02268136843F01003BF
:102FC0001360237F012B35D02268136823F0080398
:102FD0001360637F012B33D02268136823F004034E
:102FE0001360A368E26813432269134362691343C1
:102FF0006268013A21681343CB61002060620123BB
:1030000084F82030A0E71A6842F080021A60C0E716
:103010002268136843F040031360C2E72268136814
:1030200043F020031360C4E72268136823F0100301
:103030001360C6E72268136843F008031360C8E70B
:103040002268136843F004031360CAE70120704745
:1030500090F82030013BDBB2012B05D9436A43F4E1
:10306000802343620120704710B5474BD3F80022FC
:1030700042F00102C3F80022D3F8002222F47C526D
:10308000C3F80022D3F80022486A42EA0022C3F8BB
:1030900000224A6902F01F02012000FA02F2D3F86E
:1030A0001C026FEA020C20EA0200C3F81C02CB6982
:1030B000CBB9354BD3F80C020CEA0000C3F80C0274
:1030C0008C884869D1F80CE044EA0E44483043F853
:1030D00030408C68088840EA04404C6904F1480E8E
:1030E00003EBCE035860CB69012B1ED08B69002BFC
:1030F00035D12548D0F804320CEA0303C0F8043275
:103100000B699BBB2048D0F814320CEA0303C0F8CB
:1031100014320B6A012B30D01B4AD2F8003223F054
:103120000103C2F80032002010BD174BD3F80C0287
:103130001043C3F80C028C884869D1F800E044EAD7
:103140000E44483043F8304088894C69D1F808E093
:1031500040EA0E40483403EBC4035860C6E70A480F
:10316000D0F804321343C0F80432C9E70648D0F857
:1031700014321343C0F81432CBE70349D1F81C32A0
:103180001343C1F81C32C7E70064004070B5044621
:1031900090F82030012B06D0436A43F400234362A9
:1031A0000126304670BDDEB2022380F8203002686E
:1031B000136823F001031360FFF79EFE05462368A2
:1031C0005B6813F0010F0CD0FFF796FE431B0A2B30
:1031D000F5D9636A43F400336362052384F8203031
:1031E000DFE700266662DCE730B590F820C00468AF
:1031F000A4680CF1FF3C5FFA8CFCBCF1010F62D8B3
:1032000014F0E05F59D0C4F3016C012404FA0CF40B
:103210001C608B68002B3DD10D68CB68046843EAC5
:1032200045550CF118031B01E55003680C690CF1BE
:10323000180E03EB0E135C600B7D012B35D0D1799A
:1032400093791B0443EA0163517943EA012314791A
:103250000168234301EB0C11C1F88C31D1789378CC
:103260001B0443EA0163517843EA012311780268A1
:103270000B4302EB0C12C2F8883102680CF1180CF7
:103280004FEA0C1C52F80C3043F0010342F80C30AA
:1032900000201DE04C6843EAC403CC6823430CF1D2
:1032A0001804240105682B51BFE7036803EB0E13D4
:1032B000596841F480715960C1E7436A43F40013CF
:1032C0004362012004E0436A43F480234362012007
:1032D00030BD90F820C00CF1FF3C5FFA8CFCBCF1D3
:1032E000010F00F2A58030B451B90468E46814F00D
:1032F000030F10D1436A43F40013436201207EE0C0
:103300000468246914F0030F05D1436A43F40013E1
:103310004362012073E0056801F11B0424012C596C
:1033200004F004049460002C6BD1056801F11B04C7
:1033300024012C59640D1460046801F11B0C4FEA40
:103340000C1C54F80C4004F00204D4600468A4443B
:10335000DCF8045015F0080F5BD0082414610468F1
:1033600001F11B0C04EB0C146468C4F30724946192
:10337000046804EB0C146468240C5461026802EBCA
:103380000112D2F8B8211A70026802EB0112D2F8C9
:10339000B821C2F307225A70026802EB0112D2F878
:1033A000B821C2F307429A70026802EB0112D2F808
:1033B000B821120EDA70026802EB0112D2F8BC21B9
:1033C0001A71026802EB0112D2F8BC21C2F3072283
:1033D0005A71026802EB0112D2F8BC21C2F3074213
:1033E0009A71026802EB0112D2F8BC21120EDA7156
:1033F000C1B90268D36843F02003D360002030BC19
:103400007047056801F11B0424012C59E40854603D
:1034100092E701F11B0504EB0514646804F00F0446
:1034200014619CE70268136943F020031361E5E728
:10343000436A43F4802343620120704790F82030B0
:10344000013BDBB2012B05D9436A43F4802343627D
:1034500001207047026853690B4353610020704795
:1034600070477047704770477047704770477047A4
:1034700070477047704770472DE9F84F054603685D
:103480005C69D3F804809F68D3F80CA0D3F810903F
:10349000D3F818B014F001063BD017F0010616D08F
:1034A00001229A6017F0020F08D117F0040F0CD117
:1034B00017F0080606D04FF4805608E0FFF7D0FF5B
:1034C000002604E0FFF7CFFF01E04FF4006617F499
:1034D000807F0DD02B684FF480729A6017F4007FC4
:1034E00040F0968017F4806F00F0968046F4005606
:1034F00017F4803F0DD02B684FF480329A6017F498
:10350000003F40F0938017F4802F00F0938046F442
:10351000004614F0080F07D01AF0100F04D046F43C
:1035200000762B681022DA6014F0040F03D01AF032
:10353000080F40F0898014F0020F05D02B68DB687B
:1035400013F0030F40F0878014F0400F07D019F0FC
:10355000100F04D046F480662B6810221A6114F014
:10356000200F02D019F0080F79D114F0100F04D0F9
:103570002B681B6913F0030F78D114F4003F02D0BD
:1035800018F0100F76D114F4803F02D018F0080F15
:1035900077D114F4004F37D018F0040F31D014F461
:1035A000807F04D01BF0010F01D046F0010614F417
:1035B000007F04D01BF0020F01D046F0020614F485
:1035C000806F04D01BF0040F01D046F0040614F401
:1035D000006F16D01BF0700B13D0BBF1400F66D0FC
:1035E00056D8BBF1200F5CD0BBF1300F5CD0BBF1E3
:1035F000100F01D146F008062A68936923F0700382
:1036000093612B6804225A60002E56D1BDE8F88FD2
:103610002846FFF726FF6BE717F4006F02D046F449
:10362000804665E72846FFF71FFF61E72846FFF75A
:1036300019FF6EE717F4002F02D046F4803668E7D2
:103640002846FFF712FF64E72B680822DA60284655
:10365000FFF70CFF6FE72846FFF74EFA74E72B6879
:1036600008221A612846FFF703FF7EE72846FFF786
:10367000FEFE82E72B6810225A602846FFF7F9FE0B
:1036800081E72B6808225A602846FFF7F3FE80E79F
:10369000BBF1500F0ED0BBF1600FADD146F4807678
:1036A000AAE746F01006A7E746F02006A4E746F092
:1036B0004006A1E746F080069EE76B6A33436B62E3
:1036C0002846FFF7D8FEA1E7002807DB00F01F021D
:1036D000400901239340024A42F82030704700BF5E
:1036E00000E100E0002808DB0901C9B200F16040F8
:1036F00000F5614080F80013704700F00F000901E9
:10370000C9B2014B1954704714ED00E000B500F048
:103710000700C0F1070CBCF1040F28BF4FF0040CE8
:10372000031D062B0FD9C31E4FF0FF3E0EFA0CF0FF
:1037300021EA000199400EFA03FE22EA0E0241EA54
:1037400002005DF804FB0023EEE70000074AD3689F
:1037500023F4E0631B041B0C000200F4E06003434D
:1037600043F0BF6343F40033D360704700ED00E0E3
:1037700010B50446054BD868C0F30220FFF7C6FF1A
:1037800001462046FFF7AEFF10BD00BF00ED00E090
:1037900008B5FFF799FF08BD0138B0F1807F0BD263
:1037A0004FF0E0235861054AF02182F823100020F1
:1037B000986107221A6170470120704700ED00E010
:1037C00030B405682C6824F480242C60046863609D
:1037D0008368402B05D0036899600368DA6030BCC9
:1037E000704703689A600368D960F8E710B403680B
:1037F000D9B21039094AA2FB01421209084CA25C55
:10380000C2655F2906D96FF3090304338365806DB0
:1038100010BC70476FF309038365F8E7ABAAAAAA47
:1038200038C60008836A826992B9012B0AD0022B3C
:1038300002D00BB100207047C36A13F0807F28D1FB
:1038400000207047C36AB3F1C07F24D000207047C6
:10385000B2F5005F09D0022B25D9032B25D1C36A0D
:1038600013F0807F23D100207047032B03D8DFE8BB
:1038700003F01404140A00207047C36A13F0807F19
:103880000DD100207047C36AB3F1C07F09D000207A
:1038900070470120704701207047012070470120C8
:1038A00070470120704701207047002070470120B9
:1038B0007047000070B50446FFF71EFB002C5BD07C
:1038C0000546022384F83530002384F8343022681A
:1038D000136823F00103136023681A6812F0010FC4
:1038E0000AD0FFF709FB431B052BF5D9202363659D
:1038F000032084F8350070BD1A68204911406268C1
:10390000A0680243E0680243206902436069024301
:10391000A0690243E0690243206A02430A43616AE4
:1039200004291ED01A602668756925F00705636AA8
:103930001D43042B07D1A36A1D43E36A1BB1204634
:10394000FFF770FF90B975612046FFF74FFFE26DFA
:103950003F239340836000206065012384F8353065
:10396000C9E7E16A206B01430A43DBE74023636553
:10397000012084F83500BEE70120BCE73F8010F04D
:1039800038B50446856D90F8340001282AD001200E
:1039900084F8340094F83500012804D0002384F81A
:1039A0003430022038BD022084F8350000206065E4
:1039B0002046FFF705FFE26D3F239340AB6022688E
:1039C000136843F016031360236C23B12268136855
:1039D00043F0080313602268136843F00103136087
:1039E0000020DFE70220DDE770B50446866DFFF7B3
:1039F00083FA94F83530022B06D0802363650023C8
:103A000084F83430012070BD05462268136823F025
:103A1000160313602268536923F080035361236CFB
:103A2000E3B12268136823F0080313602268136867
:103A300023F00103136023681B6813F0010F11D0FA
:103A4000FFF75AFA431B052BF5D9202363650320A2
:103A500084F83500002384F83430D4E7A36C002BBD
:103A6000DFD1E3E7E26D3F239340B360012384F8A5
:103A70003530002084F83400C5E790F83530022B4B
:103A800003D08023436501207047052380F835303B
:103A90000268136823F001031360002070470000E0
:103AA000F0B583B0044600230193724B1D68724B3E
:103AB000A3FB0535AD0A876D3E68C26D08239340B0
:103AC000334210D003681A6812F0040F0BD01A6842
:103AD00022F004021A60C26D08239340BB60436D5C
:103AE00043F001034365E26D01239340334209D063
:103AF0002268526912F0800F04D0BB60636D43F0FE
:103B000002036365E26D04239340334209D02268C7
:103B1000126812F0020F04D0BB60636D43F004031F
:103B20006365E26D10239340334224D0226812680B
:103B300012F0080F1FD0BB6023681A6812F4802FA0
:103B40000DD01B6813F4002F04D1236C9BB12046C9
:103B5000984710E0A36C73B1204698470BE01A68B1
:103B600012F4807F03D11A6822F008021A60236CD5
:103B70000BB120469847E26D20239340334254D046
:103B80002268126812F0100F4FD0BB6094F83530E5
:103B9000052B0ED023681A6812F4802F33D01B68CF
:103BA00013F4002F2AD1636C002B3ED02046984797
:103BB0003BE02268136823F0160313602268536900
:103BC00023F080035361236CA3B12268136823F0B0
:103BD00008031360E26D3F239340BB60012384F828
:103BE0003530002384F83430236D002B3FD020463D
:103BF00098473CE0A36C002BE7D1EBE7E36BA3B164
:103C00002046984711E01A6812F4807F09D11A689B
:103C100022F010021A60012384F83530002384F862
:103C20003430E36B0BB120469847636DFBB1636D95
:103C300013F0010F17D0052384F83530226813687C
:103C400023F001031360019B01330193AB4204D8BD
:103C500023681B6813F0010FF5D1012384F8353078
:103C6000002384F83430E36C0BB12046984703B04E
:103C7000F0BD00BF20000020B5814E1B00230F2B9C
:103C800000F2EC8030B583B068E085684FEA430EFF
:103C9000032404FA0EF425EA0405CC6804FA0EF4B1
:103CA0002C438460446824EA02044A68C2F3001288
:103CB0009A40224342605FE0DC08083450F8242038
:103CC00003F00705AD004FF00F0E0EFA05FE22EAD5
:103CD0000E0E0A69AA4042EA0E0240F824205FE074
:103CE000072200E0002202FA0EF22A4302345C4D61
:103CF00045F824205B4A94686FEA0C0224EA0C051C
:103D0000D1F804E01EF4801F01D04CEA0405554CA4
:103D1000A560E46802EA0405D1F804E01EF4001F7F
:103D200001D04CEA04054F4CE560646802EA0405E2
:103D3000D1F804E01EF4003F01D04CEA0405494CE0
:103D40006560246822404D6815F4803F01D04CEA3C
:103D50000402444C226001330F2B7DD801229A408B
:103D60000C6804EA020C32EA0404F4D14C6804F052
:103D70000304013C012C88D94A6802F00302032A9B
:103D800009D0C4685D000322AA4024EA02048A68BC
:103D9000AA402243C2604A6802F00302022A8BD082
:103DA00004684FEA430E032202FA0EF224EA0204E8
:103DB0004A6802F0030202FA0EF2224302604A68E5
:103DC00012F4403FC7D000220192274A546C44F4B9
:103DD00080445464526C02F480420192019A9C081F
:103DE000A51C1F4A52F8255003F0030E4FEA8E0E11
:103DF0000F2202FA0EF225EA02051C4A90423FF415
:103E000071AF02F5806290421AD002F58062904252
:103E100018D002F58062904216D002F5806290427E
:103E200014D002F58062904212D002F58062904276
:103E300010D002F5806290423FF452AF082252E760
:103E4000012250E702224EE703224CE704224AE710
:103E5000052248E7062246E703B030BD704700BFA1
:103E600000380140003C01400038024000000240A0
:103E70000AB181617047090481617047436901EAB1
:103E8000030221EA030141EA024181617047000017
:103E9000002800F0E08170B582B00446036813F09A
:103EA000010F3BD09F4B9B6803F00C03042B2CD0DD
:103EB0009C4B9B6803F00C03082B21D06368B3F57F
:103EC000803F4FD0B3F5A02F52D0964B1A6822F402
:103ED00080321A601A6822F480221A606368002B0C
:103EE00050D0FFF709F805468E4B1B6813F4003FCE
:103EF00014D1FFF701F8401B6428F5D90320B1E184
:103F0000884B5B6813F4800FD8D0864B1B6813F482
:103F1000003F03D06368002B00F09F81236813F0FB
:103F2000020F54D07F4B9B6813F00C0F3ED07D4B9B
:103F30009B6803F00C03082B33D0E368002B68D098
:103F4000794B01221A60FEF7D7FF0546754B1B68B7
:103F500013F0020F54D1FEF7CFFF401B0228F5D912
:103F600003207FE16F4A136843F480331360B5E7A1
:103F70006C4B1A6842F480221A601A6842F480324C
:103F80001A60ABE7FEF7B8FF0546664B1B6813F4F3
:103F9000003FC3D0FEF7B0FF401B6428F5D90320D3
:103FA00060E1604B5B6813F4800FC6D15D4B1B680A
:103FB00013F0020F03D0E368012B40F05081594AFF
:103FC000136823F0F803216943EAC10313602368EF
:103FD00013F0080F42D063696BB3534B0122C3F84F
:103FE000802EFEF789FF05464E4B5B6F13F0020FE4
:103FF00034D1FEF781FF401B0228F5D9032031E1BF
:10400000484A136823F0F803216943EAC1031360A7
:10401000DDE7454B00221A60FEF76EFF0546414B77
:104020001B6813F0020FD2D0FEF766FF401B022878
:10403000F5D9032016E13C4B0022C3F8802EFEF791
:104040005BFF0546374B5B6F13F0020F06D0FEF7A0
:1040500053FF401B0228F5D9032003E1236813F026
:10406000040F77D02F4B1B6C13F0805F33D10023EC
:1040700001932C4B1A6C42F080521A641B6C03F0B3
:1040800080530193019B0125284B1B6813F4807F0B
:1040900023D0A368012B34D0052B38D0214B1A6FC5
:1040A00022F001021A671A6F22F004021A67A3684D
:1040B000002B3DD0FEF720FF06461A4B1B6F13F076
:1040C000020F46D1FEF718FF801B41F28833984259
:1040D000F3D90320C6E00025D6E7144A136843F459
:1040E00080731360FEF708FF0646104B1B6813F43D
:1040F000807FCED1FEF700FF801B0228F5D9032078
:10410000B0E0084A136F43F001031367CFE7054B94
:104110001A6F42F004021A671A6F42F001021A671E
:10412000C5E700BF00380240000047420070004071
:10413000FEF7E2FE0646524B1B6F13F0020F08D04B
:10414000FEF7DAFE801B41F288339842F3D9032050
:1041500088E0EDB9A369002B00F08380484A92689B
:1041600002F00C02082A51D0022B17D0454B002236
:104170001A66FEF7C1FE0446414B1B6813F0007F30
:1041800042D0FEF7B9FE001B0228F5D9032069E0F2
:104190003B4A136C23F080531364DBE7394B002256
:1041A0001A66FEF7A9FE0546354B1B6813F0007F23
:1041B00006D0FEF7A1FE401B0228F5D9032051E0EE
:1041C000E369226A1343626A43EA8213A26A5208CD
:1041D000013A43EA0243E26A43EA0263284A53602F
:1041E000284B01221A66FEF787FE0446244B1B6803
:1041F00013F0007F06D1FEF77FFE001B0228F5D9E1
:1042000003202FE000202DE000202BE0012B2BD0FD
:104210001B4B5B6803F48001E269914226D103F0F5
:104220003F02216A8A4223D1616A47F6C0721A406E
:10423000B2EB811F1ED103F44031A26A5208013A49
:10424000B1EB024F18D103F07063E26AB3EB026F77
:1042500014D1002006E001207047012002E0012077
:1042600000E0002002B070BD0120FBE70120F9E76B
:104270000120F7E70120F5E70120F3E70120F1E74E
:10428000003802400000474208B5264B9B6803F007
:104290000C03042B41D0082B41D1224B5A6802F069
:1042A0003F025B6813F4800F12D01E4B5968C1F3B4
:1042B00088111D480023A1FB0001FCF749FE194BA2
:1042C0005B68C3F3014301335B00B0FBF3F008BD4F
:1042D000144B5868C0F388104FEA401CBCEB000C2C
:1042E0006EEB0E0E4FEA8E1343EA9C634FEA8C117D
:1042F000B1EB0C0163EB0E03DB0043EA5173C90021
:1043000011EB000C43F10003990200234FEA8C20CB
:1043100041EA9C51FCF71CFED1E70348D7E703486C
:10432000D5E700BF00380240001BB7000024F400AE
:10433000002800F09B8070B50D4604464F4B1B686B
:1043400003F007038B4208D2CBB24C4A13701368B8
:1043500003F007038B4240F08B80236813F0020FB9
:1043600017D013F0040F04D0454A936843F4E05388
:104370009360236813F0080F04D0414A936843F414
:10438000604393603E4A936823F0F003A1680B43B7
:104390009360236813F0010F32D06368012B21D0A2
:1043A0009A1E012A25D9364A126812F0020F61D0EE
:1043B00033498A6822F0030213438B60FEF79CFDA9
:1043C00006462F4B9B6803F00C036268B3EB820F29
:1043D00016D0FEF791FD801B41F288339842F0D948
:1043E000032042E0264A126812F4003FE0D1012087
:1043F0003BE0234A126812F0007FD9D1012034E05B
:104400001E4B1B6803F00703AB4207D9EAB21B4BF4
:104410001A701B6803F00703AB422DD1236813F019
:10442000040F06D0164A936823F4E053E1680B4367
:104430009360236813F0080F07D0114A936823F4A0
:104440006043216943EAC1039360FFF71DFF0C4BF2
:104450009B68C3F303130B4AD35CD8400A4B186024
:104460000A4B1868FEF7FCFC002070BD0120704765
:104470000120FAE70120F8E70120F6E7003C0240BE
:104480000038024000C60008200000203000002054
:10449000014B1868704700BF2000002008B5FFF7E7
:1044A000F7FF044B9B68C3F38223034AD35CD840D5
:1044B00008BD00BF00380240F8C5000808B5FFF786
:1044C000E7FF044B9B68C3F34233034AD35CD840F5
:1044D00008BD00BF00380240F8C500082DE9F047CC
:1044E00082B00546884617461E46FEF705FD0A9B24
:1044F0001B1A03EB0609FEF7FFFC8246284B1B68DC
:10450000C3F3CB3309FB03F301932B689C6838EAB0
:1045100004040CBF01230023BB423DD0B6F1FF3F92
:10452000F3D0FEF7E9FCA0EB0A00484507D2019A58
:1045300002B14A46019B013B01939146E5E72A6897
:10454000536823F0E00353606B68B3F5827F0BD0B0
:10455000AB6AB3F5005F14D0012385F85130002316
:1045600085F85030032018E0AB68B3F5004F02D057
:10457000B3F5806FECD12A68136823F04003136011
:10458000E6E72A68136823F4005313602A68136867
:1045900043F400531360DFE7002002B0BDE8F0876A
:1045A0002000002070B584B004460D4616460092E7
:1045B0000B4601220221FFF791FFD0B9174B1B6870
:1045C000174AA2FB03235B0D4FF47A7202FB03F33D
:1045D00003936368B3F5827F11D0039B3BB1039BC8
:1045E000013B039323689B6813F0800FF5D104B05F
:1045F00070BD636D43F0200363650320F7E7009609
:104600002B46002280212046FFF768FF0028EED0CD
:10461000636D43F0200363650320E8E7200000207A
:10462000819F5E1600285AD010B50446436A33B9FC
:104630004368B3F5827F05D00023C36102E0002305
:10464000036143610023A36294F85130002B40D0F2
:10465000022384F851302268136823F0400313606A
:10466000636803F48273A26802F404421343E268AD
:1046700002F400621343226902F0020213436269EA
:1046800002F001021343A26902F400721343E269CB
:1046900002F038021343226A02F080021343A26A36
:1046A00002F40052216813430B60638B03F0040390
:1046B000626A02F01002216813434B602268D369DA
:1046C00023F40063D36100206065012384F8513036
:1046D00010BD84F850302046FDF7C2FCB8E7012039
:1046E00070472DE9F04383B00446884691461F4643
:1046F0000A9DFEF701FC064694F851306268012BD2
:104700000BD0D9B2B2F5827F40F00481A368002BB0
:1047100040F00481042940F00381B8F1000F00F05B
:104720000181B9F1000F00F0FF80002F00F0FE8042
:1047300094F85030012B00F0FB80012384F85030B6
:1047400094F85130042B02D0052384F85130002313
:104750006365C4F83890E787A787C4F83080E78698
:10476000A7862364636423681A6812F0400F03D19C
:104770001A6842F040021A60E368B3F5006F11D086
:1047800063680BB1012F0BD1226B236812781A7367
:10479000236B01332363E38E9BB2013B9BB2E38621
:1047A000012771E063680BB1012F0BD1226B2368E5
:1047B0001288DA60236B02332363E38E9BB2013BE2
:1047C0009BB2E38601271BE023689A6812F0010F71
:1047D0000ED0E28F92B25AB1DA68A36B1A80A36B43
:1047E0000233A363E38F9BB2013B9BB2E3870127B4
:1047F000FEF782FB801BA84202D3B5F1FF3F1ED11A
:10480000E38E9BB21BB9E38F9BB2002B62D023686F
:104810009A6812F0020FD7D0E28E92B2002AD3D05B
:10482000002FD1D0226B1288DA60236B023323630E
:10483000E38E9BB2013B9BB2E3860027C4E70123D2
:1048400084F85130002384F85030032063E023685B
:104850009A6812F0010F0ED0E28F92B25AB1DA6864
:10486000A36B1A70A36B0133A363E38F9BB2013B6D
:104870009BB2E3870127FEF73FFB831BAB4202D3CA
:10488000B5F1FF3F1ED1EDB1E38E9BB213B9E38FBB
:104890009BB2FBB123689A6812F0020FD7D0E28E68
:1048A00092B2002AD3D0002FD1D0226B12781A7383
:1048B000236B01332363E38E9BB2013B9BB2E38600
:1048C0000027C4E7012384F85130002384F85030D6
:1048D000032020E0324629462046FFF763FE90B9C8
:1048E000A36833B901932368DA6801929B68019346
:1048F000019B012384F85130002384F85030636D0C
:104900004BB1012007E020236365002384F8503079
:10491000012000E0022003B0BDE8F0830220FAE7A6
:104920000220F8E70120F6E70120F4E70120F2E792
:104930000220F0E730B4036A026A22F00102026248
:104940004268846924F0730C0C6844EA0C0423F078
:10495000020C8B6843EA0C03114DA84203D005F505
:104960008065A84205D123F00803CD682B4323F0CE
:1049700004030B4DA84203D005F58065A84207D17A
:1049800022F440724D6945EA020C8A6942EA0C023F
:10499000426084614A684263036230BC704700BF72
:1049A0000000014030B4036A026A22F4807202629D
:1049B0004268C46924F0730C0C6844EA0C0523F4C3
:1049C00000738C6843EA0423114CA04203D004F521
:1049D0008064A04206D123F40063CC6843EA042338
:1049E00023F480630A4CA04203D004F58064A04203
:1049F00007D122F440524C6942EA04128C6942EA1F
:104A000004124260C5614A68C263036230BC7047E9
:104A10000000014030B4036A026A22F4805202624C
:104A20004468C26922F4E6420D6842EA052223F492
:104A300000538D6843EA0533094DA84203D005F5BC
:104A40008065A84204D124F480444D6944EA851469
:104A50004460C2614A680264036230BC704700BFB0
:104A600000000140704700000368344A904212D0B1
:104A7000B0F1804F0FD0A2F57C4290420BD002F5EE
:104A80008062904207D002F58062904203D002F526
:104A90007842904203D123F070034A681343274AB7
:104AA00090422AD0B0F1804F27D0A2F57C429042AC
:104AB00023D002F5806290421FD002F580629042BE
:104AC0001BD002F57842904217D002F57052904206
:104AD00013D002F5806290420FD002F580629042BE
:104AE0000BD0A2F59832904207D002F58062904236
:104AF00003D002F58062904203D123F44073CA6868
:104B0000134323F080034A69134303608B68C36235
:104B10000B688362094B984203D003F58063984287
:104B200001D10B69036301234361036913F0010F92
:104B300003D0036923F001030361704700000140C3
:104B400040B310B5044690F83D30F3B1022384F829
:104B50003D30214651F8040BFFF786FF012384F80E
:104B6000463084F83E3084F83F3084F8403084F892
:104B7000413084F8423084F8433084F8443084F87B
:104B8000453084F83D30002010BD80F83C30FDF702
:104B9000C7FBDBE70120704740B310B5044690F82F
:104BA0003D30F3B1022384F83D30214651F8040B27
:104BB000FFF75AFF012384F8463084F83E3084F82A
:104BC0003F3084F8403084F8413084F8423084F833
:104BD000433084F8443084F8453084F83D30002078
:104BE00010BD80F83C30FFF73DFFDBE70120704748
:104BF00030B4036A026A22F01002026244688269D9
:104C000022F4E6420D6842EA052223F020038D6873
:104C100043EA0513114DA84203D005F58065A8426B
:104C200006D123F08003CD6843EA051323F0400347
:104C30000A4DA84203D005F58065A84207D124F4A7
:104C400040644D6944EA85048D6944EA8504446002
:104C500082614A688263036230BC70470000014091
:104C600038B590F83C30012B66D004460D46012340
:104C700080F83C300C2A5AD8DFE802F0075959591D
:104C80001B5959593059595944000068FFF752FED1
:104C90002268936943F0080393612268936923F0C3
:104CA000040393612268936929690B43936100208F
:104CB0003EE00068FFF79CFF2268936943F40063BD
:104CC00093612268936923F48063936122689369F6
:104CD000296943EA01239361002029E00068FFF776
:104CE00061FE2268D36943F00803D3612268D36967
:104CF00023F00403D3612268D36929690B43D3618C
:104D0000002015E00068FFF785FE2268D36943F4B0
:104D10000063D3612268D36923F48063D36122687E
:104D2000D369296943EA0123D361002000E001200F
:104D3000002384F83C3038BD0220FCE7026802F111
:104D40000C0353E8003F23F0C0030C3242E800316B
:104D50000029F3D1202380F841307047026802F126
:104D60000C0353E8003F23F490730C3242E8003107
:104D70000029F3D1026802F1140353E8003F23F045
:104D80000103143242E800310029F3D1036B012BF7
:104D900005D0202380F84230002303637047026867
:104DA00002F10C0353E8003F23F010030C3242E8F9
:104DB00000310029F3D1ECE790F84130212B01D0EC
:104DC000022070478368B3F5805F17D0036A5A1CCE
:104DD00002621A7803685A60C38C9BB2013B9BB293
:104DE000C3844BB90268D36823F08003D3600268A0
:104DF000D36843F04003D360002070470369002B61
:104E0000E4D1036A1B880268C3F308035360036A92
:104E100002330362E0E7000010B50446026813693C
:104E200023F44053C1680B431361836802691A433A
:104E300043691A43C3691A430168CB6823F41643D4
:104E400023F00C031343CB600268536923F44073CF
:104E500081690B4353610368314A934206D002F5DE
:104E60008062934202D0FFF719FB01E0FFF726FBB7
:104E7000E369B3F5004F29D00021031849411B18FD
:104E800041F10001C90041EA5371DB001818636861
:104E90004FEA83024FEA937341F10001FCF758F89F
:104EA000204AA2FB00314909642303FB11031B01C3
:104EB0003233A2FB03235B0903F0F00202EB011281
:104EC00003F00F03216813448B6010BD0023021808
:104ED00043EB0301121841F10001C90041EA52718C
:104EE000D200101841F10001626892185B41FCF792
:104EF0002FF80C4AA2FB00314909642303FB11037C
:104F0000DB003233A2FB03235B095A0002F4F87280
:104F100002EB011203F00703216813448B60D4E70E
:104F2000001001401F85EB5160B310B5044690F8A6
:104F3000413013B3242384F841302268D36823F42A
:104F40000053D3602046FFF767FF2268136923F4FC
:104F5000904313612268536923F02A035361226846
:104F6000D36843F40053D36000206064202384F8A6
:104F7000413084F84230606310BD80F84030FDF766
:104F800085FAD7E70120704738B590F84130202BDB
:104F900030D1044600292FD00AB9012038BD016262
:104FA0008284C28400234364212084F84100A06BE2
:104FB000124DC563A06B124D0564A06B114DC56405
:104FC000A06B036520681346021DA06BFEF7D8FC9A
:104FD00023686FF040021A60226802F1140353E85C
:104FE000003F43F08003143242E800310029F3D13E
:104FF0000020D3E70220D1E70120CFE709500008C5
:10500000715000087F50000808B50346806B1B688C
:105010001B6813F4807F1AD10023C384026802F155
:10502000140353E8003F23F08003143242E80031B8
:105030000029F3D1026802F10C0353E8003F43F06A
:1050400040030C3242E800310029F3D108BDFCF7DF
:105050003DFDFBE708B50168CA6822F04002CA605E
:10506000202280F84120FCF731FD002008BD704768
:1050700008B5806BFFF7FBFF08BD7047704710B5A0
:10508000846B23685B6994F84120212A0FD0236840
:105090005B6903F0400394F84220222A11D0636C2C
:1050A00043F0100363642046FFF7E8FF10BD03F0F0
:1050B0008003002BEBD00023E3842046FFF73EFE65
:1050C000E5E7002BEBD00023E3852046FFF746FE03
:1050D000E5E708B5806B0023C385C384FFF7CEFFE7
:1050E00008BD704790F84230222B69D18368B3F530
:1050F000805F4FD0826AB3F5805F04D0002B56D119
:105100000369002B53D103685B681370836A013312
:105110008362C38D9BB2013B9BB2C385002B51D1EF
:1051200000B583B00268D36823F02003D36002681F
:10513000D36823F48073D3600268536923F00103BA
:105140005361202380F8423000234363036B012B1B
:1051500033D100230363026802F10C0353E8003FDC
:1051600023F010030C3242E800310029F3D1036828
:105170001A6812F0100F06D0002201921A680192EC
:105180005B680193019B818DFFF7ABFF002003B0AB
:105190005DF804FB0269002AACD1826A03685B688F
:1051A000C3F308031380836A02338362B1E70368A1
:1051B0005B6803F07F031370A8E7FFF75EFFE5E786
:1051C000022070470020704710B582B00446026884
:1051D0001368D068516913F00F0F09D113F0200F35
:1051E0000CD010F0200F09D02046FFF77BFF16E00F
:1051F00011F0010115D110F4907F12D1216B01291A
:1052000079D013F0800F03D010F0800F40F014819C
:1052100013F0400F03D010F0400F40F0118102B0A6
:1052200010BD13F0010F06D010F4807F03D0626C24
:1052300042F00102626413F0040F04D019B1626CF1
:1052400042F00202626413F0020F04D019B1626CE2
:1052500042F00402626413F0080F07D010F0200F30
:1052600000D119B1626C42F008026264626C002ADB
:10527000D5D013F0200F02D010F0200F29D12368D1
:105280005B6903F04003626C12F0080F00D163B356
:105290002046FFF763FD23685B6913F0400F20D0C1
:1052A000226802F1140353E8003F23F04003143254
:1052B00042E800310029F3D1E36B73B1624A1A6509
:1052C000E06BFEF7DAFB0028A9D0E06B036D98478E
:1052D000A5E72046FFF706FFD1E72046FFF7CEFE01
:1052E0009DE72046FFF7CAFE99E72046FFF7C6FE76
:1052F0000023636493E713F0100F82D010F0100FB7
:105300003FF47FAF00230193136801935368019327
:10531000019B536913F0400F52D0E26B13685B6836
:105320009BB2002B3FF47BAFA18D99427FF677AF04
:10533000E385D369B3F5807F37D0226802F10C038F
:1053400053E8003F23F480730C3242E80031002917
:10535000F3D1226802F1140353E8003F23F0010364
:10536000143242E800310029F3D1226802F114031B
:1053700053E8003F23F04003143242E80031002993
:10538000F3D1202384F8423000232363226802F102
:105390000C0353E8003F23F010030C3242E80031C5
:1053A0000029F3D1E06BFEF71FFB02236363A18D9D
:1053B000E38D9BB2C91A89B22046FFF792FE2EE711
:1053C000A18DE38D9BB2C91A89B2E38D9BB2002BEC
:1053D0003FF425AF00293FF422AF226802F10C030D
:1053E00053E8003F23F490730C3242E80030002869
:1053F000F3D1226802F1140353E8003F23F00103C4
:10540000143242E800300028F3D1202384F84230DF
:1054100000232363226802F10C0353E8003F23F0CA
:1054200010030C3242E800300028F3D102236363FA
:105430002046FFF756FEF2E62046FFF7BDFCEEE6FB
:105440002046FFF707FEEAE6D35000082DE9F047B3
:10545000089D0F4604468C46002B48D18A421646CA
:1054600061D9B2FA82F34BB1C3F1200201FA03FC15
:1054700020FA02F29E4042EA0C0C9C404FEA164E83
:10548000B7B2BCFBFEF1220C0EFB11CC42EA0C427F
:1054900001FB07F0904209D9B21801F1FF3C80F0FE
:1054A000EE80904240F2EB8002393244121AA4B2EC
:1054B000B2FBFEF00EFB102244EA024400FB07F7A9
:1054C000A74209D9341900F1FF3280F0DA80A742EF
:1054D00040F2D7803444023840EA0140E41B002106
:1054E0001DB1DC400023C5E90043BDE8F0878B42D5
:1054F00006D90DB1C5E9000100210846BDE8F087D5
:10550000B3FA83F1002948D1BB4202D3824200F2B0
:105510000781841A67EB030201209446002DE4D032
:10552000C5E9004CE1E7002A00F09280B2FA82F36C
:10553000002B40F0A8808A1A4FEA164E1FFA86FC0C
:105540000121200CB2FBFEF70EFB172240EA0242BB
:105550000CFB07F0904207D9B21807F1FF3802D2CE
:10556000904200F2E2804746121AA4B2B2FBFEF06B
:105570000EFB102244EA02440CFB00FCA44507D9B0
:10558000341900F1FF3202D2A44500F2CB8010465C
:10559000A4EB0C0440EA0740A2E7C1F120068B40CF
:1055A00022FA06FC4CEA030C07FA01F420FA06F38F
:1055B000F7404FEA1C49234300FA01F81FFA8CFE1A
:1055C000B7FBF9F01C0C09FB107744EA074400FB19
:1055D0000EF7A74202FA01F20AD91CEB040400F10B
:1055E000FF3A80F09B80A74240F2988002386444E2
:1055F000E41B9FB2B4FBF9F309FB134447EA0444EC
:1056000003FB0EFEA64509D91CEB040403F1FF378A
:1056100080F08280A6457FD9023B644443EA004083
:10562000A4EB0E04A0FB02E7BC427346B94663D369
:1056300060D05DB1B8EB030264EB090404FA06F62E
:1056400022FA01F31E43CC40C5E9006400214CE777
:105650006208480842EAC1710B0C43EA00438AB26F
:1056600042EA0342B3FBF6F1E407B4463746B646D6
:105670001F23B0FBF6F0D21B41EA004161E761460F
:1056800014E7104628E7C3F1200120FA01F29E40FA
:1056900027FA01F19F403A434FEA164E1FFA86FC63
:1056A000B1FBFEF70EFB1710110C41EA004107FB9E
:1056B0000CF8884504FA03F43AD9711807F1FF3061
:1056C00001D288451FD8A1EB0801B1FBFEF808FB09
:1056D0000CF70EFB181192B242EA0142BA422FD2E5
:1056E000B21808F1FF31C6D2BA42C4D2A8F1020101
:1056F0003244C0E7F0459CD2BEEB020367EB0C07D7
:105700000138B94695E7A6EB08084144B81EB1FB3D
:10571000FEF808FB0CF7DCE73B467FE7504667E7FF
:105720000846FBE63444023832E7023F32441BE7C6
:10573000A1EB08013846B1FBFEF808FB0CF7C8E7FF
:10574000414698E7024A0349034800F0C9B800BF40
:105750003400002089860008480000200C4B416876
:10576000994210B5044601D002F08EFFA168094BA2
:10577000994202D0204602F087FFE168064B994229
:1057800004D02046BDE8104002F07EBF10BD00BF2F
:10579000440B0020AC0B0020140C00202DE9F84332
:1057A000314A324C3249DFF8CC90DFF8CC80334FAD
:1057B0001160002504232946082204F15C00C4E995
:1057C00003352F4EA560C4E90055C4E9055565664B
:1057D00000F012F904F15800C4E90749C4E9098747
:1057E000E66200F0D9F92946264B6367082204F1E6
:1057F000C400C4E91A55C4E91E552567C4F8CC5045
:10580000C4F8805000F0F8F804F1680304F1C00017
:10581000C4F88430C4E92298C4E9247600F0BCF9C5
:10582000194BC4F8DC30294604F596700822C4E907
:105830003455C4E93855C4F8D850C4F83451C4F8C4
:10584000E85000F0D9F804F1D003C4E93D87C4F86A
:10585000F09004F59470C4F8FC60C4F8EC30BDE836
:10586000F84300F099B900BF7C0C0020440B0020E5
:1058700045570008695900088D590008CD5900089E
:10588000F1590008090001001200020010B5044699
:105890000A4800F085F9636B23B9094B094A1B6874
:1058A000626323B1BDE81040044800F07BB9FFF704
:1058B00075FFBDE81040014800F074B98C0C002061
:1058C0007C0C00205D570008014800F069B900BF5A
:1058D0008C0C0020014800F065B900BF8C0C002042
:1058E0002DE9F8430746884616464FF00009D6E9E9
:1058F0000154013D10D4A389012B08D9B4F90E300D
:1059000001332146384602D0C04749EA0009013D2B
:105910006B1C04F16804EED13668002EE7D14846CE
:10592000BDE8F8830EB430B59CB06FF000411FABFA
:10593000049107910A4953F8042B02900024069021
:10594000084D0868019302A905951B9400F068FDB5
:10595000029B1C701CB0BDE8304003B0704700BF14
:10596000400000200802FFFF10B50C46B1F90E10F0
:1059700000F0B8F8002803DB236D0344236510BD55
:10598000A38923F48053A38110BD00BF2DE9F0410A
:105990000C46B1F90C101F46CB05054616460BD434
:1059A00021F48051A1813B46B4F90E1032462846BD
:1059B000BDE8F04100F0ACB8B4F90E1002230022AB
:1059C00000F07AF8B4F90C10EAE700BF10B50C4605
:1059D000B1F90E1000F070F8B4F90C30421C0EBF93
:1059E00023F4805343F480532065A38110BD00BF8E
:1059F000B1F90E1000F04EB8830730B546D08418C8
:105A0000844604E003F8011B9D0704D09C46A4458E
:105A10006346F7D130BD013A0244A2EB0C02032ADF
:105A200029D9CCB204EB04240F2A04EB04442FD967
:105A3000A2F1100C2CF00F0C03F11005AC44C3E9DB
:105A40000044C3E9024410336345F8D112F00C0F4F
:105A500002F00F0E18D02EF0030C9C44AEF104059A
:105A60001A4642F8044B6245FBD125F00304043387
:105A70000EF003022344002ACCD0C9B21A4403F822
:105A8000011B9342FBD130BD7246F4E70346C6E7E3
:105A90009646E0E738B5074D0022044608462A60DE
:105AA000FCF70CFC431C00D038BD2B68002BFBD04E
:105AB000236038BD800C002038B50D46084C844664
:105AC000114628461A46002323606546FCF700FC71
:105AD000431C00D038BD2368002BFBD02B6038BDA1
:105AE000800C002038B50D46084C844611462846E7
:105AF0001A46002323606546FCF7C2FB431C00D016
:105B000038BD2368002BFBD02B6038BD800C0020F3
