:020000040800F2
:100000000000022025300008AD2B0008AF2B0008AF
:10001000B12B0008B32B0008B52B0008000000002E
:10002000000000000000000000000000B72B0008E6
:10003000B92B000800000000BB2B0008BD2B0008F6
:1000400075300008753000087530000875300008FC
:1000500075300008753000087530000875300008EC
:1000600075300008753000087530000875300008DC
:10007000C52B000875300008753000087530000881
:1000800075300008753000087530000875300008BC
:10009000D52B000875300008753000087530000851
:1000A000753000087530000875300008753000089C
:1000B000753000087530000875300008753000088C
:1000C000753000087530000875300008753000087C
:1000D00075300008E52B000875300008F52B000886
:1000E000092C0008753000087530000875300008CC
:1000F000753000087530000875300008753000084C
:10010000753000087530000875300008753000083B
:10011000753000087530000875300008753000082B
:100120007530000875300008152C0008252C0008D3
:10013000753000087530000875300008753000080B
:10014000352C00087530000875300008753000083F
:100150007530000875300008452C0008753000081F
:1001600075300008753000087530000875300008DB
:100170007530000875300008753000080000000078
:0801800075300008753000081D
:1001C00081F0004102E000BF83F0004330B54FEA08
:1001D00041044FEA430594EA050F08BF90EA020F75
:1001E0001FBF54EA000C55EA020C7FEA645C7FEA08
:1001F000655C00F0E2804FEA5454D4EB5555B8BF2B
:100200006D420CDD2C4480EA020281EA030382EA9B
:10021000000083EA010180EA020281EA0303362D2D
:1002200088BF30BD11F0004F4FEA01314FF4801C00
:100230004CEA113102D0404261EB410113F0004F12
:100240004FEA03334CEA133302D0524263EB4303C9
:1002500094EA050F00F0A780A4F10104D5F1200E67
:100260000DDB02FA0EFC22FA05F2801841F10001C2
:1002700003FA0EF2801843FA05F359410EE0A5F196
:1002800020050EF1200E012A03FA0EFC28BF4CF0C7
:10029000020C43FA05F3C01851EBE37101F000457D
:1002A00007D54FF0000EDCF1000C7EEB00006EEB8A
:1002B0000101B1F5801F1BD3B1F5001F0CD3490814
:1002C0005FEA30004FEA3C0C04F101044FEA44526B
:1002D00012F5800F80F09A80BCF1004F08BF5FEAF2
:1002E000500C50F1000041EB045141EA050130BDD2
:1002F0005FEA4C0C404141EB0101013C28BFB1F5E4
:10030000801FE9D291F0000F04BF01460020B1FA2E
:1003100081F308BF2033A3F10B03B3F120020CDA01
:100320000C3208DD02F1140CC2F10C0201FA0CF0DF
:1003300021FA02F10CE002F11402D8BFC2F1200C44
:1003400001FA02F120FA0CFCDCBF41EA0C019040FA
:10035000E41AA2BF01EB0451294330BD6FEA040443
:100360001F3C1CDA0C340EDC04F11404C4F120022E
:1003700020FA04F001FA02F340EA030021FA04F340
:1003800045EA030130BDC4F10C04C4F1200220FA97
:1003900002F001FA04F340EA0300294630BD21FAD5
:1003A00004F0294630BD94F0000F83F4801306BF9B
:1003B00081F480110134013D4EE77FEA645C18BF8F
:1003C0007FEA655C29D094EA050F08BF90EA020F26
:1003D00005D054EA000C04BF1946104630BD91EA1E
:1003E000030F1EBF0021002030BD5FEA545C05D121
:1003F0004000494128BF41F0004130BD14F5800460
:100400003CBF01F5801130BD01F0004545F0FE41D3
:1004100041F470014FF0000030BD7FEA645C1ABF08
:10042000194610467FEA655C1CBF0B46024650EA3F
:10043000013406BF52EA033591EA030F41F400216B
:1004400030BD00BF90F0000F04BF0021704730B5F1
:100450004FF4806404F132044FF000054FF00001C6
:1004600050E700BF90F0000F04BF0021704730B587
:100470004FF4806404F1320410F0004548BF40425C
:100480004FF000013EE700BF42004FEAE2014FEAB1
:1004900031014FEA02701FBF12F07F4393F07F4F8C
:1004A00081F06051704732F07F4208BF704793F08F
:1004B0007F4F04BF41F40021704730B54FF46074A2
:1004C00001F0004521F000411CE700BF50EA0102A5
:1004D00008BF704730B54FF000050AE050EA01024E
:1004E00008BF704730B511F0004502D5404261EBBE
:1004F00041014FF4806404F132045FEA915C3FF4FF
:10050000D8AE4FF003025FEADC0C18BF03325FEA9B
:10051000DC0C18BF033202EBDC02C2F1200300FA4C
:1005200003FC20FA02F001FA03FE40EA0E0021FA71
:1005300002F11444BDE600BF70B54FF0FF0C4CF45F
:10054000E06C1CEA11541DBF1CEA135594EA0C0F11
:1005500095EA0C0F00F0DEF82C4481EA030621EA4C
:100560004C5123EA4C5350EA013518BF52EA033587
:1005700041F4801143F4801338D0A0FB02CE4FF039
:100580000005E1FB02E506F00042E0FB03E54FF069
:100590000006E1FB03569CF0000F18BF4EF0010E61
:1005A000A4F1FF04B6F5007F64F5407404D25FEA5D
:1005B0004E0E6D4146EB060642EAC62141EA555110
:1005C0004FEAC52040EA5E504FEACE2EB4F1FD0C52
:1005D00088BFBCF5E06F1ED8BEF1004F08BF5FEAD0
:1005E000500E50F1000041EB045170BD06F0004682
:1005F00046EA010140EA020081EA0301B4EB5C042F
:10060000C2BFD4EB0C0541EA045170BD41F4801126
:100610004FF0000E013C00F3AB8014F1360FDEBF4B
:10062000002001F0004170BDC4F10004203C35DA27
:100630000C341BDC04F11404C4F1200500FA05F3AA
:1006400020FA04F001FA05F240EA020001F000424B
:1006500021F0004110EBD37021FA04F642EB0601C1
:100660005EEA430E08BF20EAD37070BDC4F10C04EB
:10067000C4F1200500FA04F320FA05F001FA04F2AF
:1006800040EA020001F0004110EBD37041F100019B
:100690005EEA430E08BF20EAD37070BDC4F12005A6
:1006A00000FA05F24EEA020E20FA04F301FA05F20E
:1006B00043EA020321FA04F001F0004121FA04F2B6
:1006C00020EA020000EBD3705EEA430E08BF20EA86
:1006D000D37070BD94F0000F0FD101F000464000C0
:1006E00041EB010111F4801F08BF013CF7D041EA42
:1006F000060195F0000F18BF704703F00046520046
:1007000043EB030313F4801F08BF013DF7D043EA16
:100710000603704794EA0C0F0CEA135518BF95EACC
:100720000C0F0CD050EA410618BF52EA4306D1D153
:1007300081EA030101F000414FF0000070BD50EA72
:10074000410606BF1046194652EA430619D094EAFC
:100750000C0F02D150EA013613D195EA0C0F05D1E6
:1007600052EA03361CBF104619460AD181EA03013A
:1007700001F0004141F0FE4141F470014FF00000F2
:1007800070BD41F0FE4141F4780170BD70B54FF08D
:10079000FF0C4CF4E06C1CEA11541DBF1CEA13550D
:1007A00094EA0C0F95EA0C0F00F0A7F8A4EB0504EF
:1007B00081EA030E52EA03354FEA013100F08880E6
:1007C0004FEA03334FF0805545EA131343EA1263AF
:1007D0004FEA022245EA111545EA10654FEA002664
:1007E0000EF000419D4208BF964244F1FD0404F51D
:1007F000407402D25B084FEA3202B61A65EB030579
:100800005B084FEA32024FF480104FF4002CB6EB35
:10081000020E75EB030E22BFB61A754640EA0C00B5
:100820005B084FEA3202B6EB020E75EB030E22BFF5
:10083000B61A754640EA5C005B084FEA3202B6EB36
:10084000020E75EB030E22BFB61A754640EA9C00F5
:100850005B084FEA3202B6EB020E75EB030E22BFC5
:10086000B61A754640EADC0055EA060E18D04FEA83
:10087000051545EA16754FEA06164FEAC30343EA23
:1008800052734FEAC2025FEA1C1CC0D111F4801FF0
:100890000BD141EA00014FF000004FF0004CB6E7E9
:1008A00011F4801F04BF01430020B4F1FD0C88BF88
:1008B000BCF5E06F3FF6AFAEB5EB030C04BFB6EB93
:1008C000020C5FEA500C50F1000041EB045170BD86
:1008D0000EF0004E4EEA113114EB5C04C2BFD4EBB3
:1008E0000C0541EA045170BD41F480114FF0000E37
:1008F000013C90E645EA060E8DE60CEA135594EAB3
:100900000C0F08BF95EA0C0F3FF43BAF94EA0C0FB5
:100910000AD150EA01347FF434AF95EA0C0F7FF42A
:1009200025AF104619462CE795EA0C0F06D152EA7E
:1009300003353FF4FDAE1046194622E750EA410662
:1009400018BF52EA43067FF4C5AE50EA41047FF473
:100950000DAF52EA43057FF4EBAE12E780F00040A2
:1009600002E000BF81F0004142001FBF5FEA410387
:1009700092EA030F7FEA226C7FEA236C6AD04FEA87
:100980001262D2EB1363C1BFD218414048404140CC
:10099000B8BF5B42192B88BF704710F0004F40F47E
:1009A000000020F07F4018BF404211F0004F41F49A
:1009B000000121F07F4118BF494292EA030F3FD066
:1009C000A2F1010241FA03FC10EB0C00C3F1200379
:1009D00001FA03F100F0004302D5494260EB400008
:1009E000B0F5000F13D3B0F1807F06D340084FEA73
:1009F000310102F10102FE2A51D2B1F1004F40EB68
:100A0000C25008BF20F0010040EA030070474900CF
:100A100040EB0000013A28BFB0F5000FEDD2B0FA6C
:100A200080FCACF1080CB2EB0C0200FA0CF0AABF8F
:100A300000EBC25052421843BCBFD040184370472D
:100A400092F0000F81F4000106BF80F40000013233
:100A5000013BB5E74FEA41037FEA226C18BF7FEA0A
:100A6000236C21D092EA030F04D092F0000F08BF4C
:100A70000846704790EA010F1CBF0020704712F033
:100A80007F4F04D1400028BF40F00040704712F172
:100A900000723CBF00F50000704700F0004343F0D7
:100AA000FE4040F4000070477FEA226216BF08460D
:100AB0007FEA23630146420206BF5FEA412390EAD0
:100AC000010F40F4800070474FF0000304E000BFC6
:100AD00010F0004348BF40425FEA000C08BF704777
:100AE00043F0964301464FF000001CE050EA01023B
:100AF00008BF70474FF000030AE000BF50EA010250
:100B000008BF704711F0004302D5404261EB41013C
:100B10005FEA010C02BF84460146002043F0B64361
:100B200008BFA3F18053A3F50003BCFA8CF2083A86
:100B3000A3EBC25310DB01FA02FC634400FA02FC8F
:100B4000C2F12002BCF1004F20FA02F243EB020096
:100B500008BF20F00100704702F1200201FA02FCF8
:100B6000C2F1200250EA4C0021FA02F243EB0200EB
:100B700008BF20EADC7070474FF0FF0C1CEAD0522F
:100B80001EBF1CEAD15392EA0C0F93EA0C0F6FD0F0
:100B90001A4480EA010C400218BF5FEA41211ED0CE
:100BA0004FF0006343EA501043EA5111A0FB0131BA
:100BB0000CF00040B1F5000F3EBF490041EAD3718F
:100BC0005B0040EA010062F17F02FD2A1DD8B3F10B
:100BD000004F40EBC25008BF20F00100704790F07A
:100BE000000F0CF0004C08BF49024CEA502040EACC
:100BF00051207F3AC2BFD2F1FF0340EAC250704792
:100C000040F400004FF00003013A5DDC12F1190FCF
:100C1000DCBF00F000407047C2F10002410021FA41
:100C200002F1C2F1200200FA02FC5FEA310040F159
:100C3000000053EA4C0308BF20EADC70704792F0D2
:100C4000000F00F0004C02BF400010F4000F013A0A
:100C5000F9D040EA0C0093F0000F01F0004C02BF05
:100C6000490011F4000F013BF9D041EA0C018FE774
:100C70000CEAD15392EA0C0F18BF93EA0C0F0AD07A
:100C800030F0004C18BF31F0004CD8D180EA0100A0
:100C900000F00040704790F0000F17BF90F0004F39
:100CA000084691F0000F91F0004F14D092EA0C0F1B
:100CB00001D142020FD193EA0C0F03D14B0218BFAE
:100CC000084608D180EA010000F0004040F0FE40F4
:100CD00040F40000704740F0FE4040F44000704790
:100CE0004FF0FF0C1CEAD0521EBF1CEAD15392EA0F
:100CF0000C0F93EA0C0F69D0A2EB030280EA010CFF
:100D000049024FEA402037D04FF0805343EA111197
:100D100043EA10130CF000408B4238BF5B0042F1F5
:100D20007D024FF4000C8B4224BF5B1A40EA0C009A
:100D3000B3EB510F24BFA3EB510340EA5C00B3EBCC
:100D4000910F24BFA3EB910340EA9C00B3EBD10FBA
:100D500024BFA3EBD10340EADC001B0118BF5FEA0C
:100D60001C1CE0D1FD2A3FF650AF8B4240EBC25035
:100D700008BF20F0010070470CF0004C4CEA5020F6
:100D80007F32C2BFD2F1FF0340EAC250704740F445
:100D900000004FF00003013A37E792F0000F00F037
:100DA000004C02BF400010F4000F013AF9D040EAB5
:100DB0000C0093F0000F01F0004C02BF490011F449
:100DC000000F013BF9D041EA0C0195E70CEAD15341
:100DD00092EA0C0F08D142027FF47DAF93EA0C0F28
:100DE0007FF470AF084676E793EA0C0F04D14B020C
:100DF0003FF44CAF08466EE730F0004C18BF31F0BE
:100E0000004CCAD130F000427FF45CAF31F00043B7
:100E10007FF43CAF5FE700BF4FF0FF3C06E000BF50
:100E20004FF0010C02E000BF4FF0010C4DF804CD73
:100E30004FEA40024FEA41037FEA226C18BF7FEA83
:100E4000236C11D001B052EA530C18BF90EA010F85
:100E500058BFB2EB030088BFC81738BF6FEAE17014
:100E600018BF40F0010070477FEA226C02D15FEAB0
:100E7000402C05D17FEA236CE4D15FEA412CE1D01C
:100E80005DF8040B704700BF844608466146FFE7E3
:100E90000FB5FFF7C9FF002848BF10F1000F0FBDC5
:100EA0004DF808EDFFF7F4FF0CBF012000205DF8BE
:100EB00008FB00BF4DF808EDFFF7EAFF34BF012043
:100EC00000205DF808FB00BF4DF808EDFFF7E0FFDC
:100ED00094BF012000205DF808FB00BF4DF808ED2D
:100EE000FFF7D2FF94BF012000205DF808FB00BF90
:100EF0004DF808EDFFF7C8FF34BF012000205DF872
:100F000008FB00BF4FEA4002B2F1FE4F0FD34FF093
:100F10009E03B3EB12620DD94FEA002343F0004366
:100F200010F0004F23FA02F018BF404270474FF014
:100F30000000704712F1610F01D1420205D110F09B
:100F4000004008BF6FF0004070474FF0000070474E
:100F500042000ED2B2F1FE4F0BD34FF09E03B3EB23
:100F6000126209D44FEA002343F0004323FA02F04F
:100F700070474FF00000704712F1610F01D142023B
:100F800002D14FF0FF3070474FF00000704700BFB4
:100F900053B94AB9002908BF00281CBF4FF0FF31E0
:100FA0004FF0FF3000F00CB8ADF1080C6DE904CE45
:100FB00005F0E2F9DDF804E0DDE9022304B0704752
:100FC000704700BF000000000000000000000000AB
:100FD0000000000000000000000000000000000011
:100FE0000000000000000000000000000000000001
:100FF00000000000000000000000000000000000F1
:1010000030B490F800F020F007016FF0000C10F001
:10101000070491F820F040F048804FF000046FF092
:101020000700D1E9002391F840F000F1080082FAAE
:101030004CF2A4FA8CF283FA4CF3A2FA8CF34BBB79
:10104000D1E9022382FA4CF200F10800A4FA8CF2F2
:1010500083FA4CF3A2FA8CF3E3B9D1E9042382FAC0
:101060004CF200F10800A4FA8CF283FA4CF3A2FAD5
:101070008CF37BB9D1E9062301F1200182FA4CF20D
:1010800000F10800A4FA8CF283FA4CF3A2FA8CF374
:10109000002BC6D0002A04BF04301A4612BAB2FA96
:1010A00082F200EBD20030BC7047D1E9002304F09B
:1010B0000305C4F100004FEAC50514F0040F91F8D0
:1010C00040F00CFA05F562EA05021CBF63EA05036D
:1010D00062464FF00004AAE7000000000000000094
:1010E00002780B78012A28BF9A4240F0D8806DE937
:1010F000044540EA0104CDE902676FF0000C4FEAB5
:1011000044721AB380EA010414F0070F6BD100F0A7
:10111000070420F0070004F0030521F007014FEA5F
:10112000C505F0E8042314F0040FF1E804670CFA95
:1011300005F462EA040266EA04060BD063EA0403DB
:10114000624667EA0407664604E000BFF0E804234D
:10115000F1E8046782FA4CF582EA0604A4FA8CF4FA
:101160006CBB83FA4CF583EA0705A5FA8CF595B9B3
:1011700050E9022351E9026782FA4CF582EA06043B
:10118000A4FA8CF483FA4CF583EA0705A5FA8CF5EA
:101190002543DBD09CB92DBAB5FA85F424F00704B9
:1011A00027FA04F1DDE9026723FA04F303F0FF00F4
:1011B00001F0FF01FDE80445A0EB0100704724BAEF
:1011C000B4FA84F424F0070426FA04F1DDE9026796
:1011D00022FA04F202F0FF0001F0FF01FDE80445ED
:1011E000A0EB0100704714F0030F3CD110F0030492
:1011F00028D150F8082B51F8083B82FA4CF582EAC6
:101200000305A5FA8CF55DB950F8042C51F8043C9F
:1012100082FA4CF582EA0305A5FA8CF5002DE8D098
:101220002DBAB5FA85F424F0070423FA04F122FA62
:1012300004F202F0FF0001F0FF01FDE80445A0EB1D
:10124000010070474FEAC40420F0030050F8082B57
:1012500021F0030151F8083B0CFA04F462EA04029D
:1012600063EA0403C9E710F003041DD0A1EB0401F5
:1012700020F00300E40750F8042B06D012D28B783C
:101280005FFAA2F4E41A06D12BB1CB785FFAB2F47C
:10129000E41A00D133B920465DF8104B7047A2EB39
:1012A0000300704701F1040150F8042BCC0721F032
:1012B000030151F8043B48D824D222F07F4482FA3B
:1012C0004CF594EA1325A5FA8CF50AD165B951F8C5
:1012D000043B84EA0204B4EB036F0ED150F8042BF4
:1012E000EBE74FEA132355E035F07F454DD1087801
:1012F000FDE80445C0F1000070474FEA126203F0B8
:10130000FF0347E002EA1C4482FA4CF594EA1345D5
:10131000A5FA8CF50AD165B951F8043B84EA0204B8
:10132000B4EB034F0CD150F8042BEBE74FEA134317
:1013300030E015EA1C4528D10B884FEA124229E01B
:101340004FEA124203EA1C4324E002F0FF0482FA4F
:101350004CF594EA1365A5FA8CF50AD165B951F8F4
:10136000043B84EA0204B4EB032F09D150F8042BA8
:10137000EBE74FEA13630DE015F0FF0F05D10B68A3
:101380004FEA122223F07F4304E04FF00000FDE813
:101390000445704712BA1BBA82FA4CF482EA03047D
:1013A000A4FA8CF5B5FA85F402FA04F203FA04F310
:1013B0004FEA1260FDE80445A0EB1360704700BFE0
:1013C00001F0FF01102A2BDB10F0070F08D010F8F6
:1013D000013B013A8B422DD010F0070F42B3F6D1FA
:1013E000F0B441EA012141EA014122F007047FF013
:1013F00000070023F0E80256083C85EA010586EA6A
:10140000010685FA47F5A3FA87F586FA47F6A5FAA5
:1014100087F68EB9EED1F0BC01F0FF0102F00702B1
:1014200032B110F8013B013A83EA010313B1F8D15C
:101430000020704701387047002D06BF354603383D
:10144000073815F0010F07D1013015F4807F02BF76
:10145000013015F4C03F0130F0BC0138704700BFC7
:10146000844641EA000313F003036DD1403A41D3AF
:1014700051F8043B40F8043B51F8043B40F8043B6E
:1014800051F8043B40F8043B51F8043B40F8043B5E
:1014900051F8043B40F8043B51F8043B40F8043B4E
:1014A00051F8043B40F8043B51F8043B40F8043B3E
:1014B00051F8043B40F8043B51F8043B40F8043B2E
:1014C00051F8043B40F8043B51F8043B40F8043B1E
:1014D00051F8043B40F8043B51F8043B40F8043B0E
:1014E00051F8043B40F8043B51F8043B40F8043BFE
:1014F000403ABDD2303211D351F8043B40F8043B9E
:1015000051F8043B40F8043B51F8043B40F8043BDD
:1015100051F8043B40F8043B103AEDD20C3205D3AD
:1015200051F8043B40F8043B043AF9D2043208D0A5
:10153000D2071CBF11F8013B00F8013B01D30B8817
:1015400003806046704700BF082A13D38B078DD0F5
:1015500010F003038AD0C3F10403D21ADB071CBFC7
:1015600011F8013B00F8013B80D331F8023B20F831
:10157000023B7BE7043AD9D3013A11F8013B00F86A
:10158000013BF9D20B7803704B7843708B788370F2
:10159000604670474FF0FF3C06E000BF4FF0010C83
:1015A00002E000BF4FF0010C4DF804CD4FEA410CB2
:1015B0007FEA6C5C4FEA430C18BF7FEA6C5C1BD07F
:1015C00001B050EA410C0CBF52EA430C91EA030F00
:1015D00002BF90EA020F0020704710F1000F91EA5D
:1015E000030F58BF994208BF90422CBFD8176FEA2B
:1015F000E37040F0010070474FEA410C7FEA6C5CF9
:1016000002D150EA013C07D14FEA430C7FEA6C5CFF
:10161000D6D152EA033CD3D05DF8040B704700BF2B
:101620008446104662468C461946634600E000BF79
:1016300001B5FFF7B7FF002848BF10F1000F01BD4B
:101640004DF808EDFFF7F4FF0CBF012000205DF816
:1016500008FB00BF4DF808EDFFF7EAFF34BF01209B
:1016600000205DF808FB00BF4DF808EDFFF7E0FF34
:1016700094BF012000205DF808FB00BF4DF808ED85
:10168000FFF7CEFF94BF012000205DF808FB00BFEC
:101690004DF808EDFFF7C4FF34BF012000205DF8CE
:1016A00008FB00BF4FEA410C7FEA6C5C02D150EAB4
:1016B000013C0AD14FEA430C7FEA6C5C02D152EA4A
:1016C000033C02D14FF0000070474FF0010070471B
:1016D0004FEA410212F5001215D211D56FF478735A
:1016E000B3EB625212D94FEAC12343F0004343EAFD
:1016F000505311F0004F23FA02F018BF40427047D8
:101700004FF00000704750EA013005D111F0004061
:1017100008BF6FF0004070474FF00000704700BFF7
:101720004A0011D212F5001211D20DD56FF4787360
:10173000B3EB62520ED44FEAC12343F0004343EAB5
:10174000505323FA02F070474FF00000704750EA00
:10175000013002D14FF0FF3070474FF0000070476A
:101760004FEA4102B2F1E04324BFB3F5001CDCF1C3
:10177000FE5C0DD901F0004C4FEAC0024CEA5070FB
:10178000B2F1004F40EB830008BF20F0010070472A
:1017900011F0804F21D113F13872BCBF01F000402D
:1017A000704741F480114FEA5252C2F11802C2F15F
:1017B000200C10FA0CF320FA02F018BF40F00100E0
:1017C0004FEAC1234FEAD32303FA0CFC40EA0C0092
:1017D00023FA02F34FEA4303CCE77FEA625307D1CF
:1017E00050EA01331EBF4FF0FE4040F44000704706
:1017F00001F0004040F0FE4040F40000704700BFA0
:101800000348044B834202D0034B03B1184770478F
:101810000C0700200C070020000000000548064BC4
:101820001B1AD90F01EBA301491002D0034B03B1DE
:10183000184770470C0700200C070020000000002C
:1018400010B5064C237843B9FFF7DAFF044B13B108
:101850000448AFF300800123237010BD100700205F
:10186000000000006415010808B5054B1BB10549CF
:101870000548AFF30080BDE80840FFF7CFBF00BFC9
:101880000000000014070020641501082DE9F04154
:101890008AB04FF00108CDF8208000240694CDF8DE
:1018A0001C80009401940294039405940494204DA8
:1018B0006946284602F020FB284602F0BBFB0221C5
:1018C000284602F00FFD0E2709970597694628461E
:1018D00002F012FB284602F0ADFB0221284602F07E
:1018E00001FDCDF820800694CDF81C800094019471
:1018F00002940394059404940E4C6946204602F029
:10190000FBFA204602F096FB0221204602F0EAFC98
:10191000099705976946204602F0EEFA204602F044
:1019200089FB0221204602F0DDFC0AB0BDE8F0810F
:10193000580700203007002008B50D480D4B036004
:101940000323436000238360C3604FF410220261CD
:101950004FF400124261037643768376C3760377B1
:10196000437702F023FA00B908BD00F0D7FBFBE78C
:10197000580700200064004008B50E480E4B036075
:101980000323436000238360C3604FF4102202618D
:101990004FF4001242610376437683760122C276C9
:1019A0000377437702F002FA00B908BD00F0B6FBF6
:1019B000FBE700BF300700200068004010B58AB088
:1019C00000230593069307930893099303683D4A00
:1019D000934204D03C4A934234D00AB010BD3B4AF3
:1019E000136801331360012B1FD000240194384B7E
:1019F0001A6B42F008021A631B6B03F00803019391
:101A0000019B03230593022206920893092309935D
:101A100005A9304803F086F822462146142002F03A
:101A2000FBFD142002F008FED7E700230093284BAB
:101A30001A6C42F000721A641B6C03F0007300937E
:101A4000009BD2E700230293214B1A6C42F0806284
:101A50001A641B6C03F080630293029B1B4A136899
:101A600001331360012B20D000240494184B1A6B0F
:101A700042F002021A631B6B03F002030493049BFF
:101A800060230593022306930323089309230993F4
:101A900005A9114803F046F822462146402002F0ED
:101AA000BBFD402002F0C8FD97E700230393084BDD
:101AB0001A6C42F000721A641B6C03F000730393FB
:101AC000039BD1E700640040006800402C07002021
:101AD00000380240000C02400004024010B582B001
:101AE000002400941A4B1A6B42F400121A631A6B0A
:101AF00002F400120092009A01941A6B42F48002E0
:101B00001A631B6B03F480030193019B2246214659
:101B10000C2002F081FD0C2002F08EFD22462146B1
:101B20003A2002F079FD3A2002F086FD2246214655
:101B30003B2002F071FD3B2002F07EFD2246214653
:101B4000462002F069FD462002F076FD02B010BD8D
:101B5000003802402DE9F0438DB007AD0024079412
:101B6000089409940A940B940194484B1A6B42F020
:101B700002021A631A6B02F002020192019A0294A5
:101B80001A6B42F001021A631A6B02F00102029210
:101B9000029A03941A6B42F008021A631A6B02F05D
:101BA00008020392039A04941A6B42F004021A6327
:101BB0001A6B02F004020492049A05941A6B42F024
:101BC00080021A631A6B02F080020592059A06944D
:101BD0001A6B42F020021A631B6B03F0200306937A
:101BE000069BDFF8AC8022464FF4E051404603F0FC
:101BF0009AF8DFF8A09001221021484603F093F8EC
:101C0000254F01221146384603F08DF84FF4E0537A
:101C100007930126089609940A942946404602F043
:101C200081FF10230793089609964FF00208CDF81C
:101C300028802946484602F075FF302307934FF469
:101C40008813089309962946144802F06BFF4FF455
:101C5000805307934FF44413089309942946384658
:101C600002F060FF079608960996CDF8288029466D
:101C7000384602F057FF22462146282002F0CCFCCD
:101C8000282002F0D9FC0DB0BDE8F08300380240F6
:101C9000001C024000000240000402400008024014
:101CA0002DE9F041114B1E88741C634204F01F049F
:101CB00003F01F0358BF5C420D4B1B889C4201D1AF
:101CC000BDE8F0810D464FEA861806EB8613094FF2
:101CD0000A46014607EB430004F0E8FEB04407EB78
:101CE0004807A7F88050014B1C80E9E71E08002038
:101CF0001C0800202008002008B5124B1B782BB1CF
:101D0000114B1B88114A1288934200D108BD0D4A1D
:101D10000021117003EB831251000D480A46024462
:101D2000B2F8802001440B4804F096F806490B886D
:101D300001335A4203F01F0302F01F0258BF5342FF
:101D40000B80E3E7200000201C0800201E08002074
:101D500020080020BC1B00202DE9F04F97B0059013
:101D60000C4616468E4B0FCB16AD05E90F000294BC
:101D70002568109503963468119400212046FEF7DB
:101D8000FBFE01462846FEF7EFFD00900E90002175
:101D90002846FEF7F1FE01462046FEF7E5FD0190DC
:101DA0000F90804CD4F80090A76800213846FEF7C9
:101DB000E3FE804601464846FEF7D6FD8246666849
:101DC00000213046FEF7D8FE054601465046FEF794
:101DD000CBFD8346D4F80CA000215046FEF7CCFE84
:101DE00004900021FEF7C8FE01465846FEF7BCFDF0
:101DF0006D4B1968FEF7B8FD83460A9000214846EE
:101E0000FEF7BAFE814600214046FEF7B5FE0146C8
:101E10004846FEF7A9FD01463046FEF7A5FD0146FE
:101E20000498FEF7A1FD06460B9049463846FEF79A
:101E30009BFD074600212846FEF79EFE01463846D8
:101E4000FEF792FD01460498FEF78EFD07460C90C2
:101E500000214846FEF790FE01464046FEF784FD0D
:101E600001462846FEF780FD01465046FEF77CFD00
:101E70004E4B1968FEF778FD05460D9008AA4849B3
:101E800001F1100393E8030082E803000199009830
:101E9000FEF76AFD01460598FEF764FD8246394665
:101EA0005846FEF761FD01463046FEF75DFD0146EE
:101EB0002846FEF759FD3E4B1968FEF755FD814651
:101EC00031465846FEF750FD4946FEF709FF804669
:101ED000069029463846FEF747FD4946FEF700FFC3
:101EE0008146079051464046FEF746FE014600985F
:101EF000FEF73AFD029B186051464846FEF73CFE4D
:101F000001460198FEF730FD039B186041464FF0F3
:101F10007E50FEF727FD824601465846FEF72CFE0E
:101F2000009041463846FEF727FE01460098FEF72E
:101F300019FD206051463046FEF71EFE824641469E
:101F40002846FEF719FE01465046FEF70BFD60607D
:101F500009F1004A51465846FEF70EFE83464946AF
:101F60004FF07E50FEF7FEFC804601463846FEF7F5
:101F700003FE01465846FEF7F7FCA0605146304686
:101F8000FEF7FAFD064641462846FEF7F5FD0146F6
:101F90003046FEF7E9FCE06017B0BDE8F08F00BF07
:101FA0008015010800000020180000201400002007
:101FB000100000200268044B9A4200D07047034B87
:101FC00001221A70FAE700BF001001402000002033
:101FD00002681E4B9A4200D0704710B592B01C4B5D
:101FE0001B780A2B0FD01B4A12887E2A04D8501C5B
:101FF0001849088018498B5401221549174804F0E4
:10200000A8F912B010BD134B1B8813480022C2540C
:10201000134B144A144904F085FC022803D00D4BDD
:1020200000221A80E8E702AC0D4B1B6800930D4BB1
:102030001B680E4A4021204604F00AFC2046FEF7A9
:10204000DFFF81B22046FFF72BFEE8E700100140DA
:102050004C190020C8180020CC180020BC1B002000
:10206000E8070020E407002098150108A0150108E2
:10207000B0F5805F00D0704730B591B001F090FEB0
:1020800004461E4B1B68C31A322B01D811B030BD59
:102090004FF480611A4802F04CFE4FF48051194809
:1020A00002F03AFE012821D0174D2946002001F008
:1020B000AFFC2946012001F0ABFC2946022001F0CB
:1020C000A7FC124B01221A70114B1C602346114AC7
:1020D0004021684604F0BCFB6846FEF791FF81B2E0
:1020E0006846FFF7DDFD054B1C60CFE723460A4A33
:1020F0004021684604F0ACFBEEE700BF80070020FB
:10210000001C024000040240CDCC8C3F1808002087
:1021100014080020E8150108C415010872B6FEE78E
:1021200000B595B03022002108A804F071FC03A886
:102130000023039343608360C36003610193254AD6
:10214000116C41F080511164126C02F080520192C6
:10215000019A0293204A116841F48041116012688B
:1021600002F480420292029A012203920493052112
:1021700003F046F840BB012308934FF480330993E2
:1021800002230E934FF480020F9206221092A8228F
:10219000119212930423139308A802F0E1FDA8B949
:1021A0000F23039302230493002305934FF4A053BA
:1021B00006934FF480530793052103A803F020F8FA
:1021C00030B915B05DF804FBFFF7A8FFFFF7A6FFD5
:1021D000FFF7A4FF00380240007000402DE9F04FE7
:1021E000FDB001F0B7FDFFF79BFFFFF7B3FCFFF772
:1021F00075FCFFF7A1FB00F00DFE012241494248AA
:1022000004F0A7F800F020FEFFF7B6FB00F0F8FBA3
:1022100000F0C6FD01F0C4FD3C4B186001F0C0FDAC
:102220003B4B186001F0B0F80028FBD1FFF72EFB04
:1022300001F0EAFC0025374C374E4FF08D48CDF8C1
:102240000480364F00972B46224631462FA800F0D7
:102250006FFBCDF8048000972B462246314622A81A
:1022600000F066FBCDF8048000972B4622463146ED
:1022700015A800F05DFBCDF8048000972B462246A0
:10228000314608A800F054FB254B0193254B0093E1
:102290002B462A464FF07F51234800F049FB234F3D
:1022A000234EDFF89090CDF80490DFF88C80CDF8C5
:1022B00000803B4622463146204800F039FBCDF8ED
:1022C0000490CDF800803B46224631461C4800F081
:1022D0002FFB002001F080FB012001F07DFB02209C
:1022E00001F07AFB2C46A84607950695D9E0012B0C
:1022F00040F00581134B01221A6003E1114B0022CB
:102300001A60FFE04C190020BC1B0020C40700200D
:10231000C80700200AD7233C000060400060EA465E
:10232000000025440000FA4388070020CDCC4C3E35
:102330009A99193F0000964300007A4494180020AF
:10234000601800201C000020844B1E68012E00F045
:102350003181022E00F0BD81804B1B68032B00F001
:102360009282002001F036F98146012001F032F915
:102370000546022001F02EF90646032001F02AF955
:102380000746B9F90200FEF7A3FB024606992FA8FB
:1023900000F0DAFA8146B5F90200FEF799FB024631
:1023A000079922A800F0D0FA0546B6F90200FEF718
:1023B0008FFB0246414615A800F0C6FA0646B7F95B
:1023C0000200FEF785FB0246214608A800F0BCFA91
:1023D000FEF798FD07B23046FEF794FD06B2284698
:1023E000FEF790FD05B24846FEF78CFD3B463246AF
:1023F000294600B201F0C4F8594B1868594A1060D8
:102400005A68594E32609B68584D2B600023584AD9
:102410005849FFF7A1FC0123574A58493068FFF794
:102420009BFC0223564A57492868FFF795FC564BF8
:10243000D3F80C90D3F834A0D3F888B0186BFEF71B
:1024400023F806460F463CAD5846FEF71DF8CDE989
:1024500004015046FEF718F8CDE902014846FEF7A0
:1024600013F8CDE9000132463B464849284604F0BE
:1024700037FA2846FEF7C4FD81B22846FFF710FC64
:10248000434B1B78002B40F01F82424A13880133D4
:102490001BB21380022B00F031823F4B1A683F4B76
:1024A0001A6001220021104601F02AFA01220021BF
:1024B000022001F025FA01220021032001F020FA78
:1024C000002001F0B1FA012001F0AEFA022001F083
:1024D000ABFA01F065FC304B1860314A20493148B5
:1024E00000F060FF01F09AFB054658B1837A002B9B
:1024F00018BF032B7FF4FBAE184A03211160022B97
:102500003FF4FCAE154B1B68002B7FF41DAF224B34
:102510001E68B6F5FA6F0BD9234F24493868FEF7C9
:10252000DFFB234B186000233B600C4B02221A6038
:10253000B6F57A7F7FF608AF1A4B9F68174B18687D
:10254000301AFEF7C1FA3946FEF716FB0146164E61
:102550003068FEF709FA3060F6E600BF1C00002084
:10256000FC070020F4070020F0070020EC07002003
:10257000D4070020E0070020D0070020DC0700205F
:10258000CC070020D8070020601C00200C16010892
:10259000180800201A080020C4070020C8070020DF
:1025A000F807002008080020C007002000007A4437
:1025B000BC070020002D3FF4CCAEB5F90000FEF7BB
:1025C00087FA00F10044B5F90200FEF781FA80466F
:1025D000B5F90400FEF77CFA00F10049B5F90600F0
:1025E000FEF776FA0746AA494846FEF779FB824687
:1025F000A7494046FEF774FB8146A5492046FEF7F1
:102600006FFB0446A2493846FEF76AFB07462AF0EC
:102610000040A049FEF74EFC08B14FF0000A29F037
:1026200000409C49FEF746FC08B14FF0000924F039
:1026300000409849FEF73EFC00B1002427F000401E
:102640009449FEF737FC00B1002749465046FEF793
:102650008BF980462146FEF787F900F100408E494C
:10266000FEF78AFA83464FF07E513846FEF77CF932
:10267000074601465846FEF77FFA069051464846FF
:10268000FEF770F981462146FEF76CF98249FEF7A4
:1026900073FA01463846FEF76FFA07902146404626
:1026A000FEF760F900F100407B49FEF765FA01464C
:1026B0003846FEF761FA804621464846FEF754F94F
:1026C0007549FEF759FA01463846FEF755FA0446B1
:1026D0003FE6B5F90000FEF7FBF900F10048B5F957
:1026E0000200FEF7F5F90746B5F90400FEF7F0F928
:1026F00000F10046B5F90600FEF7EAF90446644920
:102700003046FEF7EDFA064661493846FEF7E8FA2C
:1027100007465F494046FEF7E3FA05465C49204616
:10272000FEF7DEFA044626F000405A49FEF7C2FBE7
:1027300000B1002627F000405649FEF7BBFB00B170
:10274000002725F000405349FEF7B4FB00B10025F7
:1027500024F000404F49FEF7ADFB00B100244F4B81
:1027600018684F4B1B68C01AFEF7AEF98046014649
:102770004C4B9868FEF700FA81464B4B196840466F
:10278000FEF7FAF901464846FEF7ECF8DFF81C813F
:10279000D8F80010FEF7E8F80246C8F80000444BED
:1027A0001968444800F0D0F8804643493846FEF79F
:1027B000E3F90746414B1868FEF78AF94049FEF7EE
:1027C0008FFA01463846FEF7CDF807463A493046BB
:1027D000FEF7D2F94146FEF7C7F8064636492846C5
:1027E000FEF7CAF90546374B1868FEF771F9344908
:1027F000FEF776FA01462846FEF7B4F8054631465C
:102800003846FEF7B1F880462946FEF7ADF800F1EC
:1028100000402149FEF7B0F981464FF07E51204635
:10282000FEF7A2F8044601464846FEF7A5F90690D1
:1028300031463846FEF796F806462946FEF792F8E6
:102840001549FEF799F901462046FEF795F90790DC
:1028500029464046FEF786F800F100400E49FEF793
:102860008BF901462046FEF787F980462946304617
:10287000FEF77AF80849FEF77FF901462046FEF791
:102880007BF9044668E50024A0460794069468E5B1
:1028900000002544CDCC4C3D00007A44C407002004
:1028A000C807002008080020BC070020C00700203F
:1028B00084070020880700200000A040E8070020CF
:1028C0000000C842E407002001F06AFA134B1B68BD
:1028D000C01AB0F5FA7FFFF4D8AD114D294600209B
:1028E00001F096F82946012001F092F829460220CD
:1028F00001F08EF80B4B00221A70C6E51346002239
:102900001A804FF40061084802F013FA074B1B7855
:10291000012B7FF4C2ADFFF7EFF9BEE514080020EC
:10292000CDCCCC3D18080020001C02402000002027
:10293000016042608360009BC360019B03610023D0
:10294000C3610362836270472DE9F8430446084679
:1029500011466061A261D4F81C80C4F82080FEF7A3
:1029600001F80546E0612168FEF706F90746606256
:10297000A66A61682846FEF7FFF801463046FDF773
:10298000F3FF0646A062D4F8089041462846FDF7BA
:10299000E9FF01464846FEF7EFF80546E062D4F845
:1029A0000C8008F1004949463046FEF783FAB0B181
:1029B000C4F82890A16A3846FDF7D6FF014628469C
:1029C000FDF7D2FF05462063266906F10047394628
:1029D000FEF770FA60B12763206BBDE8F8834146CB
:1029E0003046FEF785FA0028E4D0C4F82880E1E7F5
:1029F00031462846FEF77CFA0028EDD02663EBE747
:102A000008B50F480F4B03604FF4827343600023F7
:102A10008360C36002220261012242614FF40072AE
:102A200082613822C2610362436283620A23C36205
:102A300002F060FD00B908BDFFF770FBFBE700BFC7
:102A4000101A0020003001402DE9F04389B0002326
:102A50000393049305930693079302683E4B9A42AF
:102A600002D009B0BDE8F08304460025009503F5C7
:102A700084335A6C42F480525A645A6C02F4805285
:102A80000092009A01951A6B42F002021A631A6BC7
:102A900002F002020192019A02951A6B42F00102C1
:102AA0001A631B6B03F001030293029B1823039329
:102AB0004FF00209CDF810904FF00308CDF81880C0
:102AC0000527079703AE3146244802F02BF88023F0
:102AD0000393CDF810900595CDF8188007973146EF
:102AE0001F4802F01FF81F481F4B03604FF0C063E0
:102AF00043608560C5604FF4806303614561856113
:102B0000C5614FF440330362456201F027FEE8B926
:102B1000144BE3649C631548154B03604FF0C0638E
:102B20004360402383600023C3604FF480620261EE
:102B300043618361C3614FF400320262436201F07A
:102B40000DFE30B9094BA3649C638AE7FFF7E6FAF0
:102B5000DEE7FFF7E3FAF5E700300140000402404A
:102B600000000240B01900204064024050190020CB
:102B70005864024082B0002100910B4B5A6C42F421
:102B800080425A645A6C02F480420092009A019189
:102B90001A6C42F080521A641B6C03F0805301934C
:102BA000019B02B0704700BF00380240FEE7FEE71D
:102BB000FEE7FEE7FEE770477047704708B501F093
:102BC000E3F808BD08B5024801F0BEFE08BD00BF2D
:102BD000B41A002008B5024801F0A2FB08BD00BFEE
:102BE0005807002008B5024803F056FA08BD00BF98
:102BF000BC1B002008B5034803F04EFA01F012F8A0
:102C000008BD00BF741B002008B54FF4805002F0CF
:102C100099F808BD08B5024801F096FE08BD00BF4E
:102C2000B019002008B5024801F08EFE08BD00BFB3
:102C30005019002008B5024801F072FB08BD00BF22
:102C40003007002008B5024801F07EFE08BD00BF35
:102C5000141B00200120704708B503F0AFFF1623B6
:102C600003604FF0FF3008BD08B54FF0FF31FFF7AC
:102C7000F3FFFEE770B50C461646002506E0AFF3FD
:102C80000080214601F8010B01350C46B542F6DB08
:102C9000304670BD70B50C461646002504E014F8A9
:102CA000010BAFF300800135B542F8DB304670BD53
:102CB0004FF0FF3070474FF400534B6000207047D7
:102CC000012070470020704710B503460C4A0D499B
:102CD0000D48006840B10C4800680344521A934202
:102CE00006D8094A136010BD0748084C0460F2E793
:102CF00003F064FF0C2303604FF0FF30F3E700BFE5
:102D00000000022000040000681A002010220020A9
:102D1000704700000268094B9A4200D0704782B0A9
:102D200000230193064B5A6C42F400325A645B6CE8
:102D300003F400330193019B02B07047004401404B
:102D40000038024000B587B000230193029303933B
:102D50000493059302680F4B9A4202D007B05DF8C6
:102D600004FB002300930C4B1A6B42F020021A6301
:102D70001B6B03F020030093009B4023019302236D
:102D8000029304930323059301A9044801F0CAFEAA
:102D9000E4E700BF00440140003802400014024054
:102DA00000B589B000230193029303930493059324
:102DB000069307931548164A02604360836041F208
:102DC0008732C2600361836102F022FEA0B90F481E
:102DD00002F04AFE98B96023019300220292039206
:102DE000059201A9094802F0A3FE58B90748FFF768
:102DF000A9FF09B05DF804FBFFF790F9E7E7FFF7DB
:102E00008DF9E8E7FFF78AF9F0E700BF6C1A0020B8
:102E10000044014008B50A480A4B03604FF4E1330F
:102E2000436000238360C36003610C2242618361BD
:102E3000C36102F0E1FF00B908BDFFF76FF9FBE7DE
:102E4000BC1B00200010014008B50A480A4B036073
:102E50000A4B436000238360C36003610C2242611C
:102E60008361C36102F0C8FF00B908BDFFF756F9DE
:102E7000FBE700BF741B002000480040A086010053
:102E80002DE9F0438BB00446002305930693079386
:102E9000089309930368594A934205D0584A9342CC
:102EA00063D00BB0BDE8F08300250095554B5A6CFC
:102EB00042F010025A645A6C02F010020092009A1A
:102EC00001951A6B42F002021A631A6B02F00202B9
:102ED0000192019A02951A6B42F001021A631B6B70
:102EE00003F001030293029B802305934FF0020934
:102EF000CDF818904FF00308CDF8208007270997E8
:102F000005AE3146404801F00DFE4FF400730593C5
:102F1000CDF818900795CDF82080099731463B48A9
:102F200001F000FE3A483B4B03604FF00063436002
:102F300040238360C5604FF4806303614561856110
:102F4000C5610562456201F009FC58B9304BA363C5
:102F50009C6300221146252001F05EFB252001F034
:102F60006BFB9EE7FFF7DAF8F0E700250395254BAA
:102F70001A6C42F480221A641A6C02F480220392C2
:102F8000039A04951A6B42F004021A631B6B03F058
:102F900004030493049B4FF44063059302230693B8
:102FA000032308930723099305A91B4801F0BAFDE1
:102FB0001A481B4B03604FF0006343608560C56097
:102FC0004FF480630361456185614FF48073C36191
:102FD0004FF400330362456201F0C0FB58B90F4B58
:102FE000E3639C6300221146272001F015FB272094
:102FF00001F022FB55E7FFF791F8F0E700100140E0
:103000000048004000380240000402400000024036
:10301000141B0020B864024000080240B41A0020CB
:1030200028600240DFF834D0FFF772FE0C480D49EB
:103030000D4A002302E0D458C4500433C4188C4213
:10304000F9D30A4A0A4C002301E013600432A24279
:10305000FBD303F0B9FDFFF7C1F870470000022071
:10306000000000200C070020148701081007002032
:1030700010220020FEE77047704710B44FF0E023A5
:103080005C69A82202FB00FC9B69002104E0E01AB5
:1030900002441144614509D21A464FF0E0239B696E
:1030A0009A42FAD0F3D9D21A1144F3E710BC704710
:1030B00010B504E04FF47A70FFF7DFFF2046431E9F
:1030C0009CB20028F6D110BD08B50022102102489C
:1030D00001F029FE08BD00BF0000024008B5012232
:1030E0001021024801F01FFE08BD00BF0000024091
:1030F00008B500220121024801F015FE08BD00BFFD
:103100000004024008B501221146024801F00BFEFE
:1031100008BD00BF0004024000B587B08DF80F0065
:103120004FF47A73009301230DF117020DF10F0193
:10313000034802F03EFA9DF8170007B05DF804FB63
:10314000101A002010B50C46FFF7E6FF2046FFF7E7
:10315000E3FF10BD10B50C4640F08000FFF7DCFF28
:103160005520FFF7D9FF207010BD38B50D46144625
:1031700040F08000FFF7D0FF06E05520FFF7CCFFBE
:1031800005F8010B013CE4B2002CF6D138BD00007B
:1031900070B5FFF799FF8020FFF7BEFF5520FFF7BE
:1031A000BBFF5520FFF7B8FFFFF798FF9620FFF70A
:1031B00064FFFFF789FF8020FFF7AEFF5520FFF780
:1031C000ABFF5520FFF7A8FFFFF788FF9620FFF71A
:1031D00054FFFFF779FFB6217E20FFF7B3FFFFF71B
:1031E0007DFF5020FFF764FFFFF76EFF8020FFF7A1
:1031F00093FF5520FFF790FF5520FFF78DFFFFF756
:103200006DFF9620FFF739FFFFF75EFF8020FFF785
:1032100083FF5520FFF780FF5520FFF77DFF044611
:10322000FFF75CFF9620FFF728FF1E2C32D1002409
:10323000052C2DD8FFF748FF174A04EB4403D1189B
:103240004E78D55C31462846FFF77CFFFFF746FFF6
:103250009620FFF712FFFFF737FF45F08000FFF7DA
:103260005BFF5520FFF758FF5520FFF755FF054638
:10327000FFF734FF9620FFF700FFAE4202D1013482
:10328000E4B2D5E704EB4404034B2344987800E010
:10329000002070BDFF20FCE78018010870B582B0E7
:1032A00000248DF80740FFF723FF0DF1070529469D
:1032B0002046FFF74FFFFFF725FF9620FFF7DDFEC3
:1032C000FFF716FF29462046FFF744FFFFF71AFFD6
:1032D0009620FFF7D2FEFFF70BFFB6211420FFF771
:1032E00031FFFFF70FFF5020FFF7E2FEFFF700FF6F
:1032F00029462046FFF72EFFFFF704FF9620FFF731
:10330000BCFEFFF7F5FE29462046FFF723FFFFF737
:10331000F9FE9620FFF7B1FE9DF807300F2B2ED156
:10332000052C29D8FFF7E4FE164A04EB4403D11814
:103330004D78D65C29463046FFF704FFFFF7E2FEE2
:103340009620FFF79AFEFFF7D3FE0DF107013046F6
:10335000FFF700FFFFF7D6FE9620FFF78EFE9DF8E1
:1033600007309D4202D10134E4B2D9E704EB4404B2
:10337000044B2344987800E0002002B070BDFF2089
:10338000FBE700BF6C18010810B5FFF774FEFFF7EC
:1033900073FEFFF7FDFE0446FFF780FF2043C0B237
:1033A00010BD00002DE9F04383B005460C461646DB
:1033B000002700970197FFF787FE9220FFF7ACFEEA
:1033C000062269461220FFF7D0FEFFF787FE9DF820
:1033D00001301B021BB29DF800001843FDF778FB7B
:1033E000DFF8FC90D9F80010FDF7C6FB20609DF8CF
:1033F00003301B021BB29DF80200D9F8009018435D
:10340000FDF766FB4946FDF7B7FB60609DF80530A8
:103410001B021BB29DF804001843FDF759FB4946F7
:10342000FDF7AAFBA060FFF763FE08226946384655
:10343000FFF79BFEFFF766FE9DF800300F2B24D0B0
:10344000FFF742FEA220FFF767FE02226946222014
:10345000FFF78BFEFFF742FE9DF800309DF801005C
:10346000400940EAC300B0F5806F01DBA0F50060C1
:10347000FDF72EFB4FF07851FDF77EFB1949FDF764
:1034800073FA306003B0BDE8F0839DF803301B028F
:103490001BB29DF802001843FDF71AFB124C21687D
:1034A000FDF76AFB28609DF805301B021BB29DF8F2
:1034B000040024681843FDF70BFB2146FDF75CFB75
:1034C00068609DF807301B021BB29DF80600184388
:1034D000FDF7FEFA2146FDF74FFBA860B0E700BFFD
:1034E0002C0000200000B8412800002070B50446E0
:1034F0000E461546FDF7DEFC30B929462046FDF79D
:10350000F7FC18B9204670BD3046FCE72846FAE7BC
:10351000F8B507460C461E461046FDF723FA054649
:103520003846FDF7D5FA2946FDF726FB054601206A
:10353000B0400138FDF7CCFA01462846FDF7D0FB34
:103540002146FDF711FAF8BDF8B506460F461D46AF
:103550001046FDF707FA044639463046FDF702FAF1
:103560002146FDF7BDFB04460120A8400138FDF7C8
:10357000AFFA2146FDF700FBFDF7EAFC80B2F8BD8B
:1035800010B582B08E4694460F494FF400720A601F
:1035900000228A60CA6008220A610C4A0412147070
:1035A00050704FEA2E20907082F803E04FEA2C20F2
:1035B000107182F805C018129071D37101AB0448E4
:1035C00000F066FD02B010BD281C0020201C002069
:1035D0005807002000F0030000EB8000014B03EBD4
:1035E00040007047101E002010B582B00446084607
:1035F0000C23124A1249FFF7A7FF12490C6000235F
:103600008B60CB6008220A618DF800308DF80130A4
:103610008DF802308DF803308DF804308DF80530C8
:1036200020FA02F38DF806308DF8070001236A4670
:10363000054800F02DFD02B010BD00BF0000204184
:10364000000020C1041C0020300700202DE9F84FA5
:1036500005460C464B7891F8028048EA0328CA7860
:103660000B791F0947EA02171E0206F470664B79B0
:103670001E43D0F80090B9F1010F07D0B9F1020F45
:1036800029D0B9F1030F4BD0BDE8F88F0B781B0997
:1036900043601023354A36494046FFF739FF286317
:1036A000DFF8D0B0DFF8D0A00C235A465146384698
:1036B000FFF72EFF68630C235A4651463046FFF74A
:1036C00027FFA863A079FDF7FFF9A864E079FDF76B
:1036D000FBF9E864D2E723781B096B601023234AC7
:1036E00023494046FFF714FF2863DFF888B0DFF86E
:1036F00088A00C235A4651463846FFF709FF6863F5
:103700000C235A4651463046FFF702FFA863A079C2
:10371000FDF7DAF9A864E079FDF7D6F9E864B0E7D7
:1037200023781B096B601023104A11494046FFF7AC
:10373000EFFE2863DFF83C90DFF83C800C234A461C
:1037400041463846FFF7E4FE68630C234A4641468B
:103750003046FFF7DDFEA863A079FDF7B5F9A86450
:10376000E079FDF7B1F9E8648EE700BF0000484159
:10377000000048C100002041000020C110B592B0F7
:1037800004460268474B9A4205D02268464B9A424B
:1037900036D012B010BD02AB0BAA002100F0EDFC38
:1037A0000B9BA3F20122062AEFD8013BDBB23F4A72
:1037B00013703F4903EB830201EB420031F912C061
:1037C000A0F808C09DF808E09DF809C04CEA0E2C4E
:1037D00021F812C09DF80A20120212B29DF80BC007
:1037E00042EA0C0242809DF80C20120212B29DF8AF
:1037F0000DC042EA0C0282809DF80E208271C4E75F
:103800006B4604AA00212B4800F0B7FC049B122B46
:1038100017D0132B2CD0112BBBD19DF8003003F007
:103820000F03254C236069462046FFF70FFF236BEB
:103830002365224B01225A70214A13680133136019
:10384000A7E79DF8003003F00F031B4C204640F81B
:10385000903F6946FFF7FAFED4F8C030C4F8E03074
:10386000164B01225A74164A53680133536090E78D
:103870009DF8003003F00F030F4CC4F82031694667
:1038800004F59070FFF7E2FED4F85031C4F87031BF
:103890000A4B012283F82120094A9368013393607F
:1038A00077E700BF00640040006800401C1C002057
:1038B000101E002030070020601C0020581E002031
:1038C000881E002000B583B00A49086000238B6081
:1038D000CB6008230B61084A4FF0FF331360C2F836
:1038E0000330FE23D37101AB044800F0D1FB03B0D9
:1038F0005DF804FB481C0020401C0020300700201D
:10390000F0B583B005460E46C4B2013CE4B217469A
:10391000002A35D023012B4AD35C1BB102EB0413E0
:103920005B78A3B900F03CFA264B03EB04135B6809
:10393000C01A632842D9234B220103EB041401214E
:1039400099540023637000F02BFA60601FE004EBD1
:10395000C4021D4B03EB02130021D86EFDF7A0FA41
:1039600060B32846FFF7AEFF174B04EBC40203EB2E
:103970000212126B04EBC40403EB0413DA661DE0BD
:10398000104A210102EB04140023535463703544A0
:103990000E4B1D6000229A60DA6008221A610C4BFF
:1039A0004FF0FF321A60C3F803204FB1FC23084ADE
:1039B000D37101AB0549074800F06AFB03B0F0BDC5
:1039C000FD23F4E7581E0020601C0020481C002046
:1039D000401C002030070020022815D80B4A00EBBD
:1039E000C00302EB03134FF0814199604FF0000CCC
:1039F000C3F80CC04FF080411961C3F814C01964BA
:103A00001A464FF07E535364704700BF601C00207D
:103A1000022806D800EBC000024B03EB0013C3F8EA
:103A200080107047601C0020022800D970472DE9E3
:103A3000F04704461D4F4FEAC00800EBC00507EBF6
:103A40000515296BD5F88000FCF78CFF0646E86069
:103A50000146A868FDF790F88146D5F810A0E96BFB
:103A60003046FCF77FFF01465046FDF785F80146DA
:103A70004846FCF779FF0E4A0E49FFF737FD696BA0
:103A8000FCF770FF0146286CFDF776F80A4A0B49EF
:103A9000FFF72CFD0146C5F8880008EB04031B0165
:103AA000F858FFF7A1FDBDE8F08700BF601C0020BB
:103AB0000000F0410000F0C100004040000040C0A4
:103AC00010B4164B1B685C6944F040045C61DC6810
:103AD00044F01004DC60124B1C68236823F00103DF
:103AE000236003E01C6824F001041C600C4B1B687D
:103AF0001C6814F0010FF5D10A4C9C60D860196164
:103B00005A601A6842F480221A60054B1A681368DA
:103B100043F00103136010BC704700BF741B00200A
:103B2000B41A00200448004000286BD00346002946
:103B300068D030B50478427844EA0224C4F30A0419
:103B40000C80427890F802E04FEA4E1E4EEAD20E08
:103B5000CEF30A0EA1F802E08078DA78920042EA09
:103B60009012187942EA8022C2F30A028A801D79F3
:103B70005879C00140EA5500C0F30A00C88093F8A4
:103B800005C0CCF3011C81F80AC093F805C04FEAC8
:103B90009C1C81F80BC093F806C0DD794CEA052C1B
:103BA000A1F80CC093F808C05D7A4CEA052CA1F886
:103BB0000EC093F80AC0DD7A4CEA052CA1F810C0BB
:103BC0001D7B8D745D7BCD7493F80EC0DD7B4CEA5C
:103BD000052CA1F814C093F810C05B7C4CEA0323B9
:103BE0000B81A4F580640C80AEF5806EA1F802E034
:103BF000A2F580628A80A0F58060C880A3F580630A
:103C00000B8130BD7047000008B503492422A1F1A3
:103C10002400FFF755FF08BDBC1E00200048704778
:103C2000E01E002000B583B02F4B1B681A6812F00D
:103C3000200F09D0002200921A6800925B6800935E
:103C4000009B03B05DF804FB284A126812F0100FC5
:103C5000F7D0002201921A6801925B680193019BE0
:103C6000234B1B681A6812F4002F1DD11A6822F02A
:103C700001021A601E4802685368C3F124039BB214
:103C80001C490B8024215160116841F4002111600E
:103C900001680A6842F001020A60122BD1D116496C
:103CA0001648FFF741FFCCE71A6822F001021A60BC
:103CB0000F490A685368C3F124039BB20D4803807F
:103CC000242050600E48826A22F400228262096831
:103CD0000A6842F001020A60122BB2D10649094873
:103CE000FFF722FFADE700BF741B00200048004033
:103CF000B41A0020941E0020E01E0020981E002010
:103D000000600240BC1E002010B504460E4B1A781D
:103D10004FF47A73B3FBF2F30C4A1068B0FBF3F084
:103D200000F08EFC68B90F2C01D901200AE00022B6
:103D300021464FF0FF3000F06FFC054B1C60002067
:103D400000E0012010BD00BF300000202400002052
:103D50003400002008B50B4B1A6842F400721A6058
:103D60001A6842F480621A601A6842F480721A601B
:103D7000032000F03FFC0F20FFF7C6FFFEF7FAFE1E
:103D8000002008BD003C0240034A1168034B1B7829
:103D90000B441360704700BFF81E00203000002065
:103DA000014B1868704700BFF81E0020002800F083
:103DB000A18038B5044690F82030D3B1226813684A
:103DC00043F001031360FFF7EBFF054623685A68D1
:103DD00012F0010F10D1FFF7E3FF401B0A28F5D9BD
:103DE000636A43F400336362052384F820300120C2
:103DF00038BDFDF7E3FDE1E71A6822F002021A6020
:103E0000FFF7CEFF054623685A6812F0020F0DD067
:103E1000FFF7C6FF401B0A28F5D9636A43F4003355
:103E20006362052384F820300120E1E7227E012A25
:103E30003DD01A6822F080021A60637E012B3BD0CD
:103E40002268136823F040031360A37E012B39D04E
:103E50002268136823F020031360E37E012B37D020
:103E60002268136843F010031360237F012B35D0C1
:103E70002268136823F008031360637F012B33D09B
:103E80002268136823F004031360A368E2681343F5
:103E900022691343626913436268013A216813433C
:103EA000CB6100206062012384F82030A0E71A680B
:103EB00042F080021A60C0E72268136843F04003B2
:103EC0001360C2E72268136843F020031360C4E75D
:103ED0002268136823F010031360C6E72268136892
:103EE00043F008031360C8E72268136843F0040333
:103EF0001360CAE70120704790F82030013BDBB225
:103F0000012B05D9436A43F48023436201207047A3
:103F100010B5474BD3F8002242F00102C3F800224B
:103F2000D3F8002222F47C52C3F80022D3F80022F6
:103F3000486A42EA0022C3F800224A6902F01F02DE
:103F4000012000FA02F2D3F81C026FEA020C20EA08
:103F50000200C3F81C02CB69CBB9354BD3F80C0275
:103F60000CEA0000C3F80C028C884869D1F80CE018
:103F700044EA0E44483043F830408C68088840EAF0
:103F800004404C6904F1480E03EBCE035860CB6942
:103F9000012B1ED08B69002B35D12548D0F8043277
:103FA0000CEA0303C0F804320B699BBB2048D0F82D
:103FB00014320CEA0303C0F814320B6A012B30D020
:103FC0001B4AD2F8003223F00103C2F8003200206D
:103FD00010BD174BD3F80C021043C3F80C028C88A9
:103FE0004869D1F800E044EA0E44483043F83040D4
:103FF00088894C69D1F808E040EA0E40483403EB68
:10400000C4035860C6E70A48D0F804321343C0F826
:104010000432C9E70648D0F814321343C0F814320A
:10402000CBE70349D1F81C321343C1F81C32C7E770
:104030000064004070B5044690F82030012B06D093
:10404000436A43F4002343620126304670BDDEB26A
:10405000022380F820300268136823F00103136004
:10406000FFF79EFE054623685B6813F0010F0CD036
:10407000FFF796FE431B0A2BF5D9636A43F400331E
:104080006362052384F82030DFE700266662DCE700
:1040900030B590F820C00468A4680CF1FF3C5FFACA
:1040A0008CFCBCF1010F62D814F0E05F59D0C4F36E
:1040B000016C012404FA0CF41C608B68002B3DD1C8
:1040C0000D68CB68046843EA45550CF118031B01E1
:1040D000E55003680C690CF1180E03EB0E135C60DD
:1040E0000B7D012B35D0D17993791B0443EA016311
:1040F000517943EA012314790168234301EB0C1140
:10410000C1F88C31D17893781B0443EA016351786C
:1041100043EA0123117802680B4302EB0C12C2F848
:10412000883102680CF1180C4FEA0C1C52F80C3064
:1041300043F0010342F80C3000201DE04C6843EAD4
:10414000C403CC6823430CF11804240105682B51E7
:10415000BFE7036803EB0E13596841F4807159609F
:10416000C1E7436A43F400134362012004E0436A59
:1041700043F480234362012030BD90F820C00CF14D
:10418000FF3C5FFA8CFCBCF1010F00F2A58030B45B
:1041900051B90468E46814F0030F10D1436A43F482
:1041A0000013436201207EE00468246914F0030FC9
:1041B00005D1436A43F400134362012073E00568AC
:1041C00001F11B0424012C5904F004049460002C18
:1041D0006BD1056801F11B0424012C59640D146096
:1041E000046801F11B0C4FEA0C1C54F80C4004F05D
:1041F0000204D4600468A444DCF8045015F0080FED
:104200005BD008241461046801F11B0C04EB0C144E
:104210006468C4F307249461046804EB0C146468B4
:10422000240C5461026802EB0112D2F8B8211A7012
:10423000026802EB0112D2F8B821C2F307225A70C9
:10424000026802EB0112D2F8B821C2F307429A7059
:10425000026802EB0112D2F8B821120EDA7002687D
:1042600002EB0112D2F8BC211A71026802EB0112B2
:10427000D2F8BC21C2F307225A71026802EB011284
:10428000D2F8BC21C2F307429A71026802EB011214
:10429000D2F8BC21120EDA71C1B90268D36843F0BA
:1042A0002003D360002030BC7047056801F11B0477
:1042B00024012C59E408546092E701F11B0504EB3A
:1042C0000514646804F00F0414619CE70268136924
:1042D00043F020031361E5E7436A43F4802343621C
:1042E0000120704790F82030013BDBB2012B05D94B
:1042F000436A43F480234362012070470268536994
:104300000B435361002070477047704770477047F8
:1043100070477047704770477047704770477047E5
:104320002DE9F84F054603685C69D3F804809F685F
:10433000D3F80CA0D3F81090D3F818B014F00106FD
:104340003BD017F0010616D001229A6017F0020F39
:1043500008D117F0040F0CD117F0080606D04FF45F
:10436000805608E0FFF7D0FF002604E0FFF7CFFFFC
:1043700001E04FF4006617F4807F0DD02B684FF4F6
:1043800080729A6017F4007F40F0968017F4806F77
:1043900000F0968046F4005617F4803F0DD02B684D
:1043A0004FF480329A6017F4003F40F0938017F486
:1043B000802F00F0938046F4004614F0080F07D0D9
:1043C0001AF0100F04D046F400762B681022DA6041
:1043D00014F0040F03D01AF0080F40F0898014F095
:1043E000020F05D02B68DB6813F0030F40F08780C5
:1043F00014F0400F07D019F0100F04D046F4806677
:104400002B6810221A6114F0200F02D019F0080F47
:1044100079D114F0100F04D02B681B6913F0030F2F
:1044200078D114F4003F02D018F0100F76D114F4B4
:10443000803F02D018F0080F77D114F4004F37D026
:1044400018F0040F31D014F4807F04D01BF0010F5A
:1044500001D046F0010614F4007F04D01BF0020FD7
:1044600001D046F0020614F4806F04D01BF0040F54
:1044700001D046F0040614F4006F16D01BF0700B48
:1044800013D0BBF1400F66D056D8BBF1200F5CD0E3
:10449000BBF1300F5CD0BBF1100F01D146F0080624
:1044A0002A68936923F0700393612B6804225A6091
:1044B000002E56D1BDE8F88F2846FFF726FF6BE7A0
:1044C00017F4006F02D046F4804665E72846FFF7F0
:1044D0001FFF61E72846FFF719FF6EE717F4002F6B
:1044E00002D046F4803668E72846FFF712FF64E7FB
:1044F0002B680822DA602846FFF70CFF6FE7284692
:10450000FFF73CF974E72B6808221A612846FFF789
:1045100003FF7EE72846FFF7FEFE82E72B681022A6
:104520005A602846FFF7F9FE81E72B6808225A6097
:104530002846FFF7F3FE80E7BBF1500F0ED0BBF12A
:10454000600FADD146F48076AAE746F01006A7E7E3
:1045500046F02006A4E746F04006A1E746F08006B4
:104560009EE76B6A33436B622846FFF7D8FEA1E7EC
:10457000002807DB00F01F02400901239340024A94
:1045800042F82030704700BF00E100E0002808DB5F
:104590000901C9B200F1604000F5614080F80013E4
:1045A000704700F00F000901C9B2014B1954704760
:1045B00014ED00E000B500F00700C0F1070CBCF1FD
:1045C000040F28BF4FF0040C031D062B0FD9C31E88
:1045D0004FF0FF3E0EFA0CF021EA000199400EFA6E
:1045E00003FE22EA0E0241EA02005DF804FB00230A
:1045F000EEE70000074AD36823F4E0631B041B0CBA
:10460000000200F4E060034343F0BF6343F400336F
:10461000D360704700ED00E010B50446054BD86844
:10462000C0F30220FFF7C6FF01462046FFF7AEFFAA
:1046300010BD00BF00ED00E008B5FFF799FF08BD11
:104640000138B0F1807F0BD24FF0E0235861054A6A
:10465000F02182F823100020986107221A61704728
:104660000120704700ED00E030B405682C6824F4A8
:1046700080242C60046863608368402B05D0036845
:1046800099600368DA6030BC704703689A60036819
:10469000D960F8E710B40368D9B21039094AA2FB0F
:1046A00001421209084CA25CC2655F2906D96FF36A
:1046B000090304338365806D10BC70476FF30903F1
:1046C0008365F8E7ABAAAAAA94180108836A8269ED
:1046D00092B9012B0AD0022B02D00BB100207047F7
:1046E000C36A13F0807F28D100207047C36AB3F1FA
:1046F000C07F24D000207047B2F5005F09D0022BA4
:1047000025D9032B25D1C36A13F0807F23D1002044
:104710007047032B03D8DFE803F01404140A0020C9
:104720007047C36A13F0807F0DD100207047C36AC1
:10473000B3F1C07F09D000207047012070470120ED
:104740007047012070470120704701207047012009
:1047500070470020704701207047000070B5044684
:10476000FFF71EFB002C5BD00546022384F8353092
:10477000002384F834302268136823F001031360A7
:1047800023681A6812F0010F0AD0FFF709FB431BD8
:10479000052BF5D920236365032084F8350070BD0F
:1047A0001A68204911406268A0680243E068024329
:1047B0002069024360690243A0690243E069024341
:1047C000206A02430A43616A04291ED01A602668DF
:1047D000756925F00705636A1D43042B07D1A36A99
:1047E0001D43E36A1BB12046FFF770FF90B9756166
:1047F0002046FFF74FFFE26D3F2393408360002088
:104800006065012384F83530C9E7E16A206B014314
:104810000A43DBE740236365012084F83500BEE7E7
:104820000120BCE73F8010F038B50446856D90F854
:10483000340001282AD0012084F8340094F835008F
:10484000012804D0002384F83430022038BD02202F
:1048500084F83500002060652046FFF705FFE26D13
:104860003F239340AB602268136843F01603136044
:10487000236C23B12268136843F008031360226895
:10488000136843F0010313600020DFE70220DDE737
:1048900070B50446866DFFF783FA94F83530022B25
:1048A00006D080236365002384F83430012070BD76
:1048B00005462268136823F01603136022685369C3
:1048C00023F080035361236CE3B12268136823F063
:1048D000080313602268136823F001031360236840
:1048E0001B6813F0010F11D0FFF75AFA431B052B79
:1048F000F5D920236365032084F83500002384F86C
:104900003430D4E7A36C002BDFD1E3E7E26D3F2323
:104910009340B360012384F83530002084F83400DC
:10492000C5E790F83530022B03D080234365012082
:104930007047052380F835300268136823F00103BF
:104940001360002070470000F0B583B004460023D8
:104950000193724B1D68724BA3FB0535AD0A876D41
:104960003E68C26D08239340334210D003681A6832
:1049700012F0040F0BD01A6822F004021A60C26D04
:1049800008239340BB60436D43F001034365E26D30
:1049900001239340334209D02268526912F0800FFC
:1049A00004D0BB60636D43F002036365E26D0423D2
:1049B0009340334209D02268126812F0020F04D0EB
:1049C000BB60636D43F004036365E26D10239340A5
:1049D000334224D02268126812F0080F1FD0BB6047
:1049E00023681A6812F4802F0DD01B6813F4002F6F
:1049F00004D1236C9BB12046984710E0A36C73B19F
:104A0000204698470BE01A6812F4807F03D11A6899
:104A100022F008021A60236C0BB120469847E26D21
:104A200020239340334254D02268126812F0100FB2
:104A30004FD0BB6094F83530052B0ED023681A6830
:104A400012F4802F33D01B6813F4002F2AD1636C2B
:104A5000002B3ED0204698473BE02268136823F0A5
:104A6000160313602268536923F080035361236C9B
:104A7000A3B12268136823F008031360E26D3F239B
:104A80009340BB60012384F83530002384F8343030
:104A9000236D002B3FD0204698473CE0A36C002BB1
:104AA000E7D1EBE7E36BA3B12046984711E01A6822
:104AB00012F4807F09D11A6822F010021A600123D3
:104AC00084F83530002384F83430E36B0BB1204692
:104AD0009847636DFBB1636D13F0010F17D0052389
:104AE00084F835302268136823F001031360019BBA
:104AF00001330193AB4204D823681B6813F0010F04
:104B0000F5D1012384F83530002384F83430E36C88
:104B10000BB12046984703B0F0BD00BF2400002031
:104B2000B5814E1B00230F2B00F2EC8030B583B013
:104B300068E085684FEA430E032404FA0EF425EA80
:104B40000405CC6804FA0EF42C438460446824EA1B
:104B500002044A68C2F300129A40224342605FE0B6
:104B6000DC08083450F8242003F00705AD004FF0AE
:104B70000F0E0EFA05FE22EA0E0E0A69AA4042EA5C
:104B80000E0240F824205FE0072200E0002202FA33
:104B90000EF22A4302345C4D45F824205B4A9468A7
:104BA0006FEA0C0224EA0C05D1F804E01EF4801F21
:104BB00001D04CEA0405554CA560E46802EA0405FE
:104BC000D1F804E01EF4001F01D04CEA04054F4C5C
:104BD000E560646802EA0405D1F804E01EF4003FD1
:104BE00001D04CEA0405494C6560246822404D68B8
:104BF00015F4803F01D04CEA0402444C226001339A
:104C00000F2B7DD801229A400C6804EA020C32EA8C
:104C10000404F4D14C6804F00304013C012C88D94D
:104C20004A6802F00302032A09D0C4685D00032227
:104C3000AA4024EA02048A68AA402243C2604A6861
:104C400002F00302022A8BD004684FEA430E0322CB
:104C500002FA0EF224EA02044A6802F0030202FA9F
:104C60000EF2224302604A6812F4403FC7D000228D
:104C70000192274A546C44F480445464526C02F408
:104C800080420192019A9C08A51C1F4A52F82550A7
:104C900003F0030E4FEA8E0E0F2202FA0EF225EAFF
:104CA00002051C4A90423FF471AF02F580629042C7
:104CB0001AD002F58062904218D002F580629042CC
:104CC00016D002F58062904214D002F580629042C4
:104CD00012D002F58062904210D002F580629042BC
:104CE0003FF452AF082252E7012250E702224EE77A
:104CF00003224CE704224AE7052248E7062246E75A
:104D000003B030BD704700BF00380140003C014097
:104D100000380240000002400369194201D001201E
:104D20007047002070470AB18161704709048161B2
:104D30007047436901EA030221EA030141EA0241A3
:104D40008161704708B5054B5B69034200D108BD1E
:104D5000024B5861FDF78CF9F9E700BF003C0140B8
:104D6000002800F0E08170B582B00446036813F0BB
:104D7000010F3BD09F4B9B6803F00C03042B2CD0FE
:104D80009C4B9B6803F00C03082B21D06368B3F5A0
:104D9000803F4FD0B3F5A02F52D0964B1A6822F423
:104DA00080321A601A6822F480221A606368002B2D
:104DB00050D0FEF7F5FF05468E4B1B6813F4003FFD
:104DC00014D1FEF7EDFF401B6428F5D90320B1E1B3
:104DD000884B5B6813F4800FD8D0864B1B6813F4A4
:104DE000003F03D06368002B00F09F81236813F01D
:104DF000020F54D07F4B9B6813F00C0F3ED07D4BBD
:104E00009B6803F00C03082B33D0E368002B68D0B9
:104E1000794B01221A60FEF7C3FF0546754B1B68EC
:104E200013F0020F54D1FEF7BBFF401B0228F5D947
:104E300003207FE16F4A136843F480331360B5E7C2
:104E40006C4B1A6842F480221A601A6842F480326D
:104E50001A60ABE7FEF7A4FF0546664B1B6813F428
:104E6000003FC3D0FEF79CFF401B6428F5D9032008
:104E700060E1604B5B6813F4800FC6D15D4B1B682B
:104E800013F0020F03D0E368012B40F05081594A20
:104E9000136823F0F803216943EAC1031360236810
:104EA00013F0080F42D063696BB3534B0122C3F870
:104EB000802EFEF775FF05464E4B5B6F13F0020F19
:104EC00034D1FEF76DFF401B0228F5D9032031E1F4
:104ED000484A136823F0F803216943EAC1031360C9
:104EE000DDE7454B00221A60FEF75AFF0546414BAD
:104EF0001B6813F0020FD2D0FEF752FF401B0228AE
:104F0000F5D9032016E13C4B0022C3F8802EFEF7B2
:104F100047FF0546374B5B6F13F0020F06D0FEF7D5
:104F20003FFF401B0228F5D9032003E1236813F05B
:104F3000040F77D02F4B1B6C13F0805F33D100230D
:104F400001932C4B1A6C42F080521A641B6C03F0D4
:104F500080530193019B0125284B1B6813F4807F2C
:104F600023D0A368012B34D0052B38D0214B1A6FE6
:104F700022F001021A671A6F22F004021A67A3686E
:104F8000002B3DD0FEF70CFF06461A4B1B6F13F0AB
:104F9000020F46D1FEF704FF801B41F2883398428E
:104FA000F3D90320C6E00025D6E7144A136843F47A
:104FB00080731360FEF7F4FE0646104B1B6813F473
:104FC000807FCED1FEF7ECFE801B0228F5D90320AE
:104FD000B0E0084A136F43F001031367CFE7054BB6
:104FE0001A6F42F004021A671A6F42F001021A6740
:104FF000C5E700BF00380240000047420070004093
:10500000FEF7CEFE0646524B1B6F13F0020F08D080
:10501000FEF7C6FE801B41F288339842F3D9032085
:1050200088E0EDB9A369002B00F08380484A9268BC
:1050300002F00C02082A51D0022B17D0454B002257
:105040001A66FEF7ADFE0446414B1B6813F0007F65
:1050500042D0FEF7A5FE001B0228F5D9032069E027
:105060003B4A136C23F080531364DBE7394B002277
:105070001A66FEF795FE0546354B1B6813F0007F58
:1050800006D0FEF78DFE401B0228F5D9032051E023
:10509000E369226A1343626A43EA8213A26A5208EE
:1050A000013A43EA0243E26A43EA0263284A536050
:1050B000284B01221A66FEF773FE0446244B1B6838
:1050C00013F0007F06D1FEF76BFE001B0228F5D916
:1050D00003202FE000202DE000202BE0012B2BD01F
:1050E0001B4B5B6803F48001E269914226D103F017
:1050F0003F02216A8A4223D1616A47F6C0721A4090
:10510000B2EB811F1ED103F44031A26A5208013A6A
:10511000B1EB024F18D103F07063E26AB3EB026F98
:1051200014D1002006E001207047012002E0012098
:1051300000E0002002B070BD0120FBE70120F9E78C
:105140000120F7E70120F5E70120F3E70120F1E76F
:10515000003802400000474208B5264B9B6803F028
:105160000C03042B41D0082B41D1224B5A6802F08A
:105170003F025B6813F4800F12D01E4B5968C1F3D5
:1051800088111D480023A1FB0001FBF701FF194B0B
:105190005B68C3F3014301335B00B0FBF3F008BD70
:1051A000144B5868C0F388104FEA401CBCEB000C4D
:1051B0006EEB0E0E4FEA8E1343EA9C634FEA8C119E
:1051C000B1EB0C0163EB0E03DB0043EA5173C90042
:1051D00011EB000C43F10003990200234FEA8C20ED
:1051E00041EA9C51FBF7D4FED1E70348D7E70348D7
:1051F000D5E700BF00380240001BB7000024F400D0
:10520000002800F09B8070B50D4604464F4B1B688C
:1052100003F007038B4208D2CBB24C4A13701368D9
:1052200003F007038B4240F08B80236813F0020FDA
:1052300017D013F0040F04D0454A936843F4E053A9
:105240009360236813F0080F04D0414A936843F435
:10525000604393603E4A936823F0F003A1680B43D8
:105260009360236813F0010F32D06368012B21D0C3
:105270009A1E012A25D9364A126812F0020F61D00F
:1052800033498A6822F0030213438B60FEF788FDDE
:1052900006462F4B9B6803F00C036268B3EB820F4A
:1052A00016D0FEF77DFD801B41F288339842F0D97D
:1052B000032042E0264A126812F4003FE0D10120A8
:1052C0003BE0234A126812F0007FD9D1012034E07C
:1052D0001E4B1B6803F00703AB4207D9EAB21B4B16
:1052E0001A701B6803F00703AB422DD1236813F03B
:1052F000040F06D0164A936823F4E053E1680B4389
:105300009360236813F0080F07D0114A936823F4C1
:105310006043216943EAC1039360FFF71DFF0C4B13
:105320009B68C3F303130B4AD35CD8400A4B186045
:105330000A4B1868FEF7E8FC002070BD012070479A
:105340000120FAE70120F8E70120F6E7003C0240DF
:10535000003802405C1801082400002034000020BE
:10536000014B1868704700BF2400002008B5FFF704
:10537000F7FF044B9B68C3F38223034AD35CD840F6
:1053800008BD00BF003802405418010808B5FFF7F7
:10539000E7FF044B9B68C3F34233034AD35CD84016
:1053A00008BD00BF00380240541801082DE9F0473D
:1053B00082B00546884617461E46FEF7F1FC0A9B5A
:1053C0001B1A03EB0609FEF7EBFC8246284B1B6811
:1053D000C3F3CB3309FB03F301932B689C6838EAD2
:1053E00004040CBF01230023BB423DD0B6F1FF3FB4
:1053F000F3D0FEF7D5FCA0EB0A00484507D2019A8E
:1054000002B14A46019B013B01939146E5E72A68B8
:10541000536823F0E00353606B68B3F5827F0BD0D1
:10542000AB6AB3F5005F14D0012385F85130002337
:1054300085F85030032018E0AB68B3F5004F02D078
:10544000B3F5806FECD12A68136823F04003136032
:10545000E6E72A68136823F4005313602A68136888
:1054600043F400531360DFE7002002B0BDE8F0878B
:105470002400002070B584B004460D461646009204
:105480000B4601220221FFF791FFD0B9174B1B6891
:10549000174AA2FB03235B0D4FF47A7202FB03F35E
:1054A00003936368B3F5827F11D0039B3BB1039BE9
:1054B000013B039323689B6813F0800FF5D104B080
:1054C00070BD636D43F0200363650320F7E700962A
:1054D0002B46002280212046FFF768FF0028EED0EF
:1054E000636D43F0200363650320E8E72400002098
:1054F000819F5E1600285AD010B50446436A33B91E
:105500004368B3F5827F05D00023C36102E0002326
:10551000036143610023A36294F85130002B40D013
:10552000022384F851302268136823F0400313608B
:10553000636803F48273A26802F404421343E268CE
:1055400002F400621343226902F00202134362690B
:1055500002F001021343A26902F400721343E269EC
:1055600002F038021343226A02F080021343A26A57
:1055700002F40052216813430B60638B03F00403B1
:10558000626A02F01002216813434B602268D369FB
:1055900023F40063D36100206065012384F8513057
:1055A00010BD84F850302046FDF74EFAB8E70120D0
:1055B00070472DE9F04383B00446884691461F4664
:1055C0000A9DFEF7EDFB064694F851306268012B08
:1055D0000BD0D9B2B2F5827F40F00481A368002BD2
:1055E00040F00481042940F00381B8F1000F00F07D
:1055F0000181B9F1000F00F0FF80002F00F0FE8064
:1056000094F85030012B00F0FB80012384F85030D7
:1056100094F85130042B02D0052384F85130002334
:105620006365C4F83890E787A787C4F83080E786B9
:10563000A7862364636423681A6812F0400F03D1BD
:105640001A6842F040021A60E368B3F5006F11D0A7
:1056500063680BB1012F0BD1226B236812781A7388
:10566000236B01332363E38E9BB2013B9BB2E38642
:10567000012771E063680BB1012F0BD1226B236806
:105680001288DA60236B02332363E38E9BB2013B03
:105690009BB2E38601271BE023689A6812F0010F92
:1056A0000ED0E28F92B25AB1DA68A36B1A80A36B64
:1056B0000233A363E38F9BB2013B9BB2E3870127D5
:1056C000FEF76EFB801BA84202D3B5F1FF3F1ED14F
:1056D000E38E9BB21BB9E38F9BB2002B62D0236891
:1056E0009A6812F0020FD7D0E28E92B2002AD3D07D
:1056F000002FD1D0226B1288DA60236B0233236330
:10570000E38E9BB2013B9BB2E3860027C4E70123F3
:1057100084F85130002384F85030032063E023687C
:105720009A6812F0010F0ED0E28F92B25AB1DA6885
:10573000A36B1A70A36B0133A363E38F9BB2013B8E
:105740009BB2E3870127FEF72BFB831BAB4202D3FF
:10575000B5F1FF3F1ED1EDB1E38E9BB213B9E38FDC
:105760009BB2FBB123689A6812F0020FD7D0E28E89
:1057700092B2002AD3D0002FD1D0226B12781A73A4
:10578000236B01332363E38E9BB2013B9BB2E38621
:105790000027C4E7012384F85130002384F85030F7
:1057A000032020E0324629462046FFF763FE90B9E9
:1057B000A36833B901932368DA6801929B68019367
:1057C000019B012384F85130002384F85030636D2D
:1057D0004BB1012007E020236365002384F850309B
:1057E000012000E0022003B0BDE8F0830220FAE7C8
:1057F0000220F8E70120F6E70120F4E70120F2E7B4
:105800000220F0E730B4036A026A22F00102026269
:105810004268846924F0730C0C6844EA0C0423F099
:10582000020C8B6843EA0C03114DA84203D005F526
:105830008065A84205D123F00803CD682B4323F0EF
:1058400004030B4DA84203D005F58065A84207D19B
:1058500022F440724D6945EA020C8A6942EA0C0260
:10586000426084614A684263036230BC704700BF93
:105870000000014030B4036A026A22F480720262BE
:105880004268C46924F0730C0C6844EA0C0523F4E4
:1058900000738C6843EA0423114CA04203D004F542
:1058A0008064A04206D123F40063CC6843EA042359
:1058B00023F480630A4CA04203D004F58064A04224
:1058C00007D122F440524C6942EA04128C6942EA40
:1058D00004124260C5614A68C263036230BC70470B
:1058E0000000014030B4036A026A22F4805202626E
:1058F0004468C26922F4E6420D6842EA052223F4B4
:1059000000538D6843EA0533094DA84203D005F5DD
:105910008065A84204D124F480444D6944EA85148A
:105920004460C2614A680264036230BC704700BFD1
:1059300000000140704700000368344A904212D0D2
:10594000B0F1804F0FD0A2F57C4290420BD002F50F
:105950008062904207D002F58062904203D002F547
:105960007842904203D123F070034A681343274AD8
:1059700090422AD0B0F1804F27D0A2F57C429042CD
:1059800023D002F5806290421FD002F580629042DF
:105990001BD002F57842904217D002F57052904227
:1059A00013D002F5806290420FD002F580629042DF
:1059B0000BD0A2F59832904207D002F58062904257
:1059C00003D002F58062904203D123F44073CA6889
:1059D000134323F080034A69134303608B68C36257
:1059E0000B688362094B984203D003F580639842A9
:1059F00001D10B69036301234361036913F0010FB4
:105A000003D0036923F001030361704700000140E4
:105A100040B310B5044690F83D30F3B1022384F84A
:105A20003D30214651F8040BFFF786FF012384F82F
:105A3000463084F83E3084F83F3084F8403084F8B3
:105A4000413084F8423084F8433084F8443084F89C
:105A5000453084F83D30002010BD80F83C30FDF723
:105A600059F9DBE70120704740B310B5044690F8C0
:105A70003D30F3B1022384F83D30214651F8040B48
:105A8000FFF75AFF012384F8463084F83E3084F84B
:105A90003F3084F8403084F8413084F8423084F854
:105AA000433084F8443084F8453084F83D30002099
:105AB00010BD80F83C30FFF73DFFDBE70120704769
:105AC00030B4036A026A22F01002026244688269FA
:105AD00022F4E6420D6842EA052223F020038D6895
:105AE00043EA0513114DA84203D005F58065A8428D
:105AF00006D123F08003CD6843EA051323F0400369
:105B00000A4DA84203D005F58065A84207D124F4C8
