:020000040800F2
:1000000000000220E91F00089D1C00089F1C00083A
:10001000A11C0008A31C0008A51C0008000000008B
:10002000000000000000000000000000A71C000805
:10003000A91C000800000000AB1C0008AD1C000853
:10004000392000083920000839200008392000082C
:10005000392000083920000839200008392000081C
:10006000392000083920000839200008392000080C
:10007000B51C000839200008392000083920000884
:1000800039200008392000083920000839200008EC
:10009000C51C000839200008392000083920000854
:1000A00039200008392000083920000839200008CC
:1000B00039200008392000083920000839200008BC
:1000C00039200008392000083920000839200008AC
:1000D00039200008D51C000839200008E51C00085C
:1000E000392000083920000839200008392000088C
:1000F000392000083920000839200008392000087C
:10010000392000083920000839200008392000086B
:10011000392000083920000839200008392000085B
:10012000392000083920000839200008392000084B
:10013000392000083920000839200008392000083B
:10014000F91C00083920000839200008392000086F
:100150003920000839200008091D0008392000084E
:10016000392000083920000839200008392000080B
:10017000392000083920000839200008000000005C
:080180003920000839200008B5
:1001C00081F0004102E000BF83F0004330B54FEA08
:1001D00041044FEA430594EA050F08BF90EA020F75
:1001E0001FBF54EA000C55EA020C7FEA645C7FEA08
:1001F000655C00F0E2804FEA5454D4EB5555B8BF2B
:100200006D420CDD2C4480EA020281EA030382EA9B
:10021000000083EA010180EA020281EA0303362D2D
:1002200088BF30BD11F0004F4FEA01314FF4801C00
:100230004CEA113102D0404261EB410113F0004F12
:100240004FEA03334CEA133302D0524263EB4303C9
:1002500094EA050F00F0A780A4F10104D5F1200E67
:100260000DDB02FA0EFC22FA05F2801841F10001C2
:1002700003FA0EF2801843FA05F359410EE0A5F196
:1002800020050EF1200E012A03FA0EFC28BF4CF0C7
:10029000020C43FA05F3C01851EBE37101F000457D
:1002A00007D54FF0000EDCF1000C7EEB00006EEB8A
:1002B0000101B1F5801F1BD3B1F5001F0CD3490814
:1002C0005FEA30004FEA3C0C04F101044FEA44526B
:1002D00012F5800F80F09A80BCF1004F08BF5FEAF2
:1002E000500C50F1000041EB045141EA050130BDD2
:1002F0005FEA4C0C404141EB0101013C28BFB1F5E4
:10030000801FE9D291F0000F04BF01460020B1FA2E
:1003100081F308BF2033A3F10B03B3F120020CDA01
:100320000C3208DD02F1140CC2F10C0201FA0CF0DF
:1003300021FA02F10CE002F11402D8BFC2F1200C44
:1003400001FA02F120FA0CFCDCBF41EA0C019040FA
:10035000E41AA2BF01EB0451294330BD6FEA040443
:100360001F3C1CDA0C340EDC04F11404C4F120022E
:1003700020FA04F001FA02F340EA030021FA04F340
:1003800045EA030130BDC4F10C04C4F1200220FA97
:1003900002F001FA04F340EA0300294630BD21FAD5
:1003A00004F0294630BD94F0000F83F4801306BF9B
:1003B00081F480110134013D4EE77FEA645C18BF8F
:1003C0007FEA655C29D094EA050F08BF90EA020F26
:1003D00005D054EA000C04BF1946104630BD91EA1E
:1003E000030F1EBF0021002030BD5FEA545C05D121
:1003F0004000494128BF41F0004130BD14F5800460
:100400003CBF01F5801130BD01F0004545F0FE41D3
:1004100041F470014FF0000030BD7FEA645C1ABF08
:10042000194610467FEA655C1CBF0B46024650EA3F
:10043000013406BF52EA033591EA030F41F400216B
:1004400030BD00BF90F0000F04BF0021704730B5F1
:100450004FF4806404F132044FF000054FF00001C6
:1004600050E700BF90F0000F04BF0021704730B587
:100470004FF4806404F1320410F0004548BF40425C
:100480004FF000013EE700BF42004FEAE2014FEAB1
:1004900031014FEA02701FBF12F07F4393F07F4F8C
:1004A00081F06051704732F07F4208BF704793F08F
:1004B0007F4F04BF41F40021704730B54FF46074A2
:1004C00001F0004521F000411CE700BF50EA0102A5
:1004D00008BF704730B54FF000050AE050EA01024E
:1004E00008BF704730B511F0004502D5404261EBBE
:1004F00041014FF4806404F132045FEA915C3FF4FF
:10050000D8AE4FF003025FEADC0C18BF03325FEA9B
:10051000DC0C18BF033202EBDC02C2F1200300FA4C
:1005200003FC20FA02F001FA03FE40EA0E0021FA71
:1005300002F11444BDE600BF70B54FF0FF0C4CF45F
:10054000E06C1CEA11541DBF1CEA135594EA0C0F11
:1005500095EA0C0F00F0DEF82C4481EA030621EA4C
:100560004C5123EA4C5350EA013518BF52EA033587
:1005700041F4801143F4801338D0A0FB02CE4FF039
:100580000005E1FB02E506F00042E0FB03E54FF069
:100590000006E1FB03569CF0000F18BF4EF0010E61
:1005A000A4F1FF04B6F5007F64F5407404D25FEA5D
:1005B0004E0E6D4146EB060642EAC62141EA555110
:1005C0004FEAC52040EA5E504FEACE2EB4F1FD0C52
:1005D00088BFBCF5E06F1ED8BEF1004F08BF5FEAD0
:1005E000500E50F1000041EB045170BD06F0004682
:1005F00046EA010140EA020081EA0301B4EB5C042F
:10060000C2BFD4EB0C0541EA045170BD41F4801126
:100610004FF0000E013C00F3AB8014F1360FDEBF4B
:10062000002001F0004170BDC4F10004203C35DA27
:100630000C341BDC04F11404C4F1200500FA05F3AA
:1006400020FA04F001FA05F240EA020001F000424B
:1006500021F0004110EBD37021FA04F642EB0601C1
:100660005EEA430E08BF20EAD37070BDC4F10C04EB
:10067000C4F1200500FA04F320FA05F001FA04F2AF
:1006800040EA020001F0004110EBD37041F100019B
:100690005EEA430E08BF20EAD37070BDC4F12005A6
:1006A00000FA05F24EEA020E20FA04F301FA05F20E
:1006B00043EA020321FA04F001F0004121FA04F2B6
:1006C00020EA020000EBD3705EEA430E08BF20EA86
:1006D000D37070BD94F0000F0FD101F000464000C0
:1006E00041EB010111F4801F08BF013CF7D041EA42
:1006F000060195F0000F18BF704703F00046520046
:1007000043EB030313F4801F08BF013DF7D043EA16
:100710000603704794EA0C0F0CEA135518BF95EACC
:100720000C0F0CD050EA410618BF52EA4306D1D153
:1007300081EA030101F000414FF0000070BD50EA72
:10074000410606BF1046194652EA430619D094EAFC
:100750000C0F02D150EA013613D195EA0C0F05D1E6
:1007600052EA03361CBF104619460AD181EA03013A
:1007700001F0004141F0FE4141F470014FF00000F2
:1007800070BD41F0FE4141F4780170BD70B54FF08D
:10079000FF0C4CF4E06C1CEA11541DBF1CEA13550D
:1007A00094EA0C0F95EA0C0F00F0A7F8A4EB0504EF
:1007B00081EA030E52EA03354FEA013100F08880E6
:1007C0004FEA03334FF0805545EA131343EA1263AF
:1007D0004FEA022245EA111545EA10654FEA002664
:1007E0000EF000419D4208BF964244F1FD0404F51D
:1007F000407402D25B084FEA3202B61A65EB030579
:100800005B084FEA32024FF480104FF4002CB6EB35
:10081000020E75EB030E22BFB61A754640EA0C00B5
:100820005B084FEA3202B6EB020E75EB030E22BFF5
:10083000B61A754640EA5C005B084FEA3202B6EB36
:10084000020E75EB030E22BFB61A754640EA9C00F5
:100850005B084FEA3202B6EB020E75EB030E22BFC5
:10086000B61A754640EADC0055EA060E18D04FEA83
:10087000051545EA16754FEA06164FEAC30343EA23
:1008800052734FEAC2025FEA1C1CC0D111F4801FF0
:100890000BD141EA00014FF000004FF0004CB6E7E9
:1008A00011F4801F04BF01430020B4F1FD0C88BF88
:1008B000BCF5E06F3FF6AFAEB5EB030C04BFB6EB93
:1008C000020C5FEA500C50F1000041EB045170BD86
:1008D0000EF0004E4EEA113114EB5C04C2BFD4EBB3
:1008E0000C0541EA045170BD41F480114FF0000E37
:1008F000013C90E645EA060E8DE60CEA135594EAB3
:100900000C0F08BF95EA0C0F3FF43BAF94EA0C0FB5
:100910000AD150EA01347FF434AF95EA0C0F7FF42A
:1009200025AF104619462CE795EA0C0F06D152EA7E
:1009300003353FF4FDAE1046194622E750EA410662
:1009400018BF52EA43067FF4C5AE50EA41047FF473
:100950000DAF52EA43057FF4EBAE12E780F00040A2
:1009600002E000BF81F0004142001FBF5FEA410387
:1009700092EA030F7FEA226C7FEA236C6AD04FEA87
:100980001262D2EB1363C1BFD218414048404140CC
:10099000B8BF5B42192B88BF704710F0004F40F47E
:1009A000000020F07F4018BF404211F0004F41F49A
:1009B000000121F07F4118BF494292EA030F3FD066
:1009C000A2F1010241FA03FC10EB0C00C3F1200379
:1009D00001FA03F100F0004302D5494260EB400008
:1009E000B0F5000F13D3B0F1807F06D340084FEA73
:1009F000310102F10102FE2A51D2B1F1004F40EB68
:100A0000C25008BF20F0010040EA030070474900CF
:100A100040EB0000013A28BFB0F5000FEDD2B0FA6C
:100A200080FCACF1080CB2EB0C0200FA0CF0AABF8F
:100A300000EBC25052421843BCBFD040184370472D
:100A400092F0000F81F4000106BF80F40000013233
:100A5000013BB5E74FEA41037FEA226C18BF7FEA0A
:100A6000236C21D092EA030F04D092F0000F08BF4C
:100A70000846704790EA010F1CBF0020704712F033
:100A80007F4F04D1400028BF40F00040704712F172
:100A900000723CBF00F50000704700F0004343F0D7
:100AA000FE4040F4000070477FEA226216BF08460D
:100AB0007FEA23630146420206BF5FEA412390EAD0
:100AC000010F40F4800070474FF0000304E000BFC6
:100AD00010F0004348BF40425FEA000C08BF704777
:100AE00043F0964301464FF000001CE050EA01023B
:100AF00008BF70474FF000030AE000BF50EA010250
:100B000008BF704711F0004302D5404261EB41013C
:100B10005FEA010C02BF84460146002043F0B64361
:100B200008BFA3F18053A3F50003BCFA8CF2083A86
:100B3000A3EBC25310DB01FA02FC634400FA02FC8F
:100B4000C2F12002BCF1004F20FA02F243EB020096
:100B500008BF20F00100704702F1200201FA02FCF8
:100B6000C2F1200250EA4C0021FA02F243EB0200EB
:100B700008BF20EADC7070474FF0FF0C1CEAD0522F
:100B80001EBF1CEAD15392EA0C0F93EA0C0F6FD0F0
:100B90001A4480EA010C400218BF5FEA41211ED0CE
:100BA0004FF0006343EA501043EA5111A0FB0131BA
:100BB0000CF00040B1F5000F3EBF490041EAD3718F
:100BC0005B0040EA010062F17F02FD2A1DD8B3F10B
:100BD000004F40EBC25008BF20F00100704790F07A
:100BE000000F0CF0004C08BF49024CEA502040EACC
:100BF00051207F3AC2BFD2F1FF0340EAC250704792
:100C000040F400004FF00003013A5DDC12F1190FCF
:100C1000DCBF00F000407047C2F10002410021FA41
:100C200002F1C2F1200200FA02FC5FEA310040F159
:100C3000000053EA4C0308BF20EADC70704792F0D2
:100C4000000F00F0004C02BF400010F4000F013A0A
:100C5000F9D040EA0C0093F0000F01F0004C02BF05
:100C6000490011F4000F013BF9D041EA0C018FE774
:100C70000CEAD15392EA0C0F18BF93EA0C0F0AD07A
:100C800030F0004C18BF31F0004CD8D180EA0100A0
:100C900000F00040704790F0000F17BF90F0004F39
:100CA000084691F0000F91F0004F14D092EA0C0F1B
:100CB00001D142020FD193EA0C0F03D14B0218BFAE
:100CC000084608D180EA010000F0004040F0FE40F4
:100CD00040F40000704740F0FE4040F44000704790
:100CE0004FF0FF0C1CEAD0521EBF1CEAD15392EA0F
:100CF0000C0F93EA0C0F69D0A2EB030280EA010CFF
:100D000049024FEA402037D04FF0805343EA111197
:100D100043EA10130CF000408B4238BF5B0042F1F5
:100D20007D024FF4000C8B4224BF5B1A40EA0C009A
:100D3000B3EB510F24BFA3EB510340EA5C00B3EBCC
:100D4000910F24BFA3EB910340EA9C00B3EBD10FBA
:100D500024BFA3EBD10340EADC001B0118BF5FEA0C
:100D60001C1CE0D1FD2A3FF650AF8B4240EBC25035
:100D700008BF20F0010070470CF0004C4CEA5020F6
:100D80007F32C2BFD2F1FF0340EAC250704740F445
:100D900000004FF00003013A37E792F0000F00F037
:100DA000004C02BF400010F4000F013AF9D040EAB5
:100DB0000C0093F0000F01F0004C02BF490011F449
:100DC000000F013BF9D041EA0C0195E70CEAD15341
:100DD00092EA0C0F08D142027FF47DAF93EA0C0F28
:100DE0007FF470AF084676E793EA0C0F04D14B020C
:100DF0003FF44CAF08466EE730F0004C18BF31F0BE
:100E0000004CCAD130F000427FF45CAF31F00043B7
:100E10007FF43CAF5FE700BF4FF0FF3C06E000BF50
:100E20004FF0010C02E000BF4FF0010C4DF804CD73
:100E30004FEA40024FEA41037FEA226C18BF7FEA83
:100E4000236C11D001B052EA530C18BF90EA010F85
:100E500058BFB2EB030088BFC81738BF6FEAE17014
:100E600018BF40F0010070477FEA226C02D15FEAB0
:100E7000402C05D17FEA236CE4D15FEA412CE1D01C
:100E80005DF8040B704700BF844608466146FFE7E3
:100E90000FB5FFF7C9FF002848BF10F1000F0FBDC5
:100EA0004DF808EDFFF7F4FF0CBF012000205DF8BE
:100EB00008FB00BF4DF808EDFFF7EAFF34BF012043
:100EC00000205DF808FB00BF4DF808EDFFF7E0FFDC
:100ED00094BF012000205DF808FB00BF4DF808ED2D
:100EE000FFF7D2FF94BF012000205DF808FB00BF90
:100EF0004DF808EDFFF7C8FF34BF012000205DF872
:100F000008FB00BF4FEA4002B2F1FE4F0FD34FF093
:100F10009E03B3EB12620DD94FEA002343F0004366
:100F200010F0004F23FA02F018BF404270474FF014
:100F30000000704712F1610F01D1420205D110F09B
:100F4000004008BF6FF0004070474FF0000070474E
:100F500053B94AB9002908BF00281CBF4FF0FF3120
:100F60004FF0FF3000F00CB8ADF1080C6DE904CE85
:100F700003F0F2F8DDF804E0DDE9022304B0704785
:100F8000704700BF000000000000000000000000EB
:100F90000000000000000000000000000000000051
:100FA0000000000000000000000000000000000041
:100FB0000000000000000000000000000000000031
:100FC00030B490F800F020F007016FF0000C10F042
:100FD000070491F820F040F048804FF000046FF0D3
:100FE0000700D1E9002391F840F000F1080082FAEF
:100FF0004CF2A4FA8CF283FA4CF3A2FA8CF34BBBBA
:10100000D1E9022382FA4CF200F10800A4FA8CF232
:1010100083FA4CF3A2FA8CF3E3B9D1E9042382FA00
:101020004CF200F10800A4FA8CF283FA4CF3A2FA15
:101030008CF37BB9D1E9062301F1200182FA4CF24D
:1010400000F10800A4FA8CF283FA4CF3A2FA8CF3B4
:10105000002BC6D0002A04BF04301A4612BAB2FAD6
:1010600082F200EBD20030BC7047D1E9002304F0DB
:101070000305C4F100004FEAC50514F0040F91F810
:1010800040F00CFA05F562EA05021CBF63EA0503AD
:1010900062464FF00004AAE70000000000000000D4
:1010A00001F0FF01102A2BDB10F0070F08D010F819
:1010B000013B013A8B422DD010F0070F42B3F6D11D
:1010C000F0B441EA012141EA014122F007047FF036
:1010D00000070023F0E80256083C85EA010586EA8D
:1010E000010685FA47F5A3FA87F586FA47F6A5FAC9
:1010F00087F68EB9EED1F0BC01F0FF0102F00702D5
:1011000032B110F8013B013A83EA010313B1F8D17F
:101110000020704701387047002D06BF3546033860
:10112000073815F0010F07D1013015F4807F02BF99
:10113000013015F4C03F0130F0BC0138704700BFEA
:10114000844641EA000313F003036DD1403A41D3D2
:1011500051F8043B40F8043B51F8043B40F8043B91
:1011600051F8043B40F8043B51F8043B40F8043B81
:1011700051F8043B40F8043B51F8043B40F8043B71
:1011800051F8043B40F8043B51F8043B40F8043B61
:1011900051F8043B40F8043B51F8043B40F8043B51
:1011A00051F8043B40F8043B51F8043B40F8043B41
:1011B00051F8043B40F8043B51F8043B40F8043B31
:1011C00051F8043B40F8043B51F8043B40F8043B21
:1011D000403ABDD2303211D351F8043B40F8043BC1
:1011E00051F8043B40F8043B51F8043B40F8043B01
:1011F00051F8043B40F8043B103AEDD20C3205D3D1
:1012000051F8043B40F8043B043AF9D2043208D0C8
:10121000D2071CBF11F8013B00F8013B01D30B883A
:1012200003806046704700BF082A13D38B078DD018
:1012300010F003038AD0C3F10403D21ADB071CBFEA
:1012400011F8013B00F8013B80D331F8023B20F854
:10125000023B7BE7043AD9D3013A11F8013B00F88D
:10126000013BF9D20B7803704B7843708B78837015
:10127000604670474FF0FF3C06E000BF4FF0010CA6
:1012800002E000BF4FF0010C4DF804CD4FEA410CD5
:101290007FEA6C5C4FEA430C18BF7FEA6C5C1BD0A2
:1012A00001B050EA410C0CBF52EA430C91EA030F23
:1012B00002BF90EA020F0020704710F1000F91EA80
:1012C000030F58BF994208BF90422CBFD8176FEA4E
:1012D000E37040F0010070474FEA410C7FEA6C5C1C
:1012E00002D150EA013C07D14FEA430C7FEA6C5C23
:1012F000D6D152EA033CD3D05DF8040B704700BF4F
:101300008446104662468C461946634600E000BF9C
:1013100001B5FFF7B7FF002848BF10F1000F01BD6E
:101320004DF808EDFFF7F4FF0CBF012000205DF839
:1013300008FB00BF4DF808EDFFF7EAFF34BF0120BE
:1013400000205DF808FB00BF4DF808EDFFF7E0FF57
:1013500094BF012000205DF808FB00BF4DF808EDA8
:10136000FFF7CEFF94BF012000205DF808FB00BF0F
:101370004DF808EDFFF7C4FF34BF012000205DF8F1
:1013800008FB00BF4FEA410C7FEA6C5C02D150EAD7
:10139000013C0AD14FEA430C7FEA6C5C02D152EA6D
:1013A000033C02D14FF0000070474FF0010070473E
:1013B0004FEA410212F5001215D211D56FF478737D
:1013C000B3EB625212D94FEAC12343F0004343EA20
:1013D000505311F0004F23FA02F018BF40427047FB
:1013E0004FF00000704750EA013005D111F0004085
:1013F00008BF6FF0004070474FF00000704700BF1B
:101400000348044B834202D0034B03B11847704793
:10141000E4060020E4060020000000000548064B1A
:101420001B1AD90F01EBA301491002D0034B03B1E2
:1014300018477047E4060020E40600200000000082
:1014400010B5064C237843B9FFF7DAFF044B13B10C
:101450000448AFF300800123237010BDE406002090
:1014600000000000F8B0000808B5054B1BB10549A5
:101470000548AFF30080BDE80840FFF7CFBF00BFCD
:1014800000000000E8060020F8B000082DE9F04157
:101490008AB04FF00108CDF8208000240694CDF8E2
:1014A0001C80009401940294039405940494204DAC
:1014B0006946284601F082F8284601F01DF902210C
:1014C000284601F071FA0E270997059769462846C4
:1014D00001F074F8284601F00FF90221284601F0C6
:1014E00063FACDF820800694CDF81C800094019416
:1014F00002940394059404940E4C6946204601F02E
:101500005DF8204601F0F8F80221204601F04CFA7F
:10151000099705976946204601F050F8204601F0EA
:10152000EBF80221204601F03FFA0AB0BDE8F08155
:101530002C0700200407002008B50D480D4B036060
:101540000323436000238360C3604FF410220261D1
:101550004FF400124261037643768376C3760377B5
:10156000437700F085FF00B908BD00F043F9FBE7C1
:101570002C0700200064004008B50D480D4B0360A7
:101580000323436000238360C3604FF41022026191
:101590004FF400124261037643768376C376037775
:1015A000437700F065FF00B908BD00F023F9FBE7C1
:1015B000040700200068004010B58AB0002305939E
:1015C000069307930893099303683D4A934204D016
:1015D0003C4A934234D00AB010BD3B4A13680133F1
:1015E0001360012B1FD000240194384B1A6B42F07A
:1015F00008021A631B6B03F008030193019B03238A
:1016000005930222069208930923099305A93048FD
:1016100001F0EAFD22462146142001F05FFB142070
:1016200001F06CFBD7E700230093284B1A6C42F0C3
:1016300000721A641B6C03F000730093009BD2E7E6
:1016400000230293214B1A6C42F080621A641B6CD7
:1016500003F080630293029B1B4A136801331360FB
:10166000012B20D000240494184B1A6B42F0020284
:101670001A631B6B03F002030493049B602305931E
:1016800002230693032308930923099305A911480C
:1016900001F0AAFD22462146402001F01FFB402018
:1016A00001F02CFB97E700230393084B1A6C42F0E0
:1016B00000721A641B6C03F000730393039BD1E761
:1016C000006400400068004000070020003802402D
:1016D000000C02400004024010B582B000240094C7
:1016E000124B1A6B42F400121A631A6B02F40012C6
:1016F0000092009A01941A6B42F480021A631B6BE9
:1017000003F480030193019B224621460C2001F043
:10171000E5FA0C2001F0F2FA22462146462001F0BB
:10172000DDFA462001F0EAFA02B010BD00380240AE
:1017300070B58AB005AD002405940694079408940A
:1017400009940094224B1A6B42F002021A631A6B3E
:1017500002F002020092009A01941A6B42F0010218
:101760001A631A6B02F001020192019A02941A6B39
:1017700042F008021A631A6B02F008020292029AFF
:1017800003941A6B42F004021A631A6B02F004020B
:101790000392039A04941A6B42F080021A631B6B43
:1017A00003F080030493049B0A4E22464FF4E05159
:1017B000304601F013FE4FF4E053059301230693E6
:1017C000079408942946304601F00EFD0AB070BD1A
:1017D00000380240001C02400268044B9A4200D0CC
:1017E0007047034B01221A70FAE700BF0010014056
:1017F0000000002072B6FEE700B595B0302200214F
:1018000008A802F07FFF03A80023039343608360CE
:10181000C36003610193254A116C41F0805111644A
:10182000126C02F080520192019A0293204A1168D0
:1018300041F480411160126802F480420292029ADF
:10184000012203920493052102F028F840BB0123F2
:1018500008934FF48033099302230E934FF48002D0
:101860000F9206221092A82211921293042313932E
:1018700008A801F0C3FDA8B90F2303930223049322
:10188000002305934FF4A05306934FF4805307931E
:10189000052103A802F002F830B915B05DF804FB89
:1018A000FFF7A8FFFFF7A6FFFFF7A4FF00380240ED
:1018B000007000402DE9F04FFBB000F099FDFFF7FC
:1018C0009BFFFFF735FFFFF707FFFFF735FE00F03F
:1018D00083FA00F09BFAFFF74FFEFFF7D7FD00F009
:1018E000E1FC00249F4DDFF880824FF08D47019787
:1018F0009E4E009623462A4641462DA800F04AF9FE
:101900000197009623462A46414620A800F042F956
:10191000DFF85C820197009623462A46414613A8C9
:1019200000F038F90197009623462A46414606A85A
:1019300000F030F9059404940394029402E0282006
:1019400000F082FD00F0B8FC0446002800F0898019
:10195000B0F90000FFF7BCF800F10048B4F902004C
:10196000FFF7B6F80646B4F90400FFF7B1F800F146
:101970000047B4F90600FFF7ABF805467D49384645
:10198000FFF7AEF907467B493046FFF7A9F906464F
:1019900078494046FFF7A4F9044676492846FFF700
:1019A0009FF9054627F000407349FFF783FA00B11D
:1019B000002726F000407049FFF77CFA00B10026AE
:1019C00024F000406C49FFF775FA00B1002425F0BF
:1019D00000406949FFF76EFA00B1002531463846EC
:1019E000FEF7C2FF80462146FEF7BEFF00F1004031
:1019F0006249FFF7C1F881464FF07E512846FEF755
:101A0000B3FF054601464846FFF7B6F8029039464F
:101A10003046FEF7A7FF06462146FEF7A3FF5749CB
:101A2000FFF7AAF801462846FFF7A6F803902146DB
:101A30004046FEF797FF00F100405049FFF79CF841
:101A400001462846FFF798F8049021463046FEF7F5
:101A50008BFF4A49FFF790F801462846FFF78CF8BC
:101A60000590002000F070FB0746012000F06CFBA1
:101A70000646022000F068FB0546032000F064FBE8
:101A80000446B7F90200FFF723F8024602992DA891
:101A900000F08CF88346B6F90200FFF719F8024609
:101AA000039920A800F082F88246B5F90200FFF7FA
:101AB0000FF80246049913A800F078F88046B4F9AC
:101AC0000200FFF705F80246059906A800F06EF837
:101AD00081465046FFF716FA0FFA80FA5846FFF78C
:101AE00011FA514600B200F0EBFA4846FFF70AFA45
:101AF0000FFA80F94046FFF705FA494600B200F0B8
:101B000001FB1F4A138801331BB21380022B7FF4A1
:101B100016AF134600221A804FF40061194801F0F5
:101B200063FC194B1B78012B7FF409AFB7F9022036
:101B3000B6F90230B5F90210B4F902003AAC0190DE
:101B400000911249204602F073FD0F4B00221A70DB
:101B50002046FFF735FA82B221460D4802F09AF886
:101B6000EDE600BF0AD7233C000090400060EA4643
:101B70000000604000002544CDCC4C3D00007A447C
:101B800054070020001C02400000002010B1000893
:101B900064080020016042608360009BC360019B79
:101BA00003610023C3610362836270472DE9F84338
:101BB0000446084611466061A261D4F81C80C4F84E
:101BC0002080FEF7CFFE0546E0612168FEF7D4FFD6
:101BD00007466062A66A61682846FEF7CDFF0146A7
:101BE0003046FEF7C1FE0646A062D4F80890414692
:101BF0002846FEF7B7FE01464846FEF7BDFF0546FC
:101C0000E062D4F80C8008F1004949463046FFF7FD
:101C100051F9B0B1C4F82890A16A3846FEF7A4FE85
:101C200001462846FEF7A0FE05462063266906F118
:101C300000473946FFF73EF960B12763206BBDE8E6
:101C4000F88341463046FFF753F90028E4D0C4F842
:101C50002880E1E731462846FFF74AF90028EDD011
:101C60002663EBE782B0002100910B4B5A6C42F4E3
:101C700080425A645A6C02F480420092009A0191A8
:101C80001A6C42F080521A641B6C03F0805301936B
:101C9000019B02B0704700BF00380240FEE7FEE73C
:101CA000FEE7FEE7FEE770477047704708B500F0B3
:101CB000B9FB08BD08B5024801F0A8F908BD00BF8E
:101CC0005C07002008B5024800F08CFE08BD00BF8C
:101CD0002C07002008B5024802F0FCF808BD00BF40
:101CE0006408002008B5034802F0F4F800F0E8FAB0
:101CF00008BD00BF1C08002008B5024800F072FEB5
:101D000008BD00BF0407002008B5024801F07EF9B5
:101D100008BD00BFBC0700200120704708B502F0D5
:101D200093FD162303604FF0FF3008BD08B54FF058
:101D3000FF31FFF7F3FFFEE770B50C4616460025AE
:101D400006E0AFF30080214601F8010B01350C4697
:101D5000B542F6DB304670BD70B50C461646002520
:101D600004E014F8010BAFF300800135B542F8DB55
:101D7000304670BD4FF0FF3070474FF400534B605A
:101D800000207047012070470020704710B50346BF
:101D90000C4A0D490D48006840B10C4800680344E6
:101DA000521A934206D8094A136010BD0748084CDE
:101DB0000460F2E702F048FD0C2303604FF0FF30AF
:101DC000F3E700BF000002200004000058070020D5
:101DD000900C00207047000008B50A480A4B0360C9
:101DE0004FF4E133436000238360C36003610C223E
:101DF00042618361C36101F01DFF00B908BDFFF7B7
:101E0000F9FCFBE7640800200010014008B50A480F
:101E10000A4B03600A4B436000238360C360036185
:101E20000C2242618361C36101F004FF00B908BD67
:101E3000FFF7E0FCFBE700BF1C0800200048004063
:101E4000A08601002DE9F0438BB0044600230593E2
:101E500006930793089309930368594A934205D060
:101E6000584A934263D00BB0BDE8F083002500953B
:101E7000554B5A6C42F010025A645A6C02F0100230
:101E80000092009A01951A6B42F002021A631A6BD3
:101E900002F002020192019A02951A6B42F00102CD
:101EA0001A631B6B03F001030293029B80230593CB
:101EB0004FF00209CDF818904FF00308CDF82080BC
:101EC0000727099705AE3146404801F08DF94FF4D8
:101ED00000730593CDF818900795CDF820800997E9
:101EE00031463B4801F080F93A483B4B03604FF0E4
:101EF0000063436040238360C5604FF480630361E7
:101F000045618561C5610562456200F089FF58B988
:101F1000304BA3639C6300221146252000F0DEFEB7
:101F2000252000F0EBFE9EE7FFF764FCF0E70025BC
:101F30000395254B1A6C42F480221A641A6C02F441
:101F400080220392039A04951A6B42F004021A63EA
:101F50001B6B03F004030493049B4FF4406305934D
:101F600002230693032308930723099305A91B481B
:101F700001F03AF91A481B4B03604FF000634360CD
:101F80008560C5604FF480630361456185614FF4EE
:101F90008073C3614FF400330362456200F040FF79
:101FA00058B90F4BE3639C6300221146272000F0D1
:101FB00095FE272000F0A2FE55E7FFF71BFCF0E797
:101FC0000010014000480040003802400004024078
:101FD00000000240BC070020B86402400008024034
:101FE0005C07002028600240DFF834D0FFF7F2FEE3
:101FF0000C480D490D4A002302E0D458C450043364
:10200000C4188C42F9D30A4A0A4C002301E0136039
:102010000432A242FBD302F01DFCFFF74BFC7047D9
:102020000000022000000020E406002040B5000867
:10203000E4060020900C0020FEE7000000B58BB005
:1020400001AB03AA002100F0FAFB039BA3F20122DB
:10205000062A2DD8013BDBB2174A1370174903EB50
:1020600083004200881831F902C0A0F808C09DF82A
:1020700004E09DF805C04CEA0E2C21F802C09DF842
:102080000620120212B29DF807C042EA0C024280FA
:102090009DF80820120212B29DF809C042EA0C0213
:1020A00082809DF80A0003EB83035A008B18987115
:1020B0000BB05DF804FB00BFAC080020D008002086
:1020C00000B583B00B460C494FF400720A60002241
:1020D0008A60CA6008220A61084A4FEA202C82F806
:1020E00000C0507018129070D37001AB044800F01B
:1020F00031FB03B05DF804FBB8080020B0080020F5
:102100002C07002000B583B00B460C494FF4007239
:102110000A6000228A60CA6008220A61084A4FEAFF
:10212000202C82F804C0507118129071D37101AB49
:10213000044800F00FFB03B05DF804FBB808002072
:10214000B00800200407002000F0030000EB80002E
:10215000014B03EB40007047D008002010B4164B31
:102160001B685C6944F040045C61DC6844F0100466
:10217000DC60124B1C68236823F00103236003E03A
:102180001C6824F001041C600C4B1B681C6814F0D4
:10219000010FF5D10A4C9C60D86019615A601A6829
:1021A00042F480221A60054B1A68136843F0010359
:1021B000136010BC704700BF1C0800205C070020A3
:1021C0000448004000286BD00346002968D030B591
:1021D0000478427844EA0224C4F30A040C8042786A
:1021E00090F802E04FEA4E1E4EEAD20ECEF30A0EEF
:1021F000A1F802E08078DA78920042EA9012187929
:1022000042EA8022C2F30A028A801D795879C0010D
:1022100040EA5500C0F30A00C88093F805C0CCF32B
:10222000011C81F80AC093F805C04FEA9C1C81F894
:102230000BC093F806C0DD794CEA052CA1F80CC060
:1022400093F808C05D7A4CEA052CA1F80EC093F80B
:102250000AC0DD7A4CEA052CA1F810C01D7B8D74F4
:102260005D7BCD7493F80EC0DD7B4CEA052CA1F8A4
:1022700014C093F810C05B7C4CEA03230B81A4F5D7
:1022800080640C80AEF5806EA1F802E0A2F5806259
:102290008A80A0F58060C880A3F580630B8130BD83
:1022A0007047000008B503492422A1F12400FFF77C
:1022B00055FF08BD3C090020004870476009002018
:1022C00000B583B02F4B1B681A6812F0200F09D09D
:1022D000002200921A6800925B680093009B03B092
:1022E0005DF804FB284A126812F0100FF7D00022A4
:1022F00001921A6801925B680193019B234B1B6852
:102300001A6812F4002F1DD11A6822F001021A6017
:102310001E4802685368C3F124039BB21C490B801A
:1023200024215160116841F40021116001680A689C
:1023300042F001020A60122BD1D116491648FFF76C
:1023400041FFCCE71A6822F001021A600F490A68BF
:102350005368C3F124039BB20D48038024205060CE
:102360000E48826A22F40022826209680A6842F0FA
:1023700001020A60122BB2D106490948FFF722FF79
:10238000ADE700BF1C080020004800405C070020AB
:102390001609002060090020180900200060024092
:1023A0003C09002010B504460E4B1A784FF47A739E
:1023B000B3FBF2F30C4A1068B0FBF3F000F0A2FCA0
:1023C00068B90F2C01D901200AE0002221464FF004
:1023D000FF3000F083FC054B1C60002000E0012072
:1023E00010BD00BF08000020040000200C000020E9
:1023F00008B50B4B1A6842F400721A601A6842F46E
:1024000080621A601A6842F480721A60032000F039
:1024100053FC0F20FFF7C6FFFFF724FC002008BD88
:10242000003C0240034A1168034B1B780B441360C5
:10243000704700BF7809002008000020014B186891
:10244000704700BF7809002038B50446FFF7F6FF53
:102450000546B4F1FF3F02D0044B1B781C44FFF744
:10246000EDFF401BA042FAD338BD00BF080000209A
:10247000002800F0A18038B5044690F82030D3B190
:102480002268136843F001031360FFF7D7FF054686
:1024900023685A6812F0010F10D1FFF7CFFF401BDD
:1024A0000A28F5D9636A43F400336362052384F88C
:1024B0002030012038BDFFF77FF8E1E71A6822F0ED
:1024C00002021A60FFF7BAFF054623685A6812F045
:1024D000020F0DD0FFF7B2FF401B0A28F5D9636A3F
:1024E00043F400336362052384F820300120E1E7E0
:1024F000227E012A3DD01A6822F080021A60637E93
:10250000012B3BD02268136823F040031360A37EA5
:10251000012B39D02268136823F020031360E37E77
:10252000012B37D02268136843F010031360237F18
:10253000012B35D02268136823F008031360637FF2
:10254000012B33D02268136823F004031360A368BF
:10255000E268134322691343626913436268013AD4
:1025600021681343CB6100206062012384F820308E
:10257000A0E71A6842F080021A60C0E72268136878
:1025800043F040031360C2E72268136843F020035E
:102590001360C4E72268136823F010031360C6E7D2
:1025A0002268136843F008031360C8E722681368C1
:1025B00043F004031360CAE70120704790F820300D
:1025C000013BDBB2012B05D9436A43F4802343620C
:1025D0000120704710B5474BD3F8002242F00102AA
:1025E000C3F80022D3F8002222F47C52C3F8002260
:1025F000D3F80022486A42EA0022C3F800224A695E
:1026000002F01F02012000FA02F2D3F81C026FEA66
:10261000020C20EA0200C3F81C02CB69CBB9354B8F
:10262000D3F80C020CEA0000C3F80C028C8848694D
:10263000D1F80CE044EA0E44483043F830408C684E
:10264000088840EA04404C6904F1480E03EBCE03CD
:102650005860CB69012B1ED08B69002B35D12548E2
:10266000D0F804320CEA0303C0F804320B699BBBB8
:102670002048D0F814320CEA0303C0F814320B6A75
:10268000012B30D01B4AD2F8003223F00103C2F8EC
:102690000032002010BD174BD3F80C021043C3F8D2
:1026A0000C028C884869D1F800E044EA0E444830B6
:1026B00043F8304088894C69D1F808E040EA0E4080
:1026C000483403EBC4035860C6E70A48D0F8043224
:1026D0001343C0F80432C9E70648D0F81432134354
:1026E000C0F81432CBE70349D1F81C321343C1F8C8
:1026F0001C32C7E70064004070B5044690F82030F3
:10270000012B06D0436A43F400234362012630467E
:1027100070BDDEB2022380F820300268136823F017
:1027200001031360FFF78AFE054623685B6813F018
:10273000010F0CD0FFF782FE431B0A2BF5D9636A09
:1027400043F400336362052384F82030DFE700267A
:102750006662DCE730B590F820C00468A4680CF12C
:10276000FF3C5FFA8CFCBCF1010F62D814F0E05F13
:1027700059D0C4F3016C012404FA0CF41C608B687A
:10278000002B3DD10D68CB68046843EA45550CF138
:1027900018031B01E55003680C690CF1180E03EBDC
:1027A0000E135C600B7D012B35D0D17993791B041E
:1027B00043EA0163517943EA012314790168234311
:1027C00001EB0C11C1F88C31D17893781B0443EAEA
:1027D0000163517843EA0123117802680B4302EB4D
:1027E0000C12C2F8883102680CF1180C4FEA0C1C6C
:1027F00052F80C3043F0010342F80C3000201DE089
:102800004C6843EAC403CC6823430CF11804240148
:1028100005682B51BFE7036803EB0E13596841F4B9
:1028200080715960C1E7436A43F400134362012099
:1028300004E0436A43F480234362012030BD90F8F2
:1028400020C00CF1FF3C5FFA8CFCBCF1010F00F2E0
:10285000A58030B451B90468E46814F0030F10D1B6
:10286000436A43F40013436201207EE00468246954
:1028700014F0030F05D1436A43F4001343620120AF
:1028800073E0056801F11B0424012C5904F00404D1
:102890009460002C6BD1056801F11B0424012C59B4
:1028A000640D1460046801F11B0C4FEA0C1C54F811
:1028B0000C4004F00204D4600468A444DCF8045022
:1028C00015F0080F5BD008241461046801F11B0C9B
:1028D00004EB0C146468C4F307249461046804EBEB
:1028E0000C146468240C5461026802EB0112D2F8E3
:1028F000B8211A70026802EB0112D2F8B821C2F3B3
:1029000007225A70026802EB0112D2F8B821C2F312
:1029100007429A70026802EB0112D2F8B821120E37
:10292000DA70026802EB0112D2F8BC211A71026857
:1029300002EB0112D2F8BC21C2F307225A710268DD
:1029400002EB0112D2F8BC21C2F307429A7102686D
:1029500002EB0112D2F8BC21120EDA71C1B9026881
:10296000D36843F02003D360002030BC7047056873
:1029700001F11B0424012C59E408546092E701F191
:102980001B0504EB0514646804F00F0414619CE754
:102990000268136943F020031361E5E7436A43F4D7
:1029A000802343620120704790F82030013BDBB266
:1029B000012B05D9436A43F4802343620120704709
:1029C000026853690B43536100207047704770479A
:1029D000704770477047704770477047704770473F
:1029E000704770472DE9F84F054603685C69D3F8D6
:1029F00004809F68D3F80CA0D3F81090D3F818B0D7
:102A000014F001063BD017F0010616D001229A609F
:102A100017F0020F08D117F0040F0CD117F00806B9
:102A200006D04FF4805608E0FFF7D0FF002604E000
:102A3000FFF7CFFF01E04FF4006617F4807F0DD061
:102A40002B684FF480729A6017F4007F40F09680F4
:102A500017F4806F00F0968046F4005617F4803F1C
:102A60000DD02B684FF480329A6017F4003F40F08D
:102A7000938017F4802F00F0938046F4004614F002
:102A8000080F07D01AF0100F04D046F400762B6818
:102A90001022DA6014F0040F03D01AF0080F40F08F
:102AA000898014F0020F05D02B68DB6813F0030F48
:102AB00040F0878014F0400F07D019F0100F04D0B9
:102AC00046F480662B6810221A6114F0200F02D0A1
:102AD00019F0080F79D114F0100F04D02B681B697E
:102AE00013F0030F78D114F4003F02D018F0100F48
:102AF00076D114F4803F02D018F0080F77D114F487
:102B0000004F37D018F0040F31D014F4807F04D078
:102B10001BF0010F01D046F0010614F4007F04D031
:102B20001BF0020F01D046F0020614F4806F04D0AF
:102B30001BF0040F01D046F0040614F4006F16D009
:102B40001BF0700B13D0BBF1400F66D056D8BBF111
:102B5000200F5CD0BBF1300F5CD0BBF1100F01D166
:102B600046F008062A68936923F0700393612B6886
:102B700004225A60002E56D1BDE8F88F2846FFF790
:102B800026FF6BE717F4006F02D046F4804665E736
:102B90002846FFF71FFF61E72846FFF719FF6EE79A
:102BA00017F4002F02D046F4803668E72846FFF776
:102BB00012FF64E72B680822DA602846FFF70CFF53
:102BC0006FE72846FFF73AFA74E72B6808221A6184
:102BD0002846FFF703FF7EE72846FFF7FEFE82E761
:102BE0002B6810225A602846FFF7F9FE81E72B6810
:102BF00008225A602846FFF7F3FE80E7BBF1500F2A
:102C00000ED0BBF1600FADD146F48076AAE746F056
:102C10001006A7E746F02006A4E746F04006A1E725
:102C200046F080069EE76B6A33436B622846FFF7E7
:102C3000D8FEA1E7002807DB00F01F0240090123AE
:102C40009340024A42F82030704700BF00E100E0A4
:102C5000002808DB0901C9B200F1604000F56140BD
:102C600080F80013704700F00F000901C9B2014B52
:102C70001954704714ED00E000B500F00700C0F1F2
:102C8000070CBCF1040F28BF4FF0040C031D062BEA
:102C90000FD9C31E4FF0FF3E0EFA0CF021EA0001DF
:102CA00099400EFA03FE22EA0E0241EA02005DF8A4
:102CB00004FB0023EEE70000074AD36823F4E06337
:102CC0001B041B0C000200F4E060034343F0BF63ED
:102CD00043F40033D360704700ED00E010B50446C4
:102CE000054BD868C0F30220FFF7C6FF0146204617
:102CF000FFF7AEFF10BD00BF00ED00E008B5FFF725
:102D000099FF08BD0138B0F1807F0BD24FF0E0236E
:102D10005861054AF02182F82310002098610722AB
:102D20001A6170470120704700ED00E030B405687B
:102D30002C6824F480242C60046863608368402B32
:102D400005D0036899600368DA6030BC7047036897
:102D50009A600368D960F8E710B40368D9B21039F3
:102D6000094AA2FB01421209084CA25CC2655F2914
:102D700006D96FF3090304338365806D10BC704777
:102D80006FF309038365F8E7ABAAAAAAE0B20008CB
:102D9000836A826992B9012B0AD0022B02D00BB14F
:102DA00000207047C36A13F0807F28D1002070474D
:102DB000C36AB3F1C07F24D000207047B2F5005F32
:102DC00009D0022B25D9032B25D1C36A13F0807FAC
:102DD00023D100207047032B03D8DFE803F014044D
:102DE000140A00207047C36A13F0807F0DD10020C1
:102DF0007047C36AB3F1C07F09D00020704701203B
:102E00007047012070470120704701207047012062
:102E10007047012070470020704701207047000074
:102E200070B50446FFF70AFB002C5BD00546022371
:102E300084F83530002384F834302268136823F096
:102E40000103136023681A6812F0010F0AD0FFF71C
:102E5000F5FA431B052BF5D920236365032084F87D
:102E6000350070BD1A68204911406268A0680243AD
:102E7000E06802432069024360690243A06902439B
:102E8000E0690243206A02430A43616A04291ED0B2
:102E90001A602668756925F00705636A1D43042BCF
:102EA00007D1A36A1D43E36A1BB12046FFF770FFF9
:102EB00090B975612046FFF74FFFE26D3F239340C5
:102EC000836000206065012384F83530C9E7E16A3A
:102ED000206B01430A43DBE740236365012084F84C
:102EE0003500BEE70120BCE73F8010F038B504464E
:102EF000856D90F8340001282AD0012084F8340030
:102F000094F83500012804D0002384F834300220DE
:102F100038BD022084F83500002060652046FFF7A8
:102F200005FFE26D3F239340AB602268136843F0D6
:102F300016031360236C23B12268136843F008035F
:102F400013602268136843F0010313600020DFE779
:102F50000220DDE770B50446866DFFF76FFA94F83E
:102F60003530022B06D080236365002384F834308B
:102F7000012070BD05462268136823F01603136014
:102F80002268536923F080035361236CE3B1226804
:102F9000136823F0080313602268136823F0010309
:102FA000136023681B6813F0010F11D0FFF746FA76
:102FB000431B052BF5D920236365032084F83500D6
:102FC000002384F83430D4E7A36C002BDFD1E3E78F
:102FD000E26D3F239340B360012384F83530002035
:102FE00084F83400C5E790F83530022B03D08023F5
:102FF000436501207047052380F835300268136867
:1030000023F001031360002070470000F0B583B087
:10301000044600230193724B1D68724BA3FB0535D8
:10302000AD0A876D3E68C26D08239340334210D0CD
:1030300003681A6812F0040F0BD01A6822F0040219
:103040001A60C26D08239340BB60436D43F00103D7
:103050004365E26D01239340334209D022685269EF
:1030600012F0800F04D0BB60636D43F00203636510
:10307000E26D04239340334209D02268126812F0B3
:10308000020F04D0BB60636D43F004036365E26D1F
:1030900010239340334224D02268126812F0080FA4
:1030A0001FD0BB6023681A6812F4802F0DD01B68F4
:1030B00013F4002F04D1236C9BB12046984710E0F5
:1030C000A36C73B1204698470BE01A6812F4807F16
:1030D00003D11A6822F008021A60236C0BB1204653
:1030E0009847E26D20239340334254D022681268FF
:1030F00012F0100F4FD0BB6094F83530052B0ED076
:1031000023681A6812F4802F33D01B6813F4002F41
:103110002AD1636C002B3ED0204698473BE02268C2
:10312000136823F0160313602268536923F08003A9
:103130005361236CA3B12268136823F00803136062
:10314000E26D3F239340BB60012384F835300023B8
:1031500084F83430236D002B3FD0204698473CE064
:10316000A36C002BE7D1EBE7E36BA3B120469847B4
:1031700011E01A6812F4807F09D11A6822F0100257
:103180001A60012384F83530002384F83430E36B6F
:103190000BB120469847636DFBB1636D13F0010FCF
:1031A00017D0052384F835302268136823F0010313
:1031B0001360019B01330193AB4204D823681B6861
:1031C00013F0010FF5D1012384F83530002384F882
:1031D0003430E36C0BB12046984703B0F0BD00BF1C
:1031E00004000020B5814E1B00230F2B00F2EC8061
:1031F00030B583B068E085684FEA430E032404FAD3
:103200000EF425EA0405CC6804FA0EF42C4384601D
:10321000446824EA02044A68C2F300129A40224336
:1032200042605FE0DC08083450F8242003F0070512
:10323000AD004FF00F0E0EFA05FE22EA0E0E0A69DF
:10324000AA4042EA0E0240F824205FE0072200E094
:10325000002202FA0EF22A4302345C4D45F8242083
:103260005B4A94686FEA0C0224EA0C05D1F804E08A
:103270001EF4801F01D04CEA0405554CA560E4689B
:1032800002EA0405D1F804E01EF4001F01D04CEA64
:1032900004054F4CE560646802EA0405D1F804E0D7
:1032A0001EF4003F01D04CEA0405494C65602468D7
:1032B00022404D6815F4803F01D04CEA0402444C92
:1032C000226001330F2B7DD801229A400C6804EA5A
:1032D000020C32EA0404F4D14C6804F00304013C0B
:1032E000012C88D94A6802F00302032A09D0C46875
:1032F0005D000322AA4024EA02048A68AA4022430D
:10330000C2604A6802F00302022A8BD004684FEAC6
:10331000430E032202FA0EF224EA02044A6802F083
:10332000030202FA0EF2224302604A6812F4403F9E
:10333000C7D000220192274A546C44F4804454645C
:10334000526C02F480420192019A9C08A51C1F4A0B
:1033500052F8255003F0030E4FEA8E0E0F2202FAA8
:103360000EF225EA02051C4A90423FF471AF02F5C5
:10337000806290421AD002F58062904218D002F525
:103380008062904216D002F58062904214D002F51D
:103390008062904212D002F58062904210D002F515
:1033A000806290423FF452AF082252E7012250E778
:1033B00002224EE703224CE704224AE7052248E7AF
:1033C000062246E703B030BD704700BF0038014019
:1033D000003C014000380240000002400AB1816117
:1033E0007047090481617047436901EA030221EAD9
:1033F000030141EA0241816170470000002800F0AA
:10340000E08170B582B00446036813F0010F3BD031
:103410009F4B9B6803F00C03042B2CD09C4B9B68A8
:1034200003F00C03082B21D06368B3F5803F4FD025
:10343000B3F5A02F52D0964B1A6822F480321A604E
:103440001A6822F480221A606368002B50D0FEF7BD
:10345000F5FF05468E4B1B6813F4003F14D1FEF7B1
:10346000EDFF401B6428F5D90320B1E1884B5B6870
:1034700013F4800FD8D0864B1B6813F4003F03D0A1
:103480006368002B00F09F81236813F0020F54D073
:103490007F4B9B6813F00C0F3ED07D4B9B6803F075
:1034A0000C03082B33D0E368002B68D0794B012242
:1034B0001A60FEF7C3FF0546754B1B6813F0020F39
:1034C00054D1FEF7BBFF401B0228F5D903207FE152
:1034D0006F4A136843F480331360B5E76C4B1A6886
:1034E00042F480221A601A6842F480321A60ABE714
:1034F000FEF7A4FF0546664B1B6813F4003FC3D0DC
:10350000FEF79CFF401B6428F5D9032060E1604B67
:103510005B6813F4800FC6D15D4B1B6813F0020F7C
:1035200003D0E368012B40F05081594A136823F01F
:10353000F803216943EAC1031360236813F0080FFD
:1035400042D063696BB3534B0122C3F8802EFEF760
:1035500075FF05464E4B5B6F13F0020F34D1FEF73B
:103560006DFF401B0228F5D9032031E1484A13685A
:1035700023F0F803216943EAC1031360DDE7454BFB
:1035800000221A60FEF75AFF0546414B1B6813F0F4
:10359000020FD2D0FEF752FF401B0228F5D90320BC
:1035A00016E13C4B0022C3F8802EFEF747FF05468C
:1035B000374B5B6F13F0020F06D0FEF73FFF401B47
:1035C0000228F5D9032003E1236813F0040F77D014
:1035D0002F4B1B6C13F0805F33D1002301932C4BD6
:1035E0001A6C42F080521A641B6C03F080530193F2
:1035F000019B0125284B1B6813F4807F23D0A3680F
:10360000012B34D0052B38D0214B1A6F22F0010248
:103610001A671A6F22F004021A67A368002B3DD0C4
:10362000FEF70CFF06461A4B1B6F13F0020F46D134
:10363000FEF704FF801B41F288339842F3D9032040
:10364000C6E00025D6E7144A136843F4807313607C
:10365000FEF7F4FE0646104B1B6813F4807FCED1B4
:10366000FEF7ECFE801B0228F5D90320B0E0084AE3
:10367000136F43F001031367CFE7054B1A6F42F056
:1036800004021A671A6F42F001021A67C5E700BF09
:10369000003802400000474200700040FEF7CEFEB6
:1036A0000646524B1B6F13F0020F08D0FEF7C6FE02
:1036B000801B41F288339842F3D9032088E0EDB9AA
:1036C000A369002B00F08380484A926802F00C0244
:1036D000082A51D0022B17D0454B00221A66FEF75C
:1036E000ADFE0446414B1B6813F0007F42D0FEF74D
:1036F000A5FE001B0228F5D9032069E03B4A136CA4
:1037000023F080531364DBE7394B00221A66FEF77F
:1037100095FE0546354B1B6813F0007F06D0FEF77B
:103720008DFE401B0228F5D9032051E0E369226A8F
:103730001343626A43EA8213A26A5208013A43EAD7
:103740000243E26A43EA0263284A5360284B01229B
:103750001A66FEF773FE0446244B1B6813F0007FC5
:1037600006D1FEF76BFE001B0228F5D903202FE0DF
:1037700000202DE000202BE0012B2BD01B4B5B68A1
:1037800003F48001E269914226D103F03F02216AED
:103790008A4223D1616A47F6C0721A40B2EB811F98
:1037A0001ED103F44031A26A5208013AB1EB024F34
:1037B00018D103F07063E26AB3EB026F14D10020FA
:1037C00006E001207047012002E0012000E0002017
:1037D00002B070BD0120FBE70120F9E70120F7E707
:1037E0000120F5E70120F3E70120F1E7003802406E
:1037F0000000474208B5264B9B6803F00C03042BDE
:1038000041D0082B41D1224B5A6802F03F025B683D
:1038100013F4800F12D01E4B5968C1F388111D4854
:103820000023A1FB0001FDF793FB194B5B68C3F379
:10383000014301335B00B0FBF3F008BD144B586843
:10384000C0F388104FEA401CBCEB000C6EEB0E0E70
:103850004FEA8E1343EA9C634FEA8C11B1EB0C01E3
:1038600063EB0E03DB0043EA5173C90011EB000C5C
:1038700043F10003990200234FEA8C2041EA9C5156
:10388000FDF766FBD1E70348D7E70348D5E700BF5C
:1038900000380240001BB7000024F400002800F0AC
:1038A0009B8070B50D4604464F4B1B6803F0070321
:1038B0008B4208D2CBB24C4A1370136803F0070353
:1038C0008B4240F08B80236813F0020F17D013F067
:1038D000040F04D0454A936843F4E053936023688F
:1038E00013F0080F04D0414A936843F46043936097
:1038F0003E4A936823F0F003A1680B43936023686A
:1039000013F0010F32D06368012B21D09A1E012AD7
:1039100025D9364A126812F0020F61D033498A68FD
:1039200022F0030213438B60FEF788FD06462F4BFF
:103930009B6803F00C036268B3EB820F16D0FEF7AE
:103940007DFD801B41F288339842F0D9032042E08C
:10395000264A126812F4003FE0D101203BE0234ADE
:10396000126812F0007FD9D1012034E01E4B1B6891
:1039700003F00703AB4207D9EAB21B4B1A701B686E
:1039800003F00703AB422DD1236813F0040F06D0D8
:10399000164A936823F4E053E1680B43936023686D
:1039A00013F0080F07D0114A936823F4604321698C
:1039B00043EAC1039360FFF71DFF0C4B9B68C3F301
:1039C00003130B4AD35CD8400A4B18600A4B1868A3
:1039D000FEF7E8FC002070BD012070470120FAE7E7
:1039E0000120F8E70120F6E7003C024000380240E1
:1039F000D0B20008040000200C000020014B186821
:103A0000704700BF0400002008B5FFF7F7FF044B24
:103A10009B68C3F38223034AD35CD84008BD00BF30
:103A200000380240C8B2000808B5FFF7E7FF044BB2
:103A30009B68C3F34233034AD35CD84008BD00BF40
:103A400000380240C8B20008026802F10C0353E8D3
:103A5000003F23F0C0030C3242E800310029F3D1CB
:103A6000202380F841307047026802F10C0353E8CC
:103A7000003F23F490730C3242E800310029F3D167
:103A8000026802F1140353E8003F23F001031432EB
:103A900042E800310029F3D1036B012B05D020232C
:103AA00080F84230002303637047026802F10C0380
:103AB00053E8003F23F010030C3242E800310029A4
:103AC000F3D1ECE790F84130212B01D00220704770
:103AD0008368B3F5805F17D0036A5A1C02621A78B4
:103AE00003685A60C38C9BB2013B9BB2C3844BB941
:103AF0000268D36823F08003D3600268D36843F080
:103B00004003D360002070470369002BE4D1036AAF
:103B10001B880268C3F308035360036A023303621D
:103B2000E0E7000010B504460268136923F440532F
:103B3000C1680B431361836802691A4343691A43DE
:103B4000C3691A430168CB6823F4164323F00C03BE
:103B50001343CB600268536923F4407381690B43BC
:103B600053610368314A934206D002F58062934262
:103B700002D0FFF749FF01E0FFF756FFE369B3F515
:103B8000004F29D00021031849411B1841F10001C1
:103B9000C90041EA5371DB00181863684FEA8302D9
:103BA0004FEA937341F10001FDF7D2F9204AA2FBDD
:103BB00000314909642303FB11031B013233A2FBCB
:103BC00003235B0903F0F00202EB011203F00F0381
:103BD000216813448B6010BD0023021843EB0301DE
:103BE000121841F10001C90041EA5271D2001018C7
:103BF00041F10001626892185B41FDF7A9F90C4A96
:103C0000A2FB00314909642303FB1103DB003233BB
:103C1000A2FB03235B095A0002F4F87202EB0112C3
:103C200003F00703216813448B60D4E700100140C0
:103C30001F85EB5160B310B5044690F8413013B3C3
:103C4000242384F841302268D36823F40053D360DE
:103C50002046FFF767FF2268136923F4904313613E
:103C60002268536923F02A0353612268D36843F41E
:103C70000053D36000206064202384F8413084F82E
:103C80004230606310BD80F84030FEF7DBF8D7E7C4
:103C90000120704738B590F84130202B30D10446D0
:103CA00000292FD00AB9012038BD01628284C28464
:103CB00000234364212084F84100A06B124DC563AA
:103CC000A06B124D0564A06B114DC564A06B03651C
:103CD00020681346021DA06BFFF708F923686FF0F8
:103CE00040021A60226802F1140353E8003F43F0D7
:103CF0008003143242E800310029F3D10020D3E7D9
:103D00000220D1E70120CFE7153D00087D3D0008E6
:103D10008B3D000808B50346806B1B681B6813F4D5
:103D2000807F1AD10023C384026802F1140353E890
:103D3000003F23F08003143242E800310029F3D120
:103D4000026802F10C0353E8003F43F040030C32D9
:103D500042E800310029F3D108BDFDF73DFDFBE746
:103D600008B50168CA6822F04002CA60202280F8C3
:103D70004120FDF731FD002008BD704708B5806B7C
:103D8000FFF7FBFF08BD7047704710B5846B2368D1
:103D90005B6994F84120212A0FD023685B6903F006
:103DA000400394F84220222A11D0636C43F01003A0
:103DB00063642046FFF7E8FF10BD03F08003002B8B
:103DC000EBD00023E3842046FFF73EFEE5E7002B1F
:103DD000EBD00023E3852046FFF746FEE5E708B574
:103DE000806B0023C385C384FFF7CEFF08BD7047F7
:103DF00090F84230222B69D18368B3F5805F4FD0B1
:103E0000826AB3F5805F04D0002B56D10369002B82
:103E100053D103685B681370836A01338362C38D77
:103E20009BB2013B9BB2C385002B51D100B583B03F
:103E30000268D36823F02003D3600268D36823F4B8
:103E40008073D3600268536923F001035361202318
:103E500080F8423000234363036B012B33D10023EE
:103E60000363026802F10C0353E8003F23F01003E0
:103E70000C3242E800310029F3D103681A6812F0CD
:103E8000100F06D0002201921A6801925B6801931C
:103E9000019B818DFFF7ABFF002003B05DF804FBB1
:103EA0000269002AACD1826A03685B68C3F3080325
:103EB0001380836A02338362B1E703685B6803F0AF
:103EC0007F031370A8E7FFF75EFFE5E70220704766
:103ED0000020704710B582B0044602681368D068AD
:103EE000516913F00F0F09D113F0200F0CD010F00F
:103EF000200F09D02046FFF77BFF16E011F00101EB
:103F000015D110F4907F12D1216B012979D013F0D3
:103F1000800F03D010F0800F40F0148113F0400F99
:103F200003D010F0400F40F0118102B010BD13F02B
:103F3000010F06D010F4807F03D0626C42F00102C2
:103F4000626413F0040F04D019B1626C42F00202F3
:103F5000626413F0020F04D019B1626C42F00402E3
:103F6000626413F0080F07D010F0200F00D119B1D0
:103F7000626C42F008026264626C002AD5D013F0D1
:103F8000200F02D010F0200F29D123685B6903F0C5
:103F90004003626C12F0080F00D163B32046FFF7B4
:103FA00063FD23685B6913F0400F20D0226802F1A3
:103FB000140353E8003F23F04003143242E8003179
:103FC0000029F3D1E36B73B1624A1A65E06BFFF726
:103FD0000AF80028A9D0E06B036D9847A5E72046B2
:103FE000FFF706FFD1E72046FFF7CEFE9DE720460C
:103FF000FFF7CAFE99E72046FFF7C6FE0023636479
:1040000093E713F0100F82D010F0100F3FF47FAF42
:10401000002301931368019353680193019B536933
:1040200013F0400F52D0E26B13685B689BB2002B19
:104030003FF47BAFA18D99427FF677AFE385D369DB
:10404000B3F5807F37D0226802F10C0353E8003FBC
:1040500023F480730C3242E800310029F3D1226846
:1040600002F1140353E8003F23F00103143242E845
:1040700000310029F3D1226802F1140353E8003F14
:1040800023F04003143242E800310029F3D1202309
:1040900084F8423000232363226802F10C0353E8C2
:1040A000003F23F010030C3242E800310029F3D125
:1040B000E06BFEF74FFF02236363A18DE38D9BB29C
:1040C000C91A89B22046FFF792FE2EE7A18DE38D33
:1040D0009BB2C91A89B2E38D9BB2002B3FF425AF86
:1040E00000293FF422AF226802F10C0353E8003F9D
:1040F00023F490730C3242E800300028F3D1226898
:1041000002F1140353E8003F23F00103143242E8A4
:1041100000300028F3D1202384F8423000232363A9
:10412000226802F10C0353E8003F23F010030C3225
:1041300042E800300028F3D1022363632046FFF7F2
:1041400056FEF2E62046FFF7BDFCEEE62046FFF7FE
:1041500007FEEAE6DF3D00082DE9F047089D0F461F
:1041600004468C46002B48D18A42164661D9B2FAE1
:1041700082F34BB1C3F1200201FA03FC20FA02F2F0
:104180009E4042EA0C0C9C404FEA164EB7B2BCFB74
:10419000FEF1220C0EFB11CC42EA0C4201FB07F0AF
:1041A000904209D9B21801F1FF3C80F0EE809042B4
:1041B00040F2EB8002393244121AA4B2B2FBFEF094
:1041C0000EFB102244EA024400FB07F7A74209D97C
:1041D000341900F1FF3280F0DA80A74240F2D78034
:1041E0003444023840EA0140E41B00211DB1DC40A8
:1041F0000023C5E90043BDE8F0878B4206D90DB125
:10420000C5E9000100210846BDE8F087B3FA83F153
:10421000002948D1BB4202D3824200F20781841AAE
:1042200067EB030201209446002DE4D0C5E9004C61
:10423000E1E7002A00F09280B2FA82F3002B40F00E
:10424000A8808A1A4FEA164E1FFA86FC0121200C1C
:10425000B2FBFEF70EFB172240EA02420CFB07F00E
:10426000904207D9B21807F1FF3802D2904200F20B
:10427000E2804746121AA4B2B2FBFEF00EFB1022F7
:1042800044EA02440CFB00FCA44507D9341900F1B0
:10429000FF3202D2A44500F2CB801046A4EB0C04FE
:1042A00040EA0740A2E7C1F120068B4022FA06FC53
:1042B0004CEA030C07FA01F420FA06F3F7404FEA40
:1042C0001C49234300FA01F81FFA8CFEB7FBF9F0F2
:1042D0001C0C09FB107744EA074400FB0EF7A742C9
:1042E00002FA01F20AD91CEB040400F1FF3A80F053
:1042F0009B80A74240F2988002386444E41B9FB23E
:10430000B4FBF9F309FB134447EA044403FB0EFE34
:10431000A64509D91CEB040403F1FF3780F0828025
:10432000A6457FD9023B644443EA0040A4EB0E0457
:10433000A0FB02E7BC427346B94663D360D05DB1CF
:10434000B8EB030264EB090404FA06F622FA01F35F
:104350001E43CC40C5E9006400214CE762084808D0
:1043600042EAC1710B0C43EA00438AB242EA0342BB
:10437000B3FBF6F1E407B4463746B6461F23B0FB5D
:10438000F6F0D21B41EA004161E7614614E71046AE
:1043900028E7C3F1200120FA01F29E4027FA01F13B
:1043A0009F403A434FEA164E1FFA86FCB1FBFEF7D8
:1043B0000EFB1710110C41EA004107FB0CF8884571
:1043C00004FA03F43AD9711807F1FF3001D2884595
:1043D0001FD8A1EB0801B1FBFEF808FB0CF70EFBA0
:1043E000181192B242EA0142BA422FD2B21808F131
:1043F000FF31C6D2BA42C4D2A8F102013244C0E7AA
:10440000F0459CD2BEEB020367EB0C070138B946BE
:1044100095E7A6EB08084144B81EB1FBFEF808FB7F
:104420000CF7DCE73B467FE7504667E70846FBE6CC
:104430003444023832E7023F32441BE7A1EB080163
:104440003846B1FBFEF808FB0CF7C8E7414698E791
:10445000024A0349034800F0C9B800BF1000002019
:1044600095730008200000200C4B4168994210B55C
:10447000044601D002F08EFFA168094B994202D098
:10448000204602F087FFE168064B994204D020469F
:10449000BDE8104002F07EBF10BD00BF7C090020C7
:1044A000E40900204C0A00202DE9F843314A324C3F
:1044B0003249DFF8CC90DFF8CC80334F1160002513
:1044C00004232946082204F15C00C4E903352F4E79
:1044D000A560C4E90055C4E90555656600F012F908
:1044E00004F15800C4E90749C4E90987E66200F00D
:1044F000D9F92946264B6367082204F1C400C4E9B0
:104500001A55C4E91E552567C4F8CC50C4F880502C
:1045100000F0F8F804F1680304F1C000C4F8843036
:10452000C4E92298C4E9247600F0BCF9194BC4F818
:10453000DC30294604F596700822C4E93455C4E9F4
:104540003855C4F8D850C4F83451C4F8E85000F0D5
:10455000D9F804F1D003C4E93D87C4F8F09004F51C
:104560009470C4F8FC60C4F8EC30BDE8F84300F087
:1045700099B900BFB40A00207C090020514400080A
:104580007546000899460008D9460008FD4600080F
:10459000090001001200020010B504460A4800F0AC
:1045A00085F9636B23B9094B094A1B68626323B120
:1045B000BDE81040044800F07BB9FFF775FFBDE887
:1045C0001040014800F074B9C40A0020B40A002069
:1045D00069440008014800F069B900BFC40A00201E
:1045E000014800F065B900BFC40A00202DE9F84376
:1045F0000746884616464FF00009D6E90154013DAA
:1046000010D4A389012B08D9B4F90E300133214607
:10461000384602D0C04749EA0009013D6B1C04F14D
:104620006804EED13668002EE7D14846BDE8F8832D
:104630000EB430B59CB06FF000411FAB04910791F0
:104640000A4953F8042B029000240690084D08688C
:10465000019302A905951B9400F068FD029B1C7054
:104660001CB0BDE8304003B0704700BF1C00002004
:104670000802FFFF10B50C46B1F90E1000F0B8F8B3
:10468000002803DB236D0344236510BDA38923F4B5
:104690008053A38110BD00BF2DE9F0410C46B1F954
:1046A0000C101F46CB05054616460BD421F480514D
:1046B000A1813B46B4F90E1032462846BDE8F041D0
:1046C00000F0ACB8B4F90E100223002200F07AF822
:1046D000B4F90C10EAE700BF10B50C46B1F90E10A2
:1046E00000F070F8B4F90C30421C0EBF23F4805374
:1046F00043F480532065A38110BD00BFB1F90E10B3
:1047000000F04EB8830730B546D08418844604E0E4
:1047100003F8011B9D0704D09C46A4456346F7D1CE
:1047200030BD013A0244A2EB0C02032A29D9CCB2D3
:1047300004EB04240F2A04EB04442FD9A2F1100C3B
:104740002CF00F0C03F11005AC44C3E90044C3E99D
:10475000024410336345F8D112F00C0F02F00F0E33
:1047600018D02EF0030C9C44AEF104051A4642F812
:10477000044B6245FBD125F0030404330EF0030221
:104780002344002ACCD0C9B21A4403F8011B934237
:10479000FBD130BD7246F4E70346C6E79646E0E734
:1047A00038B5074D0022044608462A60FDF7E2FAB4
:1047B000431C00D038BD2B68002BFBD0236038BDD4
:1047C000B80A002038B50D46084C844611462846E4
:1047D0001A46002323606546FDF7D6FA431C00D035
:1047E00038BD2368002BFBD02B6038BDB80A0020F1
:1047F00038B50D46084C8446114628461A46002313
:1048000023606546FDF798FA431C00D038BD236845
:10481000002BFBD02B6038BDB80A002038B50D4600
:10482000084C8446114628461A46002323606546F4
:10483000FDF792FA431C00D038BD2368002BFBD053
:104840002B6038BDB80A0020014B1868704700BFC4
:104850001C00002070B50F4B0F4DAB42A3EB0506BB
:1048600007D0B610002455F8043B01349847A642FF
:10487000F9D806F041FC094D094B5E1BAB424FEAEB
:10488000A60606D0002455F8043B01349847A642FA
:10489000F9D870BD34B5000834B5000834B5000847
:1048A0003CB50008704700BF704700BF704700BFAD
:1048B000704700BF024B13B1024800F005B87047C3
:1048C000000000006D760008002301461A461846D5
:1048D00002F024BF2DE9F84306460820894602F07D
:1048E000D9FEDFF89C800546304600F013FCD8F86E
:1048F00008305F6827F00307A7F11104A4EB09044F
:104900002C44B4FBF5F4013C05FB04F4A54208DC9F
:104910000021304602F098FED8F808303B44984217
:1049200005D0304600F0FCFB0020BDE8F883614272
:10493000304602F089FE01300FD0124AD8F8083014
:104940003F1B47F001075F60136830461B1B136075
:1049500000F0E6FB0120BDE8F8830021304602F0BC
:1049600073FED8F80820831A0F2BDADD43F0010319
:104970005360054B03491B68C01A0860D1E700BFAC
:1049800070010020CC0A00206401002000295BD0C7
:10499000F8B50C46074600F0BDFB54F804CC744D46
:1049A000A4F108022CF00103D118A8684E688842CF
:1049B00026F003060CF0010E7ED088194E60406888
:1049C00000F00100BEF1000F2FD154F8084C121B6B
:1049D0002344946805F1080C644562D0D2F80CE0D9
:1049E000C4F80CE0CEF8084000287FD043F0010066
:1049F00050600B60B3F5007F2FD2D90868685C095E
:104A00000131012309B2A34003436B6055F8310023
:104A1000906005EBC103083BD36045F83120C260CC
:104A20003846BDE8F84000F07BBB70B9334405F16F
:104A3000080C8868604543F0010471D0C968C16002
:104A400088605460D350D5E770474CF00101B3F54E
:104A5000007F44F8041CD350CFD3B3F5206F4FEA46
:104A6000532045D2980900F1390109B200F1380408
:104A7000C900681869580838884203D157E0896826
:104A8000884204D04C6824F003049C42F7D8C868DC
:104A9000C2E9021082603846CA60BDE8F84000F002
:104AA0003FBB88BB1E44D1E90213CB60996046F03E
:104AB000010353609651B3E71E44BEF1000F07D1C6
:104AC00054F8083CD21A1E44D2E90213CB60996014
:104AD00046F001035360274BAA601B68B3429FD87E
:104AE000254B38461968FFF7F5FE99E73344A0E7F0
:104AF00014280ED9542821D8180B00F16F0109B2DF
:104B000000F16E04C900B4E743F0010050600B608F
:104B100086E700F15C0109B200F15B04C900A8E777
:104B2000C5E90422C2E902CC5460D35078E76E682C
:104B3000A4100123A34033436B60A9E7B0F5AA7F1B
:104B400007D8D80B00F1780109B200F17704C90049
:104B50008FE740F25451884206D8980C00F17D014D
:104B600000F17C04C90084E74FF47E717E2480E765
:104B70007001002068010020FC0A00202DE9F04FA0
:104B800001F10B05162D83B0064623D8102900F23B
:104B9000B48000F0BFFA102518230220B84F3B4420
:104BA000A3F108025C68944200F064816368E268E3
:104BB000A16823F00303CA602344304691605A6819
:104BC00042F001025A6000F0ABFA0834204603B00C
:104BD000BDE8F08F35F0070500F18F80A94200F2A3
:104BE0008C8000F097FAB5F5FC7FC0F0B8815FEAE1
:104BF000552E00F08980BEF1040F00F270814FEA5B
:104C0000951E0EF1390003B20EF1380EDB009C4FF9
:104C10003B44A3F1080C5C68A44507D10DE0002AD1
:104C2000E16880F221818C4507D00C46636823F04F
:104C300003035A1B0F2AF2DD7046DFF848823C69F5
:104C4000444500F0FE80636823F0030CACEB0503E1
:104C50000F2B00F38981002BC7E9048880F2738150
:104C6000BCF5007FD7F804E080F018814FEADC0340
:104C7000013319B24FEA5C1C012303FA0CF357F815
:104C80003120A2604EEA030E07EBC103083BE3604C
:104C9000C7F804E047F83140D46083104FF0010CAE
:104CA0000CFA03FCF44535D81CEA0E0F08D120F0AD
:104CB00003004FEA4C0C1CEA0E0F00F10400F8D080
:104CC00007EBC00AD6468146DEF80C300BE0596887
:104CD00021F003014A1B0F2A1C46DB6800F30F81F9
:104CE000002A80F223819E45F1D109F1010919F0D2
:104CF000030F0EF1080EE7D161E10C2333600024AD
:104D0000204603B0BDE8F08F4FF4007340204FF011
:104D10003F0E7CE7BC68636823F00309A94504D310
:104D2000A9EB05030F2B00F38F80574B1B6808205E
:104D300003F1100804EB0903009302F0ABFC534AA3
:104D400013680133A844834605D008F1FF38804436
:104D5000434203EA08084146304602F075FCB0F1D0
:104D6000FF3F4A4A824600F01B8104EB090383425D
:104D700000F21481464B186840440BF1FF3C186068
:104D800000F072811168013100F07A8104EB0902B0
:104D9000AAEB020202441A601AF00702CDE90023CE
:104DA00000F03281C2F108029244D04408EA0C01BA
:104DB0005A44521A02EA0C0B5946304602F044FC9F
:104DC000421C019B00F07981A0EB0A0000EB0B086C
:104DD0001868C7F808A048F001025844BC42CAF855
:104DE0000420186016D0B9F10F0F40F24C816168B1
:104DF000A9F10C0222F0070201F0010111436160E8
:104E00004FF0050CA1180F2AC1E901CC00F25D8119
:104E1000DAF804201F4B1968814238BF18601E4B16
:104E20001968814238BF1860544622F00308A8452B
:104E3000A8EB050301D30F2B06DC304600F070F918
:104E40005DE7D7F804E028E7621943F0010345F075
:104E5000010565603046BA60536000F061F90834BE
:104E6000204603B0BDE8F08FA2682344D1603046ED
:104E70008A60A4E6DC68A3427FF498AE0230DCE6E8
:104E80007001002078010020FC0A0020640100204D
:104E9000CC0A0020F80A0020F40A0020BCF5206F9C
:104EA0004FEA5C2272D3142A00F2C18002F15C0343
:104EB0001BB25B32DB00F918FB580839994203D169
:104EC00098E09B68994204D05A6822F00302624538
:104ED000F7D8D968C4E902318C60DC60DDE6BEF148
:104EE000140F60D9BEF1540F00F2AB804FEA153EAB
:104EF0000EF16F0003B20EF16E0EDB0087E6D4F800
:104F000008C03046661945F001056560CCF80C30E4
:104F1000C3F808C042F00103C7E90466C6E9028885
:104F20007360625000F0FCF80834E9E62144304632
:104F30004A6842F001024A6054F8082FD3609A6030
:104F400000F0EEF8DCE6A4443046DCF8043043F030
:104F50000103CCF8043000F0E3F80834D0E6E808A8
:104F6000431C1BB2DB0019E6621943F0010145F056
:104F7000010565603046C7E90422C2E90288516034
:104F800044F80C3000F0CCF80834B9E64FEA9C1233
:104F900002F139031BB23832DB008CE7BC425CD033
:104FA000BC68626841E70EF15C0003B20EF15B0E73
:104FB000DB002CE65AF80839534540F0A68010F083
:104FC000030F00F1FF30F5D17B6823EA0C037B600F
:104FD0004FEA4C0C9C453FF69DAEBCF1000F04D14E
:104FE00098E64FEA4C0C09F104091CEA030FF8D0CB
:104FF000484665E692104FF0010C0CFA02F24EEAB8
:10500000020EC7F804E065E70AEB080202EA0C02A8
:10501000ABEB020202EA0C0B5946304602F014FBDD
:10502000431C019B7FF4D0AEDDF800B0D0E6542ADB
:105030002DD84FEA1C3202F16F031BB26E32DB0037
:1050400039E7BEF5AA7F2DD84FEAD53E0EF178009C
:1050500003B20EF1770EDB00D9E52D4B1868404402
:105060000BF1FF3C18608DE61AEA0C0F7FF48AAE54
:10507000D7F808A0C84448F00102CAF80420C9E6DD
:10508000C2F800A088E60123CAF80430D5E6B2F5DC
:10509000AA7F25D84FEADC3202F178031BB27732BF
:1050A000DB0008E740F254539E4524D8AB0C03F1D3
:1050B0007D0003F17C0EC300A9E5009A083A9044F4
:1050C000A8EB0A084FF0000B82E6304604F1080115
:1050D0000093FFF75BFC009BD7F808A0186897E6E1
:1050E00040F254539A420CD84FEA9C4202F17D039D
:1050F000DB007C32DFE64FF47E737F204FF07E0EC4
:1051000085E54FF47E737E22D5E67B6860E700BFBD
:10511000CC0A00200148FFF7C9BB00BFBC0A002031
:105120000148FFF7C5BB00BFBC0A00202DE9F04FC6
:10513000DBB00C460A9115460E93834602F080FAC6
:10514000036817931846FBF73BFF002116900822CF
:105150002AA8FFF7D7FAA389190603D52369002BDC
:1051600001F0AC8000239E46CDE92F33CDE91AEE45
:1051700031AB1A4600242E930023CDE91234CDF82A
:1051800060E0CDF864E0CDF820E01446CDF844E0CE
:105190002F463D46694BD3F8E46002F04BFA2AAA49
:1051A0000346009226A92A465846B047002800F038
:1051B0009880C0F28E80269A252A034601D01D448D
:1051C000E8E7B5EB0708064640F08F8000234FF074
:1051D000FF328DF88F309A46099301352B7807926C
:1051E00001359946A9F120035A2B00F2A980DFE886
:1051F00013F03B02A700A7003702A700A700A700F3
:105200001A02A700A700E501F401A700F001FD01C3
:10521000A700F9015B005B005B005B005B005B00CB
:105220005B005B005B00A700A700A700A700A7002A
:10523000A700A7001C01A7007201F9021C011C01B4
:105240001C01A700A700A700A700F502A700A70060
:105250004502A700A700A700AF01A7009B02A70077
:10526000A700BB07A700A700A700A700A700A700EB
:10527000A700A7001C01A70072015D011C011C0111
:105280001C0119035D016C00A7003203A700230372
:1052900067033C036C00A700AF016A00D402A700BB
:1052A000A7002D08A7006A00A9F13003002215F815
:1052B000019B02EB820203EB4202A9F13003092BAE
:1052C000F5D909928EE72B788AE72B784AF0200AE5
:1052D00086E7082200212AA8FFF714FA01231D44BB
:1052E00058E7B5EB0708064610D02F9A309B0132DD
:1052F0004344072AC4E9007830932F9215DC083420
:10530000089B43440893002E7FF460AF309B002B32
:1053100041F054830A9B9B8903F04003002B41F02A
:105320008B8708985BB0BDE8F08F0A992EAA584683
:1053300002F004F80028EDD131ACE1E77805002057
:10534000B9F1000FE2D00023CDE90F3301228DF82F
:1053500004918DF88F300B930C920793149341AF07
:105360000692309E1AF08403314600F0E3809DF8E7
:105370008F2002B32F984FF0000801300122013630
:10538000626007280DF18F02CDE92F06226000F33D
:1053900005840834B8F1000F0DD02F98013024AAED
:1053A0000236226007284FF00202CDE92F06626024
:1053B00000F3E8830834802B00F0EC82079B0C9A02
:1053C000A3EB0208B8F1000F00F32C831AF4807FDE
:1053D00040F089820C9B63601E442F9B2760013341
:1053E000072B30962F9300F3758308341AF0040FBF
:1053F00005D0099B069A9F1A002F00F3DD83DDE993
:10540000083206998A42ACBF9B185B180893002E9D
:1054100040F0408300232F930B9B1BB10B99584600
:10542000FFF7B4FA31AC2F46B3E60E9B073323F0F7
:105430000701F1E80223CDE91223139B1E9223F00A
:1054400000431F930E91B54BDDE91E014FF0FF3273
:10545000FBF798FF002840F02D86DDE91E01AF4BD9
:105460004FF0FF32FBF770FF0646002840F022861F
:10547000DDE91201002200232AF0800AFBF75AFF1F
:10548000002841F048819DF88F30B9F1470FCCBF1B
:10549000A34FA44F002B41F067860322CDE90F33C1
:1054A0000B930C920793149306925AE71AF0200F6D
:1054B00040F0A9850E9A1AF0100F52F8046B41F0D3
:1054C0002C871AF0400F0E9201F00B8146F3C03882
:1054D000434636B296E10E9BB9F1430F03F1040641
:1054E00003D01AF0100F00F0C286082200212CA869
:1054F000FFF708F90E9B41AF1A6839462CAB5846A6
:1055000003F000FE034601330C9001F090860C9BE3
:1055100023EAE373069300230E96309E8DF88F30B6
:10552000CDE90F330B93079314931AF0840331469C
:105530007FF41DAF099A0698A2EB0008B8F1000F9E
:1055400000F332849DF88F20002A3FF437AF11E733
:10555000DDF8388058F8047B00238DF88F30002F59
:1055600000F09B86B9F1530F01F01A801AF0100376
:105570000F9341F01580079B002BC1F22A821A4637
:105580000F993846FBF78CFD9DF88F300B90002863
:1055900001F076850B9AD21B0C9222EAE2720692F7
:1055A00013B11346013306930F9BCDF83880079350
:1055B000149310930B934FF07309D2E60E9B53F89C
:1055C000042B0992002A80F21685099A0E93524202
:1055D00009922B784AF0040A02E62B238DF88F30CB
:1055E0002B78FDE52B784AF0800AF9E5294611F879
:1055F000019BB9F12A0F01F02E86A9F13003092B86
:1056000098BF002201F2548411F8019B02EB820240
:1056100003EB4202A9F13003092BF5D942EAE27308
:1056200007930D46DEE5584602F00AF843681993E1
:105630001846FBF7C5FC1B900646584602F000F8DA
:1056400081682B781A91002E3FF4CAAD00293FF4EF
:10565000C7AD0A78002A3FF4C3AD4AF4806ABFE5BB
:105660002B784AF0010ABBE59DF88F202B78002AA1
:105670007FF4B6AD20228DF88F20B1E51AF0200F0F
:105680004AF0100000F0D4840E9B073323F0070388
:105690001A46596852F8083B0E9200228DF88F2066
:1056A000079A002A18DB53EA010220F4906A15D108
:1056B000079A9AB910F001031A46069300F036874C
:1056C00030238DF86731079B0C92CDE90F3314938B
:1056D0000B930DF2671744E620F4806A5AAF03F08B
:1056E0000702DB0843EA4173C908303253EA010676
:1056F000384607F8012DF2D11AF001010F9140F060
:105700002283079A14915AABDB1B9A42B8BF1A4600
:105710000C93069210910B9123E600BFFFFFEF7FE1
:1057200024B1000820B100081AF0200F4AF010013F
:1057300038D10E9B1A1D0E9B07981B684FF000086E
:1057400040458DF88F801E46C0F2828521F0800A88
:10575000002B00F0A1840E920A2E78F1000380F055
:10576000B58306F13003DBB2079A8DF86731012A61
:10577000B8BF012206929DF88F3001220C920DF2E3
:105780006717002B01F06185069B01330693002308
:10579000CDE90F330B931493E3E51AF0200F00F0DB
:1057A000648451460E9B073323F007031A46D3F84F
:1057B000048052F8086B0E9200238DF88F30079BFF
:1057C000002BC0F2468556EA080321F0800AC3D1B7
:1057D000079B002B00F065840026C2E72B784AF077
:1057E000080AFDE41AF0200F4AF0100300F00E84BE
:1057F0000E9A073222F007029A46536852F8086B55
:105800000E929846002BC0F25083079A002AA3DB21
:1058100056EA08032AF0800A9ED1002A01F04D8042
:105820003023A1E72B78682B03BF6B784AF4007A0A
:1058300001354AF0400AD3E40E9A1AF0200F02F123
:10584000040300F0FD83126808991160C9175160C4
:105850000E932F469DE42B786C2B03BF6B784AF098
:10586000200A01354AF0100ABAE40E9A079F52F84E
:10587000040B002147F630038F42ADF890308DF8CD
:105880008F100346C0F2E8842AF0800646F0020A30
:10589000002840F0E384002F01F0168030238DF8BB
:1058A000673101230697CDE90B0310900E920DF29C
:1058B000671714904FF078090F90844600F0A9BC48
:1058C0001AF0200F40F0CE830E9A1AF0100152F811
:1058D000043B41F002851AF0400000F013879BB2B0
:1058E0000E925046D9E6B9F1650F40F3FD80DDE92F
:1058F000120100220023FBF713FD002800F09F8116
:105900002F9BB34A2260013301360122072B3096C8
:105910002F93626000F338860834259B119A9342D6
:1059200080F26483169B179A1E44C4E900232F9BC0
:1059300030960133072B2F9300F3A3840834119B77
:105940005F1E002F7FF752AD102F2F9B41F316845F
:10595000A049DDF82890159132464FF010080E4608
:1059600004E00834103F102F40F3A98001331032B7
:10597000072BC4E90068CDE92F32F2DD2EAA494693
:10598000584601F0DBFC002840F08C80DDE92F3226
:1059900031ACE7E7099B069AA3EB0208B8F1000FC8
:1059A0007FF70CADB8F1100F2F9A41F3D882DFF8D2
:1059B00024C2CDF854C02146304610232E466446FA
:1059C0000A9D06E0A8F11008B8F1100F01F10801D6
:1059D00018DD01321030072AC1E90043CDE92F203C
:1059E000F0DD2EAA2946584601F0A8FC002859D11E
:1059F000A8F11008B8F1100FDDE92F2031A94FF000
:105A00001003E6DC35460C4606460132159B236042
:105A10004644072ACDE92F26C4F8048000F3F18517
:105A20000834CBE46B4B2F9A1593B8F1100F24DD9B
:105A3000214610230A9C06E0A8F11008B8F1100FC7
:105A400001F1080118DD013262481036072AC1E968
:105A50000003CDE92F26EFDD2EAA2146584601F09E
:105A60006DFCF8B9A8F11008B8F1100FDDE92F2688
:105A700031A94FF01003E6DC0C460132159B236080
:105A80004644072ACDE92F26C4F8048000F301829A
:105A900008349BE40A992EAA584601F04FFC0028CE
:105AA0003FF4B8AC0B9B002B3FF434AC0B99584639
:105AB000FEF76CFF0A9B9B8903F040032EE4164619
:105AC0000133159A22603E44072B6760CDE92F36DB
:105AD0007FF78BAC0A992EAA584601F02FFC0028BC
:105AE000E0D1309E31AC81E42F9B03F10108119B82
:105AF000012B06F1010604F1080940F33B81012363
:105B0000B8F1070FCDE92F862760636000F361824B
