:020000040800F2
:1000000000000220550E0008450C0008470C0008AF
:10001000490C00084B0C00084D0C000800000000C3
:100020000000000000000000000000004F0C00086D
:10003000510C000800000000530C0008550C00088B
:10004000A50E0008A50E0008A50E0008A50E0008C4
:10005000A50E0008A50E0008A50E0008A50E0008B4
:10006000A50E0008A50E0008A50E0008A50E0008A4
:100070005D0C0008A50E0008A50E0008A50E0008DE
:10008000A50E0008A50E0008A50E0008A50E000884
:100090006D0C0008A50E0008A50E0008A50E0008AE
:1000A000A50E0008A50E0008A50E0008A50E000864
:1000B000A50E0008A50E0008A50E0008A50E000854
:1000C000A50E0008A50E0008A50E0008A50E000844
:1000D000A50E0008A50E0008A50E00087D0C00085E
:1000E000A50E0008A50E0008A50E0008A50E000824
:1000F000A50E0008A50E0008A50E0008A50E000814
:10010000A50E0008A50E0008A50E0008A50E000803
:10011000A50E0008A50E0008A50E0008A50E0008F3
:10012000A50E0008A50E0008A50E0008A50E0008E3
:10013000A50E0008A50E0008A50E0008A50E0008D3
:10014000A50E0008A50E0008A50E0008A50E0008C3
:10015000A50E0008A50E0008A50E0008A50E0008B3
:10016000A50E0008A50E0008A50E0008A50E0008A3
:10017000A50E0008A50E0008A50E0008000000004E
:08018000A50E0008A50E000801
:100188004FF0FF0C1CEAD0521EBF1CEAD15392EA72
:100198000C0F93EA0C0F6FD01A4480EA010C40024E
:1001A80018BF5FEA41211ED04FF0006343EA5010A8
:1001B80043EA5111A0FB01310CF00040B1F5000FEA
:1001C8003EBF490041EAD3715B0040EA010062F199
:1001D8007F02FD2A1DD8B3F1004F40EBC25008BF83
:1001E80020F00100704790F0000F0CF0004C08BFA1
:1001F80049024CEA502040EA51207F3AC2BFD2F16E
:10020800FF0340EAC250704740F400004FF000037B
:10021800013A5DDC12F1190FDCBF00F000407047B5
:10022800C2F10002410021FA02F1C2F1200200FAF3
:1002380002FC5FEA310040F1000053EA4C0308BFBA
:1002480020EADC70704792F0000F00F0004C02BF0B
:10025800400010F4000F013AF9D040EA0C0093F086
:10026800000F01F0004C02BF490011F4000F013BE0
:10027800F9D041EA0C018FE70CEAD15392EA0C0F4E
:1002880018BF93EA0C0F0AD030F0004C18BF31F0B9
:10029800004CD8D180EA010000F00040704790F08F
:1002A800000F17BF90F0004F084691F0000F91F033
:1002B800004F14D092EA0C0F01D142020FD193EAF9
:1002C8000C0F03D14B0218BF084608D180EA010081
:1002D80000F0004040F0FE4040F40000704740F05D
:1002E800FE4040F44000704780F0004002E000BF4C
:1002F80081F0004142001FBF5FEA410392EA030F09
:100308007FEA226C7FEA236C6AD04FEA1262D2EB52
:100318001363C1BFD218414048404140B8BF5B4257
:10032800192B88BF704710F0004F40F4000020F0F0
:100338007F4018BF404211F0004F41F4000121F006
:100348007F4118BF494292EA030F3FD0A2F1010250
:1003580041FA03FC10EB0C00C3F1200301FA03F18E
:1003680000F0004302D5494260EB4000B0F5000FB1
:1003780013D3B0F1807F06D340084FEA310102F170
:100388000102FE2A51D2B1F1004F40EBC25008BF22
:1003980020F0010040EA03007047490040EB0000EC
:1003A800013A28BFB0F5000FEDD2B0FA80FCACF1ED
:1003B800080CB2EB0C0200FA0CF0AABF00EBC2501A
:1003C80052421843BCBFD0401843704792F0000F08
:1003D80081F4000106BF80F400000132013BB5E75B
:1003E8004FEA41037FEA226C18BF7FEA236C21D0D1
:1003F80092EA030F04D092F0000F08BF0846704736
:1004080090EA010F1CBF0020704712F07F4F04D103
:10041800400028BF40F00040704712F100723CBF16
:1004280000F50000704700F0004343F0FE4040F440
:10043800000070477FEA226216BF08467FEA2363FE
:100448000146420206BF5FEA412390EA010F40F4E9
:10045800800070474FF0000304E000BF10F0004335
:1004680048BF40425FEA000C08BF704743F096431C
:1004780001464FF000001CE050EA010208BF704737
:100488004FF000030AE000BF50EA010208BF7047BE
:1004980011F0004302D5404261EB41015FEA010CD3
:1004A80002BF84460146002043F0B64308BFA3F1CB
:1004B8008053A3F50003BCFA8CF2083AA3EBC253AD
:1004C80010DB01FA02FC634400FA02FCC2F12002CC
:1004D800BCF1004F20FA02F243EB020008BF20F003
:1004E8000100704702F1200201FA02FCC2F1200269
:1004F80050EA4C0021FA02F243EB020008BF20EA5E
:10050800DC7070474FF0FF3C06E000BF4FF0010C75
:1005180002E000BF4FF0010C4DF804CD4FEA400255
:100528004FEA41037FEA226C18BF7FEA236C11D09F
:1005380001B052EA530C18BF90EA010F58BFB2EB52
:10054800030088BFC81738BF6FEAE17018BF40F0D2
:10055800010070477FEA226C02D15FEA402C05D186
:100568007FEA236CE4D15FEA412CE1D05DF8040B0B
:10057800704700BF844608466146FFE70FB5FFF79E
:10058800C9FF002848BF10F1000F0FBD4DF808ED56
:10059800FFF7F4FF0CBF012000205DF808FB00BF47
:1005A8004DF808EDFFF7EAFF34BF012000205DF8A1
:1005B80008FB00BF4DF808EDFFF7E0FF94BF0120EE
:1005C80000205DF808FB00BF4DF808EDFFF7D2FFEB
:1005D80094BF012000205DF808FB00BF4DF808ED2E
:1005E800FFF7C8FF34BF012000205DF808FB00BFFB
:1005F8004FEA4002B2F1FE4F0FD34FF09E03B3EB28
:1006080012620DD94FEA002343F0004310F0004F67
:1006180023FA02F018BF404270474FF000007047BD
:1006280012F1610F01D1420205D110F0004008BF5C
:100638006FF0004070474FF00000704753B94AB957
:10064800002908BF00281CBF4FF0FF314FF0FF30D2
:1006580000F00CB8ADF1080C6DE904CE02F0A2FB75
:10066800DDF804E0DDE9022304B07047704700BFFD
:100678000348044B834202D0034B03B11847704729
:100688001000002010000020000000000548064B64
:100698001B1AD90F01EBA301491002D0034B03B178
:1006A80018477047100000201000002000000000CC
:1006B80010B5064C237843B9FFF7DAFF044B13B1A2
:1006C8000448AFF300800123237010BD1000002000
:1006D800000000006032000808B5054B1BB1054951
:1006E8000548AFF30080BDE80840FFF7CFBF00BF63
:1006F80000000000140000206032000830B58BB004
:100708000122089200230693079200930193029313
:100718000393059304930E4C6946204600F062FE4D
:10072800204600F0FDFE0221204601F051F80E237C
:10073800099305936946204600F054FE204600F0D0
:10074800EFFE0221204601F043F80BB030BD00BF98
:100758002C00002008B50D480D4B036003234360AF
:1007680000238360C3604FF4102202614FF400122B
:100778004261037643768376C3760377437700F046
:100788008BFD00B908BD00F0B1F8FBE72C00002094
:100798000064004010B588B00023039304930593C8
:1007A800069307930268184B9A4201D008B010BD0F
:1007B8000024019403F5EA331A6C42F000721A64BB
:1007C8001A6C02F000720192019A02941A6B42F0BC
:1007D80008021A631B6B03F008030293029B0323AE
:1007E80003930222049206930923079303A9074857
:1007F80001F0C4FB22462146142001F083F914209D
:1008080001F090F9D2E700BF00640040000C0240FC
:1008180000B583B000210191094B1A6B42F4001214
:100828001A631B6B03F400130193019B0A460C2007
:1008380001F068F90C2001F075F903B05DF804FBCC
:100848000038024070B58AB005AD002405940694BE
:100858000794089409940094224B1A6B42F0010201
:100868001A631A6B02F001020092009A01941A6B43
:1008780042F002021A631A6B02F002020192019A14
:1008880002941A6B42F008021A631A6B02F008020B
:100898000292029A03941A6B42F004021A631A6BCA
:1008A80002F004020392039A04941A6B42F0800245
:1008B8001A631B6B03F080030493049B0A4E2246C1
:1008C8004FF4E051304601F053FC4FF4E0530593E8
:1008D80001230693079408942946304601F04EFBFD
:1008E8000AB070BD00380240001C024072B6FEE734
:1008F80000B595B03022002108A802F0CFFB03A86C
:100908000023039343608360C36003610193254A16
:10091800116C41F080511164126C02F08052019206
:10092800019A0293204A116841F4804111601268CB
:1009380002F480420292029A012203920493052152
:1009480001F076FE40BB012308934FF480330993EE
:1009580002230E934FF480020F9206221092A822CF
:10096800119212930423139308A801F011FCA8B95B
:100978000F23039302230493002305934FF4A053FA
:1009880006934FF480530793052103A801F050FE06
:1009980030B915B05DF804FBFFF7A8FFFFF7A6FF15
:1009A800FFF7A4FF00380240007000402DE9F04333
:1009B800B7B000F031FCFFF79BFFFFF743FFFFF7ED
:1009C80027FFFFF7C7FE00F061F900F079F9FFF79C
:1009D80095FE00F0F3F800F07DFB00244FF08D4603
:1009E80001963F4D0095234622464FF07F5129A896
:1009F80000F080F84FF07E57019600952346224676
:100A080039461CA800F076F8019600952346224640
:100A180039460FA800F06EF8019600952346224645
:100A2800394602A800F066F802E0282000F020FC11
:100A3800002000F0A1FA0546012000F09DFA0446C6
:100A4800022000F099FA0746032000F095FA0646BE
:100A5800B5F90200FFF702FD0246DFF88890494623
:100A680029A800F04FF80546B4F90200FFF7F6FC94
:100A78000246DFF8748041461CA800F043F804469B
:100A8800B7F90200FFF7EAFC024649460FA800F052
:100A980039F8B6F90200FFF7E1FC0246414602A820
:100AA80000F030F82046FFF7A3FD04B22846FFF710
:100AB8009FFD00231A46214600B200F033FA0B4A84
:100AC800138801331BB21380192BAED113460022B1
:100AD8001A804FF40061064801F050FBA5E700BFFB
:100AE8000060EA4600007A4400007AC454000020FE
:100AF800001C0240016042608360009BC360019B50
:100B0800036170472DE9F8430446084611466061C1
:100B1800A261D4F81C80C4F82080FFF7E9FB0546E1
:100B2800E0612168FFF72CFB07466062A66A6168EE
:100B38002846FFF725FB01463046FFF7DBFB064654
:100B4800A062D4F8089041462846FFF7D1FB014639
:100B58004846FFF715FB0546E062D4F80C8008F11B
:100B6800004949463046FFF71BFDB0B1C4F828904C
:100B7800A16A3846FFF7BEFB01462846FFF7BAFBD5
:100B880005462063266906F100473946FFF708FD48
:100B980060B12763206BBDE8F88341463046FFF714
:100BA8001DFD0028E4D0C4F82880E1E73146284636
:100BB800FFF714FD0028EDD02663EBE710B582B0EF
:100BC80000240A4B0193009323462246084909480A
:100BD800FFF790FF084B01930094234622460749EC
:100BE8000748FFF787FF02B010BD00BF0060EA4664
:100BF8000000F0418C0000200000A0430000C84322
:100C08005800002082B0002100910B4B5A6C42F42E
:100C180080425A645A6C02F480420092009A019110
:100C28001A6C42F080521A641B6C03F080530193D3
:100C3800019B02B0704700BF00380240FEE7FEE7A4
:100C4800FEE7FEE7FEE770477047704708B500F01B
:100C5800FDFA08BD08B5024801F0A2F808BD00BFBA
:100C6800C000002008B5024800F0D0FD08BD00BF54
:100C78002C00002008B5034801F052FF00F034FAB8
:100C880008BD00BF200100207047000008B50A48D1
:100C98000A4B03604FF4E133436000238360C36071
:100CA80003610C2242618361C36101F07DFE00B9DA
:100CB80008BDFFF71BFEFBE768010020001001409C
:100CC80008B50A480A4B03600A4B43600023836057
:100CD800C36003610C2242618361C36101F064FE59
:100CE80000B908BDFFF702FEFBE700BF20010020A6
:100CF80000480040A08601002DE9F0418AB0002399
:100D0800059306930793089309930368474A934208
:100D180006D00446464A93423ED00AB0BDE8F08168
:100D280000240094434B5A6C42F010025A645A6CE7
:100D380002F010020092009A01941A6B42F002022B
:100D48001A631A6B02F002020192019A02941A6B5A
:100D580042F001021A631B6B03F001030293029B2A
:100D6800802305934FF00208CDF8188003270897D1
:100D78000726099605AD29462F4801F0FFF84FF4DC
:100D880000730593CDF818800794089709962946AB
:100D98002A4801F0F3F8C0E700250395254B1A6CA3
:100DA80042F480221A641A6C02F480220392039A95
:100DB80004951A6B42F004021A631B6B03F00403D8
:100DC8000493049B4FF44063059302230693032383
:100DD80008930723099305A9194801F0CFF8194882
:100DE800194B03604FF0006343608560C5604FF4A2
:100DF80080630361456185614FF48073C3614FF47B
:100E080000330362456200F009FF58B90D4BE363F4
:100E18009C6300221146272000F074FE272000F072
:100E280081FE7AE7FFF762FDF0E700BF001001409E
:100E38000048004000380240000402400000024020
:100E480000080240C000002028600240DFF834D0CB
:100E5800FFF71AFF0C480D490D4A002302E0D45849
:100E6800C4500433C4188C42F9D30A4A0A4C0023EC
:100E780001E013600432A242FBD302F05DF9FFF7F0
:100E880095FD70470000022000000020100000209F
:100E9800AC3200081000002018040020FEE7000013
:100EA80000B58BB001AB03AA002100F0DCFB039B6B
:100EB800A3F20122062A2DD8013BDBB2174A137090
:100EC800174903EB83004200881831F902C0A0F8E3
:100ED80008C09DF804E09DF805C04CEA0E2C21F8E6
:100EE80002C09DF80620120212B29DF807C042EA1D
:100EF8000C0242809DF80820120212B29DF809C027
:100F080042EA0C0282809DF80A0003EB83035A0030
:100F18008B1898710BB05DF804FB00BFB00100207E
:100F2800D401002010B582B08E4694460F494FF484
:100F380000720A6000228A60CA6008220A610C4AAC
:100F48000412147050704FEA2E20907082F803E05B
:100F58004FEA2C20107182F805C018129071D371D5
:100F680001AB044800F00AFB02B010BDBC01002030
:100F7800B40100202C00002000F0030000EB8000EA
:100F8800014B03EB40007047D401002010B4164B0E
:100F98001B685C6944F040045C61DC6844F0100440
:100FA800DC60124B1C68236823F00103236003E014
:100FB8001C6824F001041C600C4B1B681C6814F0AE
:100FC800010FF5D10A4C9C60D86019615A601A6803
:100FD80042F480221A60054B1A68136843F0010333
:100FE800136010BC704700BF20010020C000002023
:100FF8000448004000286BD00346002968D030B56B
:101008000478427844EA0224C4F30A040C80427843
:1010180090F802E04FEA4E1E4EEAD20ECEF30A0EC8
:10102800A1F802E08078DA78920042EA9012187902
:1010380042EA8022C2F30A028A801D795879C001E7
:1010480040EA5500C0F30A00C88093F805C0CCF305
:10105800011C81F80AC093F805C04FEA9C1C81F86E
:101068000BC093F806C0DD794CEA052CA1F80CC03A
:1010780093F808C05D7A4CEA052CA1F80EC093F8E5
:101088000AC0DD7A4CEA052CA1F810C01D7B8D74CE
:101098005D7BCD7493F80EC0DD7B4CEA052CA1F87E
:1010A80014C093F810C05B7C4CEA03230B81A4F5B1
:1010B80080640C80AEF5806EA1F802E0A2F5806233
:1010C8008A80A0F58060C880A3F580630B8130BD5D
:1010D8007047000008B503492422A1F12400FFF756
:1010E80055FF08BD4002002000B583B02F4B1B6898
:1010F8001A6812F0200F09D0002200921A68009294
:101108005B680093009B03B05DF804FB284A1268F3
:1011180012F0100FF7D0002201921A6801925B6852
:101128000193019B234B1B681A6812F4002F1DD1F1
:101138001A6822F001021A601E4802685368C3F157
:1011480024039BB21C490B8024215160116841F48F
:101158000021116001680A6842F001020A60122B3E
:10116800D1D116491648FFF745FFCCE71A6822F097
:1011780001021A600F490A685368C3F124039BB23D
:101188000D480380242050600E48826A22F4002211
:10119800826209680A6842F001020A60122BB2D121
:1011A80006490948FFF726FFADE700BF20010020E8
:1011B80000480040C00000201A02002064020020FD
:1011C8001C020020006002404002002010B50446C6
:1011D8000E4B1A784FF47A73B3FBF2F30C4A10688B
:1011E800B0FBF3F000F0A2FC68B90F2C01D9012084
:1011F8000AE0002221464FF0FF3000F083FC054B47
:101208001C60002000E0012010BD00BF0400002089
:10121800000000200800002008B50B4B1A6842F4B3
:1012280000721A601A6842F480621A601A6842F4FE
:1012380080721A60032000F053FC0F20FFF7C6FFEE
:10124800FFF7E0FC002008BD003C0240034A11689B
:10125800034B1B780B441360704700BF7C020020CF
:1012680004000020014B1868704700BF7C02002072
:1012780038B50446FFF7F6FF0546B4F1FF3F02D044
:10128800044B1B781C44FFF7EDFF401BA042FAD328
:1012980038BD00BF04000020002800F0A18038B548
:1012A800044690F82030D3B12268136843F0010354
:1012B8001360FFF7D7FF054623685A6812F0010F3D
:1012C80010D1FFF7CFFF401B0A28F5D9636A43F412
:1012D80000336362052384F82030012038BDFFF70E
:1012E80059FAE1E71A6822F002021A60FFF7BAFF1A
:1012F800054623685A6812F0020F0DD0FFF7B2FFB7
:10130800401B0A28F5D9636A43F400336362052356
:1013180084F820300120E1E7227E012A3DD01A68B6
:1013280022F080021A60637E012B3BD0226813688A
:1013380023F040031360A37E012B39D02268136881
:1013480023F020031360E37E012B37D02268136853
:1013580043F010031360237F012B35D022681368F4
:1013680023F008031360637F012B33D022681368CE
:1013780023F004031360A368E2681343226913434C
:10138800626913436268013A21681343CB61002004
:101398006062012384F82030A0E71A6842F08002D6
:1013A8001A60C0E72268136843F040031360C2E77D
:1013B8002268136843F020031360C4E722681368A7
:1013C80023F010031360C6E72268136843F008038C
:1013D8001360C8E72268136843F004031360CAE780
:1013E8000120704790F82030013BDBB2012B05D972
:1013F800436A43F4802343620120704710B5474B8A
:10140800D3F8002242F00102C3F80022D3F80022E8
:1014180022F47C52C3F80022D3F80022486A42EA38
:101428000022C3F800224A6902F01F02012000FAD4
:1014380002F2D3F81C026FEA020C20EA0200C3F899
:101448001C02CB69CBB9354BD3F80C020CEA00006F
:10145800C3F80C028C884869D1F80CE044EA0E44C1
:10146800483043F830408C68088840EA04404C69AA
:1014780004F1480E03EBCE035860CB69012B1ED054
:101488008B69002B35D12548D0F804320CEA0303C8
:10149800C0F804320B699BBB2048D0F814320CEA20
:1014A8000303C0F814320B6A012B30D01B4AD2F860
:1014B800003223F00103C2F80032002010BD174BA0
:1014C800D3F80C021043C3F80C028C884869D1F891
:1014D80000E044EA0E44483043F8304088894C69BB
:1014E800D1F808E040EA0E40483403EBC4035860E2
:1014F800C6E70A48D0F804321343C0F80432C9E7F3
:101508000648D0F814321343C0F81432CBE7034925
:10151800D1F81C321343C1F81C32C7E700640040FD
:1015280070B5044690F82030012B06D0436A43F486
:10153800002343620126304670BDDEB2022380F8E4
:1015480020300268136823F001031360FFF78AFE56
:10155800054623685B6813F0010F0CD0FFF782FE85
:10156800431B0A2BF5D9636A43F4003363620523EE
:1015780084F82030DFE700266662DCE730B590F8B3
:1015880020C00468A4680CF1FF3C5FFA8CFCBCF135
:10159800010F62D814F0E05F59D0C4F3016C012444
:1015A80004FA0CF41C608B68002B3DD10D68CB68E5
:1015B800046843EA45550CF118031B01E55003681C
:1015C8000C690CF1180E03EB0E135C600B7D012BFC
:1015D80035D0D17993791B0443EA0163517943EA01
:1015E800012314790168234301EB0C11C1F88C31F4
:1015F800D17893781B0443EA0163517843EA0123C5
:10160800117802680B4302EB0C12C2F888310268A9
:101618000CF1180C4FEA0C1C52F80C3043F0010383
:1016280042F80C3000201DE04C6843EAC403CC6843
:1016380023430CF11804240105682B51BFE7036804
:1016480003EB0E13596841F480715960C1E7436A8E
:1016580043F400134362012004E0436A43F4802307
:101668004362012030BD90F820C00CF1FF3C5FFAC6
:101678008CFCBCF1010F00F2A58030B451B90468AC
:10168800E46814F0030F10D1436A43F40013436273
:1016980001207EE00468246914F0030F05D1436A31
:1016A80043F400134362012073E0056801F11B0451
:1016B80024012C5904F004049460002C6BD10568B3
:1016C80001F11B0424012C59640D1460046801F114
:1016D8001B0C4FEA0C1C54F80C4004F00204D460B4
:1016E8000468A444DCF8045015F0080F5BD0082403
:1016F8001461046801F11B0C04EB0C146468C4F356
:1017080007249461046804EB0C146468240C546185
:10171800026802EB0112D2F8B8211A70026802EBD3
:101728000112D2F8B821C2F307225A70026802EBFC
:101738000112D2F8B821C2F307429A70026802EB8C
:101748000112D2F8B821120EDA70026802EB011207
:10175800D2F8BC211A71026802EB0112D2F8BC213E
:10176800C2F307225A71026802EB0112D2F8BC21B7
:10177800C2F307429A71026802EB0112D2F8BC2147
:10178800120EDA71C1B90268D36843F02003D3603E
:10179800002030BC7047056801F11B0424012C5956
:1017A800E408546092E701F11B0504EB0514646832
:1017B80004F00F0414619CE70268136943F02003E6
:1017C8001361E5E7436A43F48023436201207047CD
:1017D80090F82030013BDBB2012B05D9436A43F472
:1017E8008023436201207047026853690B435361A9
:1017F80000207047704770477047704770477047C0
:101808007047704770477047704770472DE9F84F29
:10181800054603685C69D3F804809F68D3F80CA078
:10182800D3F81090D3F818B014F001063BD017F095
:10183800010616D001229A6017F0020F08D117F09E
:10184800040F0CD117F0080606D04FF4805608E0B4
:10185800FFF7D0FF002604E0FFF7CFFF01E04FF4C9
:10186800006617F4807F0DD02B684FF480729A6061
:1018780017F4007F40F0968017F4806F00F0968090
:1018880046F4005617F4803F0DD02B684FF4803291
:101898009A6017F4003F40F0938017F4802F00F00F
:1018A800938046F4004614F0080F07D01AF0100F82
:1018B80004D046F400762B681022DA6014F0040F86
:1018C80003D01AF0080F40F0898014F0020F05D0F9
:1018D8002B68DB6813F0030F40F0878014F0400F8B
:1018E80007D019F0100F04D046F480662B68102238
:1018F8001A6114F0200F02D019F0080F79D114F0F2
:10190800100F04D02B681B6913F0030F78D114F45F
:10191800003F02D018F0100F76D114F4803F02D0A7
:1019280018F0080F77D114F4004F37D018F0040FCF
:1019380031D014F4807F04D01BF0010F01D046F0A1
:10194800010614F4007F04D01BF0020F01D046F00A
:10195800020614F4806F04D01BF0040F01D046F087
:10196800040614F4006F16D01BF0700B13D0BBF1F3
:10197800400F66D056D8BBF1200F5CD0BBF1300FBA
:101988005CD0BBF1100F01D146F008062A689369B4
:1019980023F0700393612B6804225A60002E56D1FD
:1019A800BDE8F88F2846FFF726FF6BE717F4006FAE
:1019B80002D046F4804665E72846FFF71FFF61E737
:1019C8002846FFF719FF6EE717F4002F02D046F4F8
:1019D800803668E72846FFF712FF64E72B6808227D
:1019E800DA602846FFF70CFF6FE72846FFF758FA3A
:1019F80074E72B6808221A612846FFF703FF7EE781
:101A08002846FFF7FEFE82E72B6810225A60284618
:101A1800FFF7F9FE81E72B6808225A602846FFF78E
:101A2800F3FE80E7BBF1500F0ED0BBF1600FADD1D4
:101A380046F48076AAE746F01006A7E746F02006A7
:101A4800A4E746F04006A1E746F080069EE76B6AE9
:101A580033436B622846FFF7D8FEA1E7002807DB6F
:101A680000F01F02400901239340024A42F8203047
:101A7800704700BF00E100E0002808DB0901C9B297
:101A880000F1604000F5614080F80013704700F0F5
:101A98000F000901C9B2014B1954704714ED00E059
:101AA80000B500F00700C0F1070CBCF1040F28BF17
:101AB8004FF0040C031D062B0FD9C31E4FF0FF3E39
:101AC8000EFA0CF021EA000199400EFA03FE22EA10
:101AD8000E0241EA02005DF804FB0023EEE7000075
:101AE800074AD36823F4E0631B041B0C000200F4CC
:101AF800E060034343F0BF6343F40033D3607047AF
:101B080000ED00E010B50446054BD868C0F302208C
:101B1800FFF7C6FF01462046FFF7AEFF10BD00BF26
:101B280000ED00E008B5FFF799FF08BD0138B0F1F6
:101B3800807F0BD24FF0E0235861054AF02182F8EC
:101B480023100020986107221A617047012070470E
:101B580000ED00E010B40368D9B21039094AA2FBBD
:101B680001421209084CA25CC2655F2906D96FF3CD
:101B7800090304338365806D10BC70476FF3090354
:101B88008365F8E7ABAAAAAA90320008836A82693B
:101B980092B9012B0AD0022B02D00BB1002070475A
:101BA800C36A13F0807F28D100207047C36AB3F15D
:101BB800C07F24D000207047B2F5005F09D0022B07
:101BC80025D9032B25D1C36A13F0807F23D10020A8
:101BD8007047032B03D8DFE803F01404140A00202D
:101BE8007047C36A13F0807F0DD100207047C36A25
:101BF800B3F1C07F09D00020704701207047012051
:101C0800704701207047012070470120704701206C
:101C180070470020704701207047000070B50446E7
:101C2800FFF720FB002C5BD00546022384F83530F3
:101C3800002384F834302268136823F0010313600A
:101C480023681A6812F0010F0AD0FFF70BFB431B39
:101C5800052BF5D920236365032084F8350070BD72
:101C68001A68204911406268A0680243E06802438C
:101C78002069024360690243A0690243E0690243A4
:101C8800206A02430A43616A04291ED01A60266842
:101C9800756925F00705636A1D43042B07D1A36AFC
:101CA8001D43E36A1BB12046FFF770FF90B97561C9
:101CB8002046FFF74FFFE26D3F23934083600020EB
:101CC8006065012384F83530C9E7E16A206B014378
:101CD8000A43DBE740236365012084F83500BEE74B
:101CE8000120BCE73F8010F070B50446866DFFF711
:101CF800B9FA94F83530022B06D0802363650023A7
:101D080084F83430012070BD05462268136823F03A
:101D1800160313602268536923F080035361236C10
:101D2800E3B12268136823F008031360226813687C
:101D380023F00103136023681B6813F0010F11D00F
:101D4800FFF790FA431B052BF5D920236365032081
:101D580084F83500002384F83430D4E7A36C002BD2
:101D6800DFD1E3E7E26D3F239340B360012384F8BA
:101D78003530002084F83400C5E790F83530022B60
:101D880003D08023436501207047052380F8353050
:101D98000268136823F001031360002070470000F5
:101DA800F0B583B0044600230193724B1D68724B53
:101DB800A3FB0535AD0A876D3E68C26D08239340C5
:101DC800334210D003681A6812F0040F0BD01A6857
:101DD80022F004021A60C26D08239340BB60436D71
:101DE80043F001034365E26D01239340334209D078
:101DF8002268526912F0800F04D0BB60636D43F013
:101E080002036365E26D04239340334209D02268DC
:101E1800126812F0020F04D0BB60636D43F0040334
:101E28006365E26D10239340334224D02268126820
:101E380012F0080F1FD0BB6023681A6812F4802FB5
:101E48000DD01B6813F4002F04D1236C9BB12046DE
:101E5800984710E0A36C73B1204698470BE01A68C6
:101E680012F4807F03D11A6822F008021A60236CEA
:101E78000BB120469847E26D20239340334254D05B
:101E88002268126812F0100F4FD0BB6094F83530FA
:101E9800052B0ED023681A6812F4802F33D01B68E4
:101EA80013F4002F2AD1636C002B3ED020469847AC
:101EB8003BE02268136823F0160313602268536915
:101EC80023F080035361236CA3B12268136823F0C5
:101ED80008031360E26D3F239340BB60012384F83D
:101EE8003530002384F83430236D002B3FD0204652
:101EF80098473CE0A36C002BE7D1EBE7E36BA3B179
:101F08002046984711E01A6812F4807F09D11A68B0
:101F180022F010021A60012384F83530002384F877
:101F28003430E36B0BB120469847636DFBB1636DAA
:101F380013F0010F17D0052384F835302268136891
:101F480023F001031360019B01330193AB4204D8D2
:101F580023681B6813F0010FF5D1012384F835308D
:101F6800002384F83430E36C0BB12046984703B063
:101F7800F0BD00BF00000020B5814E1B00230F2BD1
:101F880000F2EC8030B583B068E085684FEA430E14
:101F9800032404FA0EF425EA0405CC6804FA0EF4C6
:101FA8002C438460446824EA02044A68C2F300129D
:101FB8009A40224342605FE0DC08083450F824204D
:101FC80003F00705AD004FF00F0E0EFA05FE22EAEA
:101FD8000E0E0A69AA4042EA0E0240F824205FE089
:101FE800072200E0002202FA0EF22A4302345C4D76
:101FF80045F824205B4A94686FEA0C0224EA0C0531
:10200800D1F804E01EF4801F01D04CEA0405554CB9
:10201800A560E46802EA0405D1F804E01EF4001F94
:1020280001D04CEA04054F4CE560646802EA0405F7
:10203800D1F804E01EF4003F01D04CEA0405494CF5
:102048006560246822404D6815F4803F01D04CEA51
:102058000402444C226001330F2B7DD801229A40A0
:102068000C6804EA020C32EA0404F4D14C6804F067
:102078000304013C012C88D94A6802F00302032AB0
:1020880009D0C4685D000322AA4024EA02048A68D1
:10209800AA402243C2604A6802F00302022A8BD097
:1020A80004684FEA430E032202FA0EF224EA0204FD
:1020B8004A6802F0030202FA0EF2224302604A68FA
:1020C80012F4403FC7D000220192274A546C44F4CE
:1020D80080445464526C02F480420192019A9C0834
:1020E800A51C1F4A52F8255003F0030E4FEA8E0E26
:1020F8000F2202FA0EF225EA02051C4A90423FF42A
:1021080071AF02F5806290421AD002F58062904267
:1021180018D002F58062904216D002F58062904293
:1021280014D002F58062904212D002F5806290428B
:1021380010D002F5806290423FF452AF082252E775
:10214800012250E702224EE703224CE704224AE725
:10215800052248E7062246E703B030BD704700BFB6
:1021680000380140003C01400038024000000240B5
:102178000AB181617047090481617047436901EAC6
:10218800030221EA030141EA02418161704700002C
:10219800002800F0E08170B582B00446036813F0AF
:1021A800010F3BD09F4B9B6803F00C03042B2CD0F2
:1021B8009C4B9B6803F00C03082B21D06368B3F594
:1021C800803F4FD0B3F5A02F52D0964B1A6822F417
:1021D80080321A601A6822F480221A606368002B21
:1021E80050D0FFF73FF805468E4B1B6813F4003FAD
:1021F80014D1FFF737F8401B6428F5D90320B1E163
:10220800884B5B6813F4800FD8D0864B1B6813F497
:10221800003F03D06368002B00F09F81236813F010
:10222800020F54D07F4B9B6813F00C0F3ED07D4BB0
:102238009B6803F00C03082B33D0E368002B68D0AD
:10224800794B01221A60FFF70DF80546754B1B689C
:1022580013F0020F54D1FFF705F8401B0228F5D9F7
:1022680003207FE16F4A136843F480331360B5E7B6
:102278006C4B1A6842F480221A601A6842F4803261
:102288001A60ABE7FEF7EEFF0546664B1B6813F4D2
:10229800003FC3D0FEF7E6FF401B6428F5D90320B2
:1022A80060E1604B5B6813F4800FC6D15D4B1B681F
:1022B80013F0020F03D0E368012B40F05081594A14
:1022C800136823F0F803216943EAC1031360236804
:1022D80013F0080F42D063696BB3534B0122C3F864
:1022E800802EFEF7BFFF05464E4B5B6F13F0020FC3
:1022F80034D1FEF7B7FF401B0228F5D9032031E19E
:10230800484A136823F0F803216943EAC1031360BC
:10231800DDE7454B00221A60FEF7A4FF0546414B56
:102328001B6813F0020FD2D0FEF79CFF401B022857
:10233800F5D9032016E13C4B0022C3F8802EFEF7A6
:1023480091FF0546374B5B6F13F0020F06D0FEF77F
:1023580089FF401B0228F5D9032003E1236813F005
:10236800040F77D02F4B1B6C13F0805F33D1002301
:1023780001932C4B1A6C42F080521A641B6C03F0C8
:1023880080530193019B0125284B1B6813F4807F20
:1023980023D0A368012B34D0052B38D0214B1A6FDA
:1023A80022F001021A671A6F22F004021A67A36862
:1023B800002B3DD0FEF756FF06461A4B1B6F13F055
:1023C800020F46D1FEF74EFF801B41F28833984238
:1023D800F3D90320C6E00025D6E7144A136843F46E
:1023E80080731360FEF73EFF0646104B1B6813F41C
:1023F800807FCED1FEF736FF801B0228F5D9032057
:10240800B0E0084A136F43F001031367CFE7054BA9
:102418001A6F42F004021A671A6F42F001021A6733
:10242800C5E700BF00380240000047420070004086
:10243800FEF718FF0646524B1B6F13F0020F08D029
:10244800FEF710FF801B41F288339842F3D903202E
:1024580088E0EDB9A369002B00F08380484A9268B0
:1024680002F00C02082A51D0022B17D0454B00224B
:102478001A66FEF7F7FE0446414B1B6813F0007F0F
:1024880042D0FEF7EFFE001B0228F5D9032069E0D1
:102498003B4A136C23F080531364DBE7394B00226B
:1024A8001A66FEF7DFFE0546354B1B6813F0007F02
:1024B80006D0FEF7D7FE401B0228F5D9032051E0CD
:1024C800E369226A1343626A43EA8213A26A5208E2
:1024D800013A43EA0243E26A43EA0263284A536044
:1024E800284B01221A66FEF7BDFE0446244B1B68E2
:1024F80013F0007F06D1FEF7B5FE001B0228F5D9C0
:1025080003202FE000202DE000202BE0012B2BD012
:102518001B4B5B6803F48001E269914226D103F00A
:102528003F02216A8A4223D1616A47F6C0721A4083
:10253800B2EB811F1ED103F44031A26A5208013A5E
:10254800B1EB024F18D103F07063E26AB3EB026F8C
:1025580014D1002006E001207047012002E001208C
:1025680000E0002002B070BD0120FBE70120F9E780
:102578000120F7E70120F5E70120F3E70120F1E763
:10258800003802400000474208B5264B9B6803F01C
:102598000C03042B41D0082B41D1224B5A6802F07E
:1025A8003F025B6813F4800F12D01E4B5968C1F3C9
:1025B80088111D480023A1FB0001FEF73FF8194BC5
:1025C8005B68C3F3014301335B00B0FBF3F008BD64
:1025D800144B5868C0F388104FEA401CBCEB000C41
:1025E8006EEB0E0E4FEA8E1343EA9C634FEA8C1192
:1025F800B1EB0C0163EB0E03DB0043EA5173C90036
:1026080011EB000C43F10003990200234FEA8C20E0
:1026180041EA9C51FEF712F8D1E70348D7E703488F
:10262800D5E700BF00380240001BB7000024F400C3
:10263800002800F09B8070B50D4604464F4B1B6880
:1026480003F007038B4208D2CBB24C4A13701368CD
:1026580003F007038B4240F08B80236813F0020FCE
:1026680017D013F0040F04D0454A936843F4E0539D
:102678009360236813F0080F04D0414A936843F429
:10268800604393603E4A936823F0F003A1680B43CC
:102698009360236813F0010F32D06368012B21D0B7
:1026A8009A1E012A25D9364A126812F0020F61D003
:1026B80033498A6822F0030213438B60FEF7D2FD88
:1026C80006462F4B9B6803F00C036268B3EB820F3E
:1026D80016D0FEF7C7FD801B41F288339842F0D927
:1026E800032042E0264A126812F4003FE0D101209C
:1026F8003BE0234A126812F0007FD9D1012034E070
:102708001E4B1B6803F00703AB4207D9EAB21B4B09
:102718001A701B6803F00703AB422DD1236813F02E
:10272800040F06D0164A936823F4E053E1680B437C
:102738009360236813F0080F07D0114A936823F4B5
:102748006043216943EAC1039360FFF71DFF0C4B07
:102758009B68C3F303130B4AD35CD8400A4B186039
:102768000A4B1868FEF732FD002070BD0120704743
:102778000120FAE70120F8E70120F6E7003C0240D3
:1027880000380240803200080000002008000020C5
:10279800014B1868704700BF0000002008B5FFF71C
:1027A800F7FF044B9B68C3F38223034AD35CD840EA
:1027B80008BD00BF003802407832000808B5FFF7AE
:1027C800E7FF044B9B68C3F34233034AD35CD8400A
:1027D80008BD00BF0038024078320008026802F1E4
:1027E8000C0353E8003F23F490730C3242E80031A5
:1027F8000029F3D1026802F1140353E8003F23F0E3
:102808000103143242E800310029F3D1036B012B94
:1028180005D0202380F84230002303637047026804
:1028280002F10C0353E8003F23F010030C3242E896
:1028380000310029F3D1ECE790F84130212B01D089
:10284800022070478368B3F5805F17D0036A5A1C6B
:1028580002621A7803685A60C38C9BB2013B9BB230
:10286800C3844BB90268D36823F08003D36002683D
:10287800D36843F04003D360002070470369002BFE
:10288800E4D1036A1B880268C3F308035360036A30
:1028980002330362E0E7000010B5044602681369DA
:1028A80023F44053C1680B431361836802691A43D8
:1028B80043691A43C3691A430168CB6823F4164372
:1028C80023F00C031343CB600268536923F440736D
:1028D80081690B4353610368314A934206D002F57C
:1028E8008062934202D0FFF759FF01E0FFF766FFCD
:1028F800E369B3F5004F29D00021031849411B189B
:1029080041F10001C90041EA5371DB0018186368FE
:102918004FEA83024FEA937341F10001FDF78EFEFF
:10292800204AA2FB00314909642303FB11031B0160
:102938003233A2FB03235B0903F0F00202EB01121E
:1029480003F00F03216813448B6010BD00230218A5
:1029580043EB0301121841F10001C90041EA527129
:10296800D200101841F10001626892185B41FDF72E
:1029780065FE0C4AA2FB00314909642303FB1103DD
:10298800DB003233A2FB03235B095A0002F4F8721E
:1029980002EB011203F00703216813448B60D4E7AC
:1029A800001001401F85EB5160B310B5044690F844
:1029B800413013B3242384F841302268D36823F4C8
:1029C8000053D3602046FFF767FF2268136923F49A
:1029D800904313612268536923F02A0353612268E4
:1029E800D36843F40053D36000206064202384F844
:1029F800413084F84230606310BD80F84030FEF703
:102A08007BF9D7E701207047704708B50168CA68A5
:102A180022F04002CA60202280F84120FFF7F4FF2C
:102A2800002008BD7047704708B5806B0023C38538
:102A3800C384FFF7F8FF08BD704790F84230222B97
:102A480069D18368B3F5805F4FD0826AB3F5805F40
:102A580004D0002B56D10369002B53D103685B685F
:102A68001370836A01338362C38D9BB2013B9BB2AF
:102A7800C385002B51D100B583B00268D36823F019
:102A88002003D3600268D36823F48073D36002689C
:102A9800536923F001035361202380F84230002357
:102AA8004363036B012B33D100230363026802F1F4
:102AB8000C0353E8003F23F010030C3242E80031C6
:102AC8000029F3D103681A6812F0100F06D000220B
:102AD80001921A6801925B680193019B818DFFF74F
:102AE800ABFF002003B05DF804FB0269002AACD1FB
:102AF800826A03685B68C3F308031380836A02333E
:102B08008362B1E703685B6803F07F031370A8E78B
:102B1800FFF788FFE5E702207047002070470000B4
:102B280010B582B0044602681368D068516913F082
:102B38000F0F09D113F0200F0CD010F0200F09D07F
:102B48002046FFF77AFF16E011F0010115D110F4C5
:102B5800907F12D1216B012979D013F0800F03D017
:102B680010F0800F40F0148113F0400F03D010F0E4
:102B7800400F40F0118102B010BD13F0010F06D0D4
:102B880010F4807F03D0626C42F00102626413F09B
:102B9800040F04D019B1626C42F00202626413F0AF
:102BA800020F04D019B1626C42F00402626413F09F
:102BB800080F07D010F0200F00D119B1626C42F055
:102BC80008026264626C002AD5D013F0200F02D08C
:102BD80010F0200F29D123685B6903F04003626C71
:102BE80012F0080F00D163B32046FFF7F7FD236802
:102BF8005B6913F0400F20D0226802F1140353E8F8
:102C0800003F23F04003143242E800310029F3D199
:102C1800E36B73B1624A1A65E06BFFF7AEF8002800
:102C2800A9D0E06B036D9847A5E72046FFF705FF9D
:102C3800D1E72046FFF7F7FE9DE72046FFF7F3FEB2
:102C480099E72046FFF7EFFE0023636493E713F04C
:102C5800100F82D010F0100F3FF47FAF00230193C4
:102C68001368019353680193019B536913F0400F54
:102C780052D0E26B13685B689BB2002B3FF47BAFCA
:102C8800A18D99427FF677AFE385D369B3F5807F4D
:102C980037D0226802F10C0353E8003F23F4807315
:102CA8000C3242E800310029F3D1226802F1140302
:102CB80053E8003F23F00103143242E800310029B1
:102CC800F3D1226802F1140353E8003F23F04003D4
:102CD800143242E800310029F3D1202384F842302D
:102CE80000232363226802F10C0353E8003F23F01A
:102CF80010030C3242E800310029F3D1E06BFEF7F3
:102D0800F3FF02236363A18DE38D9BB2C91A89B2D5
:102D18002046FFF791FE2EE7A18DE38D9BB2C91ADD
:102D280089B2E38D9BB2002B3FF425AF00293FF415
:102D380022AF226802F10C0353E8003F23F490739A
:102D48000C3242E800300028F3D1226802F1140363
:102D580053E8003F23F00103143242E80030002812
:102D6800F3D1202384F8423000232363226802F140
:102D78000C0353E8003F23F010030C3242E8003004
:102D88000028F3D1022363632046FFF755FEF2E6DD
:102D98002046FFF751FDEEE62046FFF736FEEAE64D
:102DA800312A00082DE9F047089D0F4604468C4655
:102DB800002B48D18A42164661D9B2FA82F34BB148
:102DC800C3F1200201FA03FC20FA02F29E4042EA13
:102DD8000C0C9C404FEA164EB7B2BCFBFEF1220C1D
:102DE8000EFB11CC42EA0C4201FB07F0904209D9D4
:102DF800B21801F1FF3C80F0EE80904240F2EB8087
:102E080002393244121AA4B2B2FBFEF00EFB1022B1
:102E180044EA024400FB07F7A74209D9341900F134
:102E2800FF3280F0DA80A74240F2D780344402387B
:102E380040EA0140E41B00211DB1DC400023C5E944
:102E48000043BDE8F0878B4206D90DB1C5E9000102
:102E580000210846BDE8F087B3FA83F1002948D17C
:102E6800BB4202D3824200F20781841A67EB030255
:102E780001209446002DE4D0C5E9004CE1E7002A82
:102E880000F09280B2FA82F3002B40F0A8808A1AF0
:102E98004FEA164E1FFA86FC0121200CB2FBFEF702
:102EA8000EFB172240EA02420CFB07F0904207D9BA
:102EB800B21807F1FF3802D2904200F2E28047468A
:102EC800121AA4B2B2FBFEF00EFB102244EA02442E
:102ED8000CFB00FCA44507D9341900F1FF3202D2DB
:102EE800A44500F2CB801046A4EB0C0440EA07404E
:102EF800A2E7C1F120068B4022FA06FC4CEA030C3B
:102F080007FA01F420FA06F3F7404FEA1C49234375
:102F180000FA01F81FFA8CFEB7FBF9F01C0C09FB4C
:102F2800107744EA074400FB0EF7A74202FA01F2C1
:102F38000AD91CEB040400F1FF3A80F09B80A742F9
:102F480040F2988002386444E41B9FB2B4FBF9F362
:102F580009FB134447EA044403FB0EFEA64509D9BE
:102F68001CEB040403F1FF3780F08280A6457FD96B
:102F7800023B644443EA0040A4EB0E04A0FB02E7D2
:102F8800BC427346B94663D360D05DB1B8EB030267
:102F980064EB090404FA06F622FA01F31E43CC4056
:102FA800C5E9006400214CE76208480842EAC1719B
:102FB8000B0C43EA00438AB242EA0342B3FBF6F140
:102FC800E407B4463746B6461F23B0FBF6F0D21BDB
:102FD80041EA004161E7614614E7104628E7C3F17A
:102FE800200120FA01F29E4027FA01F19F403A435E
:102FF8004FEA164E1FFA86FCB1FBFEF70EFB1710C0
:10300800110C41EA004107FB0CF8884504FA03F467
:103018003AD9711807F1FF3001D288451FD8A1EBC2
:103028000801B1FBFEF808FB0CF70EFB181192B271
:1030380042EA0142BA422FD2B21808F1FF31C6D291
:10304800BA42C4D2A8F102013244C0E7F0459CD28A
:10305800BEEB020367EB0C070138B94695E7A6EB10
:1030680008084144B81EB1FBFEF808FB0CF7DCE782
:103078003B467FE7504667E70846FBE6344402389C
:1030880032E7023F32441BE7A1EB08013846B1FBA7
:10309800FEF808FB0CF7C8E7414698E7830730B508
:1030A80046D08418844604E003F8011B9D0704D029
:1030B8009C46A4456346F7D130BD013A0244A2EBD1
:1030C8000C02032A29D9CCB204EB04240F2A04EBFE
:1030D80004442FD9A2F1100C2CF00F0C03F11005A9
:1030E800AC44C3E90044C3E9024410336345F8D152
:1030F80012F00C0F02F00F0E18D02EF0030C9C44A7
:10310800AEF104051A4642F8044B6245FBD125F09E
:10311800030404330EF003022344002ACCD0C9B2BE
:103128001A4403F8011B9342FBD130BD7246F4E701
:103138000346C6E79646E0E770B50F4B0F4DAB4226
:10314800A3EB050607D0B610002455F8043B01345C
:103158009847A642F9D800F07FF8094D094B5E1B45
:10316800AB424FEAA60606D0002455F8043B0134CA
:103178009847A642F9D870BDA0320008A0320008CE
:10318800A0320008A8320008704700BF704700BF8F
:10319800024B13B1024800F005B870470000000068
:1031A800B9310008002301461A46184600F014B841
:1031B80038B5074D074C2C1BA41005D0013C55F819
:1031C800043D9847002CF9D1BDE8384000F04AB8D2
:1031D800AC320008A83200082DE9F8431B4D06461A
:1031E800286898460F469146FFF7CEFF184B1C6893
:1031F8001CB3286865681F2D22DC4EB96B1C02358C
:10320800636044F82570FFF7C1FF0020BDE8F8832C
:1032180004EB85010123C1F88890D4F88821AB40DC
:103228001A43022EC4F88821C1F80881E6D1D4F8DF
:103238008C211A43C4F88C21E0E7064C1C60D8E7BF
:10324800FFF7A4FF4FF0FF30E0E700BF0C000020BD
:103258008402002088020020F8B500BFF8BC08BC32
:103268009E467047F8B500BFF8BC08BC9E4670473C
:10327800000000000102030400000000000000003C
:1032880001020304060708090006101600061016B6
:0832980014FBFF7F01000000A0
:0832A00099310008E106000865
:0432A800B90600085B
:1032AC000024F40001000000100000008002002047
:0400000508000E558C
:00000001FF
