:020000040800F2
:1000000000000220ED140008C1140008C314000809
:10001000C5140008C7140008C91400080000000037
:10002000000000000000000000000000CB140008E9
:10003000CD14000800000000CF140008D1140008FF
:100040003D1500083D1500083D1500083D15000848
:100050003D1500083D1500083D1500083D15000838
:100060003D1500083D1500083D1500083D15000828
:100070003D1500083D1500083D1500083D15000818
:100080003D1500083D1500083D1500083D15000808
:10009000D91400083D1500083D1500083D1500085D
:1000A0003D1500083D1500083D1500083D150008E8
:1000B0003D1500083D1500083D1500083D150008D8
:1000C0003D1500083D1500083D1500083D150008C8
:1000D0003D1500083D1500083D1500083D150008B8
:1000E0003D1500083D1500083D1500083D150008A8
:1000F0003D1500083D1500083D1500083D15000898
:100100003D1500083D1500083D1500083D15000887
:100110003D1500083D1500083D1500083D15000877
:100120003D1500083D1500083D1500083D15000867
:100130003D1500083D1500083D1500083D15000857
:100140003D1500083D1500083D1500083D15000847
:100150003D1500083D1500083D1500083D15000837
:100160003D1500083D1500083D1500083D15000827
:100170003D1500083D1500083D1500080000000071
:080180003D1500083D150008C3
:100188004FF0FF0C1CEAD0521EBF1CEAD15392EA72
:100198000C0F93EA0C0F6FD01A4480EA010C40024E
:1001A80018BF5FEA41211ED04FF0006343EA5010A8
:1001B80043EA5111A0FB01310CF00040B1F5000FEA
:1001C8003EBF490041EAD3715B0040EA010062F199
:1001D8007F02FD2A1DD8B3F1004F40EBC25008BF83
:1001E80020F00100704790F0000F0CF0004C08BFA1
:1001F80049024CEA502040EA51207F3AC2BFD2F16E
:10020800FF0340EAC250704740F400004FF000037B
:10021800013A5DDC12F1190FDCBF00F000407047B5
:10022800C2F10002410021FA02F1C2F1200200FAF3
:1002380002FC5FEA310040F1000053EA4C0308BFBA
:1002480020EADC70704792F0000F00F0004C02BF0B
:10025800400010F4000F013AF9D040EA0C0093F086
:10026800000F01F0004C02BF490011F4000F013BE0
:10027800F9D041EA0C018FE70CEAD15392EA0C0F4E
:1002880018BF93EA0C0F0AD030F0004C18BF31F0B9
:10029800004CD8D180EA010000F00040704790F08F
:1002A800000F17BF90F0004F084691F0000F91F033
:1002B800004F14D092EA0C0F01D142020FD193EAF9
:1002C8000C0F03D14B0218BF084608D180EA010081
:1002D80000F0004040F0FE4040F40000704740F05D
:1002E800FE4040F44000704781F0004102E000BF4A
:1002F80083F0004330B54FEA41044FEA430594EADE
:10030800050F08BF90EA020F1FBF54EA000C55EA18
:10031800020C7FEA645C7FEA655C00F0E2804FEAE9
:100328005454D4EB5555B8BF6D420CDD2C4480EACB
:10033800020281EA030382EA000083EA010180EAFB
:10034800020281EA0303362D88BF30BD11F0004F49
:100358004FEA01314FF4801C4CEA113102D040427F
:1003680061EB410113F0004F4FEA03334CEA1333BA
:1003780002D0524263EB430394EA050F00F0A780D2
:10038800A4F10104D5F1200E0DDB02FA0EFC22FACD
:1003980005F2801841F1000103FA0EF2801843FAC1
:1003A80005F359410EE0A5F120050EF1200E012AB2
:1003B80003FA0EFC28BF4CF0020C43FA05F3C018F0
:1003C80051EBE37101F0004507D54FF0000EDCF169
:1003D800000C7EEB00006EEB0101B1F5801F1BD312
:1003E800B1F5001F0CD349085FEA30004FEA3C0C16
:1003F80004F101044FEA445212F5800F80F09A800C
:10040800BCF1004F08BF5FEA500C50F1000041EB0F
:10041800045141EA050130BD5FEA4C0C404141EB13
:100428000101013C28BFB1F5801FE9D291F0000F0E
:1004380004BF01460020B1FA81F308BF2033A3F1BD
:100448000B03B3F120020CDA0C3208DD02F1140CB4
:10045800C2F10C0201FA0CF021FA02F10CE002F1EF
:100468001402D8BFC2F1200C01FA02F120FA0CFCE8
:10047800DCBF41EA0C019040E41AA2BF01EB045131
:10048800294330BD6FEA04041F3C1CDA0C340EDC2F
:1004980004F11404C4F1200220FA04F001FA02F372
:1004A80040EA030021FA04F345EA030130BDC4F130
:1004B8000C04C4F1200220FA02F001FA04F340EA25
:1004C8000300294630BD21FA04F0294630BD94F0D6
:1004D800000F83F4801306BF81F480110134013DBD
:1004E8004EE77FEA645C18BF7FEA655C29D094EA2E
:1004F800050F08BF90EA020F05D054EA000C04BFAC
:100508001946104630BD91EA030F1EBF0021002096
:1005180030BD5FEA545C05D14000494128BF41F035
:10052800004130BD14F580043CBF01F5801130BD99
:1005380001F0004545F0FE4141F470014FF0000024
:1005480030BD7FEA645C1ABF194610467FEA655CD5
:100558001CBF0B46024650EA013406BF52EA033577
:1005680091EA030F41F4002130BD00BF90F0000F65
:1005780004BF0021704730B54FF4806404F13204A1
:100588004FF000054FF0000150E700BF90F0000F5A
:1005980004BF0021704730B54FF4806404F1320481
:1005A80010F0004548BF40424FF000013EE700BF51
:1005B80042004FEAE2014FEA31014FEA02701FBFE1
:1005C80012F07F4393F07F4F81F06051704732F013
:1005D8007F4208BF704793F07F4F04BF41F400216A
:1005E800704730B54FF4607401F0004521F00041C8
:1005F8001CE700BF50EA010208BF704730B54FF052
:1006080000050AE050EA010208BF704730B511F052
:10061800004502D5404261EB41014FF4806404F18A
:1006280032045FEA915C3FF4D8AE4FF003025FEA10
:10063800DC0C18BF03325FEADC0C18BF033202EB94
:10064800DC02C2F1200300FA03FC20FA02F001FAEE
:1006580003FE40EA0E0021FA02F11444BDE600BF91
:1006680070B54FF0FF0C4CF4E06C1CEA11541DBF40
:100678001CEA135594EA0C0F95EA0C0F00F0DEF80B
:100688002C4481EA030621EA4C5123EA4C5350EAF0
:10069800013518BF52EA033541F4801143F4801341
:1006A80038D0A0FB02CE4FF00005E1FB02E506F0D2
:1006B8000042E0FB03E54FF00006E1FB03569CF027
:1006C800000F18BF4EF0010EA4F1FF04B6F5007F2D
:1006D80064F5407404D25FEA4E0E6D4146EB06069F
:1006E80042EAC62141EA55514FEAC52040EA5E5028
:1006F8004FEACE2EB4F1FD0C88BFBCF5E06F1ED8D2
:10070800BEF1004F08BF5FEA500E50F1000041EB08
:10071800045170BD06F0004646EA010140EA0200B5
:1007280081EA0301B4EB5C04C2BFD4EB0C0541EAD7
:10073800045170BD41F480114FF0000E013C00F3EC
:10074800AB8014F1360FDEBF002001F0004170BD10
:10075800C4F10004203C35DA0C341BDC04F1140429
:10076800C4F1200500FA05F320FA04F001FA05F2B5
:1007780040EA020001F0004221F0004110EBD37082
:1007880021FA04F642EB06015EEA430E08BF20EAAE
:10079800D37070BDC4F10C04C4F1200500FA04F351
:1007A80020FA05F001FA04F240EA020001F00041E3
:1007B80010EBD37041F100015EEA430E08BF20EA56
:1007C800D37070BDC4F1200500FA05F24EEA020E9E
:1007D80020FA04F301FA05F243EA020321FA04F0CD
:1007E80001F0004121FA04F220EA020000EBD37084
:1007F8005EEA430E08BF20EAD37070BD94F0000F84
:100808000FD101F00046400041EB010111F4801FB7
:1008180008BF013CF7D041EA060195F0000F18BF68
:10082800704703F00046520043EB030313F4801FA4
:1008380008BF013DF7D043EA0603704794EA0C0F5E
:100848000CEA135518BF95EA0C0F0CD050EA410674
:1008580018BF52EA4306D1D181EA030101F00041F1
:100868004FF0000070BD50EA410606BF1046194619
:1008780052EA430619D094EA0C0F02D150EA013625
:1008880013D195EA0C0F05D152EA03361CBF104666
:1008980019460AD181EA030101F0004141F0FE4105
:1008A80041F470014FF0000070BD41F0FE4141F489
:1008B800780170BD70B54FF0FF0C4CF4E06C1CEA89
:1008C80011541DBF1CEA135594EA0C0F95EA0C0F3E
:1008D80000F0A7F8A4EB050481EA030E52EA0335F9
:1008E8004FEA013100F088804FEA03334FF080551A
:1008F80045EA131343EA12634FEA022245EA111547
:1009080045EA10654FEA00260EF000419D4208BFF7
:10091800964244F1FD0404F5407402D25B084FEAA4
:100928003202B61A65EB03055B084FEA32024FF450
:1009380080104FF4002CB6EB020E75EB030E22BFAD
:10094800B61A754640EA0C005B084FEA3202B6EB6D
:10095800020E75EB030E22BFB61A754640EA5C001C
:100968005B084FEA3202B6EB020E75EB030E22BFAC
:10097800B61A754640EA9C005B084FEA3202B6EBAD
:10098800020E75EB030E22BFB61A754640EADC006C
:1009980055EA060E18D04FEA051545EA16754FEACE
:1009A80006164FEAC30343EA52734FEAC2025FEAEC
:1009B8001C1CC0D111F4801F0BD141EA00014FF07B
:1009C80000004FF0004CB6E711F4801F04BF01434C
:1009D8000020B4F1FD0C88BFBCF5E06F3FF6AFAE68
:1009E800B5EB030C04BFB6EB020C5FEA500C50F1F8
:1009F800000041EB045170BD0EF0004E4EEA11317B
:100A080014EB5C04C2BFD4EB0C0541EA045170BD81
:100A180041F480114FF0000E013C90E645EA060EC5
:100A28008DE60CEA135594EA0C0F08BF95EA0C0FF3
:100A38003FF43BAF94EA0C0F0AD150EA01347FF43B
:100A480034AF95EA0C0F7FF425AF104619462CE712
:100A580095EA0C0F06D152EA03353FF4FDAE104675
:100A6800194622E750EA410618BF52EA43067FF4C6
:100A7800C5AE50EA41047FF40DAF52EA43057FF456
:100A8800EBAE12E74FEA4102B2F1E04324BFB3F5FF
:100A9800001CDCF1FE5C0DD901F0004C4FEAC002ED
:100AA8004CEA5070B2F1004F40EB830008BF20F0D1
:100AB8000100704711F0804F21D113F13872BCBF8B
:100AC80001F00040704741F480114FEA5252C2F1E0
:100AD8001802C2F1200C10FA0CF320FA02F018BF29
:100AE80040F001004FEAC1234FEAD32303FA0CFC7C
:100AF80040EA0C0023FA02F34FEA4303CCE77FEA0B
:100B0800625307D150EA01331EBF4FF0FE4040F454
:100B18004000704701F0004040F0FE4040F4000003
:100B2800704700BF80F0004002E000BF81F0004144
:100B380042001FBF5FEA410392EA030F7FEA226C7B
:100B48007FEA236C6AD04FEA1262D2EB1363C1BF0B
:100B5800D218414048404140B8BF5B42192B88BF7A
:100B6800704710F0004F40F4000020F07F4018BF9D
:100B7800404211F0004F41F4000121F07F4118BFBD
:100B8800494292EA030F3FD0A2F1010241FA03FC65
:100B980010EB0C00C3F1200301FA03F100F000434D
:100BA80002D5494260EB4000B0F5000F13D3B0F115
:100BB800807F06D340084FEA310102F10102FE2A84
:100BC80051D2B1F1004F40EBC25008BF20F00100F4
:100BD80040EA03007047490040EB0000013A28BF93
:100BE800B0F5000FEDD2B0FA80FCACF1080CB2EB16
:100BF8000C0200FA0CF0AABF00EBC2505242184394
:100C0800BCBFD0401843704792F0000F81F4000138
:100C180006BF80F400000132013BB5E74FEA41030B
:100C28007FEA226C18BF7FEA236C21D092EA030F77
:100C380004D092F0000F08BF0846704790EA010FF1
:100C48001CBF0020704712F07F4F04D1400028BF1E
:100C580040F00040704712F100723CBF00F5000000
:100C6800704700F0004343F0FE4040F40000704736
:100C78007FEA226216BF08467FEA236301464202E2
:100C880006BF5FEA412390EA010F40F480007047F5
:100C98004FF0000304E000BF10F0004348BF40429B
:100CA8005FEA000C08BF704743F0964301464FF0D7
:100CB80000001CE050EA010208BF70474FF0000333
:100CC8000AE000BF50EA010208BF704711F0004374
:100CD80002D5404261EB41015FEA010C02BF844644
:100CE8000146002043F0B64308BFA3F18053A3F5A3
:100CF8000003BCFA8CF2083AA3EBC25310DB01FAEA
:100D080002FC634400FA02FCC2F12002BCF1004F6D
:100D180020FA02F243EB020008BF20F001007047FE
:100D280002F1200201FA02FCC2F1200250EA4C0052
:100D380021FA02F243EB020008BF20EADC70704798
:100D48004FF0FF3C06E000BF4FF0010C02E000BF8F
:100D58004FF0010C4DF804CD4FEA40024FEA410331
:100D68007FEA226C18BF7FEA236C11D001B052EAE7
:100D7800530C18BF90EA010F58BFB2EB030088BFAD
:100D8800C81738BF6FEAE17018BF40F0010070471C
:100D98007FEA226C02D15FEA402C05D17FEA236CFE
:100DA800E4D15FEA412CE1D05DF8040B704700BF45
:100DB800844608466146FFE70FB5FFF7C9FF0028DC
:100DC80048BF10F1000F0FBD4DF808EDFFF7F4FF15
:100DD8000CBF012000205DF808FB00BF4DF808EDAE
:100DE800FFF7EAFF34BF012000205DF808FB00BFD1
:100DF8004DF808EDFFF7E0FF94BF012000205DF8F3
:100E080008FB00BF4DF808EDFFF7D2FF94BF0120A3
:100E180000205DF808FB00BF4DF808EDFFF7C8FF9C
:100E280034BF012000205DF808FB00BF4FEA4002F4
:100E3800B2F1FE4F0FD34FF09E03B3EB12620DD900
:100E48004FEA002343F0004310F0004F23FA02F06A
:100E580018BF404270474FF00000704712F1610F11
:100E680001D1420205D110F0004008BF6FF00040E8
:100E780070474FF00000704753B94AB9002908BFBE
:100E880000281CBF4FF0FF314FF0FF3000F00CB8C6
:100E9800ADF1080C6DE904CE01F01CFCDDF804E0AE
:100EA800DDE9022304B07047704700BF0348044BD4
:100EB800834202D0034B03B118477047100000204B
:100EC80010000020000000000548064B1B1AD90F2F
:100ED80001EBA301491002D0034B03B11847704737
:100EE80010000020100000200000000010B5064C83
:100EF800237843B9FFF7DAFF044B13B10448AFF383
:100F080000800123237010BD1000002000000000A5
:100F1800902B000808B5054B1BB105490548AFF3F0
:100F28000080BDE80840FFF7CFBF00BF0000000009
:100F380014000020902B000830B58BB001220892D5
:100F4800002306930792009301930293039305935A
:100F580004930E4C6946204600F0FAFB204600F048
:100F680095FC0221204600F0E9FD0E230993059324
:100F78006946204600F0ECFB204600F087FC022181
:100F8800204600F0DBFD0BB030BD00BF380000206C
:100F98000268164B9A4200D0704700B58BB001AB7F
:100FA80003AA002100F015FD039A40F205239A4296
:100FB80002D00BB05DF804FB9DF804309DF80520C5
:100FC80042EA03220A4B9A809DF806109DF80720F2
:100FD80042EA0122DA809DF808109DF8092042EAC9
:100FE80001221A819DF80A209A72E2E70064004003
:100FF8002C00002000B589B06A46002300930193B5
:1010080040F2FF100290049305930823069341FAD7
:1010180003F38DF800308DF80110012302A903486D
:1010280000F062FC09B05DF804FB00BF3800002046
:1010380008B50D480D4B0360072343600023836008
:10104800C3604FF4803202614FF4001242610376AC
:1010580043768376C3760377437700F0D3FA00B9F3
:1010680008BD00F0B7F8FBE7380000200064004036
:1010780010B588B000230393049305930693079350
:101088000268184B9A4201D008B010BD00240194A0
:1010980003F5EA331A6C42F000721A641A6C02F013
:1010A80000720192019A02941A6B42F008021A63C4
:1010B8001B6B03F008030293029B03230393022292
:1010C800049206930923079303A9074800F0F8FE42
:1010D80022462146142000F0CBFE142000F0D8FE52
:1010E800D2E700BF00640040000C024070B58AB02F
:1010F80005AD002405940694079408940994019476
:101108001D4B1A6B42F001021A631A6B02F00102BE
:101118000192019A02941A6B42F008021A631A6B40
:1011280002F008020292029A03941A6B42F0040237
:101138001A631A6B02F004020392039A04941A6B5E
:1011480042F080021A631B6B03F080030493049B34
:101158000A4E22464FF4E051304600F0ABFF4FF400
:10116800E0530593012306930794089429463046D3
:1011780000F0A6FE0AB070BD00380240001C024014
:101188002DE9F84316461F46DDE90A89FFF7B0F84E
:1011980004460D4642464B46DDE90C01FFF7A8F828
:1011A80002460B4620462946FFF75AFA04460D46E2
:1011B80032463B46DDE90801FFF79AF802460B463E
:1011C80020462946FFF776FB42464B46FFF792F842
:1011D800BDE8F88372B6FEE710B594B008AC3022CB
:1011E8000021204601F0F2FB0023039304930593AA
:1011F800069307930193204A116C41F080511164C2
:10120800126C02F080520192019A02931B4B1A68E9
:1012180042F480421A601B6803F480430293029BE5
:10122800012308934FF48033099302230E934FF45C
:1012380080020F9206221092A82211921293042380
:101248001393204600F046FF90B90F23039302231F
:101258000493002305934FF4A05306934FF480534F
:101268000793052103A801F085F918B914B010BD3A
:10127800FFF7B0FFFFF7AEFF0038024000700040F4
:1012880000B587B000F07EF9FFF7A6FFFFF72EFF45
:10129800FFF7CEFEFFF750FE00F0CEF8FFF79CFFF9
:1012A800FFF724FFFFF7C4FE35E0294CA088FFF7BD
:1012B8005DF921A3D3E90023CDE9042320A3D3E9D1
:1012C8000023CDE9022320A3D3E90023CDE900239D
:1012D80000220023FFF754FFFFF7D4FB02461D4B03
:1012E80018601D4D1D4B1968284600F049F8B4F9DF
:1012F8000600FFF7D1FC0246194C296B204600F086
:101308003FF8206BFFF792FD01B21648FFF772FE17
:10131800282000F063F9144A138801331BB21380A4
:10132800FA2BC2D1134600221A804FF400610F48ED
:1013380000F0C6FEB9E700BF182D4454FB21094050
:10134800182D4454FB2109C00000000000FFBF40D5
:101358002C000020600000206C00002064000020A9
:10136800A00000203800002068000020001C024077
:10137800016042608360009BC360019B036170470A
:101388002DE9F8430446084611466061A261D4F885
:101398001C80C4F82080FFF7C9FB0546E06121687E
:1013A800FEF7EEFE07466062A66A61682846FEF709
:1013B800E7FE01463046FFF7BBFB0646A062D4F8BD
:1013C800089041462846FFF7B1FB01464846FEF71C
:1013D800D7FE0546E062D4F80C8008F1004949467A
:1013E8003046FFF7FBFCB0B1C4F82890A16A384634
:1013F800FFF79EFB01462846FFF79AFB0546206348
:10140800266906F100473946FFF7E8FC60B1276313
:10141800206BBDE8F88341463046FFF7FDFC002805
:10142800E4D0C4F82880E1E731462846FFF7F4FC09
:101438000028EDD02663EBE710B582B000240A4BF4
:10144800019300932346224608490948FFF790FF75
:10145800084B019300942346224607490748FFF7A3
:1014680087FF02B010BD00BF0060EA460000F041EF
:10147800A00000200000A0430000C8436C0000202A
:1014880082B0002100910B4B5A6C42F480425A649E
:101498005A6C02F480420092009A01911A6C42F050
:1014A80080521A641B6C03F080530193019B02B0B5
:1014B800704700BF00380240FEE7FEE7FEE7FEE7A0
:1014C800FEE770477047704708B500F075F808BD2B
:1014D80008B5024800F050FB08BD00BF38000020E6
:1014E80070470000DFF834D0FFF7FAFF0C480D49C9
:1014F8000D4A002302E0D458C4500433C4188C4267
:10150800F9D30A4A0A4C002301E013600432A242CC
:10151800FBD301F0A9FAFFF7B3FE704700000220E1
:101528000000002010000020CC2B00081000002034
:1015380070020020FEE7000010B504460E4B1A7832
:101548004FF47A73B3FBF2F30C4A1068B0FBF3F074
:1015580000F0A2FC68B90F2C01D901200AE0002292
:1015680021464FF0FF3000F083FC054B1C60002043
:1015780000E0012010BD00BF040000200000002092
:101588000800002008B50B4B1A6842F400721A6074
:101598001A6842F480621A601A6842F480721A600B
:1015A800032000F053FC0F20FFF7C6FFFFF768FF8A
:1015B800002008BD003C0240034A1168034B1B7819
:1015C8000B441360704700BFD400002004000020C3
:1015D800014B1868704700BFD400002038B5044696
:1015E800FFF7F6FF0546B4F1FF3F02D0044B1B7826
:1015F8001C44FFF7EDFF401BA042FAD338BD00BFE3
:1016080004000020002800F0A18038B5044690F8B6
:101618002030D3B12268136843F001031360FFF749
:10162800D7FF054623685A6812F0010F10D1FFF75B
:10163800CFFF401B0A28F5D9636A43F4003363627D
:10164800052384F82030012038BDFFF711FDE1E7BC
:101658001A6822F002021A60FFF7BAFF05462368EB
:101668005A6812F0020F0DD0FFF7B2FF401B0A288C
:10167800F5D9636A43F400336362052384F82030A4
:101688000120E1E7227E012A3DD01A6822F080027B
:101698001A60637E012B3BD02268136823F0400355
:1016A8001360A37E012B39D02268136823F020032E
:1016B8001360E37E012B37D02268136843F01003D0
:1016C8001360237F012B35D02268136823F00803A9
:1016D8001360637F012B33D02268136823F004035F
:1016E8001360A368E26813432269134362691343D2
:1016F8006268013A21681343CB61002060620123CC
:1017080084F82030A0E71A6842F080021A60C0E727
:101718002268136843F040031360C2E72268136825
:1017280043F020031360C4E72268136823F0100312
:101738001360C6E72268136843F008031360C8E71C
:101748002268136843F004031360CAE70120704756
:1017580090F82030013BDBB2012B05D9436A43F4F2
:10176800802343620120704710B5474BD3F800220D
:1017780042F00102C3F80022D3F8002222F47C527E
:10178800C3F80022D3F80022486A42EA0022C3F8CC
:1017980000224A6902F01F02012000FA02F2D3F87F
:1017A8001C026FEA020C20EA0200C3F81C02CB6993
:1017B800CBB9354BD3F80C020CEA0000C3F80C0285
:1017C8008C884869D1F80CE044EA0E44483043F864
:1017D80030408C68088840EA04404C6904F1480E9F
:1017E80003EBCE035860CB69012B1ED08B69002B0D
:1017F80035D12548D0F804320CEA0303C0F8043286
:101808000B699BBB2048D0F814320CEA0303C0F8DC
:1018180014320B6A012B30D01B4AD2F8003223F065
:101828000103C2F80032002010BD174BD3F80C0298
:101838001043C3F80C028C884869D1F800E044EAE8
:101848000E44483043F8304088894C69D1F808E0A4
:1018580040EA0E40483403EBC4035860C6E70A4820
:10186800D0F804321343C0F80432C9E70648D0F868
:1018780014321343C0F81432CBE70349D1F81C32B1
:101888001343C1F81C32C7E70064004070B5044632
:1018980090F82030012B06D0436A43F400234362BA
:1018A8000126304670BDDEB2022380F8203002687F
:1018B800136823F001031360FFF78AFE05462368C7
:1018C8005B6813F0010F0CD0FFF782FE431B0A2B55
:1018D800F5D9636A43F400336362052384F8203042
:1018E800DFE700266662DCE730B590F820C00468C0
:1018F800A4680CF1FF3C5FFA8CFCBCF1010F62D8C4
:1019080014F0E05F59D0C4F3016C012404FA0CF41C
:101918001C608B68002B3DD10D68CB68046843EAD6
:1019280045550CF118031B01E55003680C690CF1CF
:10193800180E03EB0E135C600B7D012B35D0D179AB
:1019480093791B0443EA0163517943EA012314792B
:101958000168234301EB0C11C1F88C31D1789378DD
:101968001B0443EA0163517843EA012311780268B2
:101978000B4302EB0C12C2F8883102680CF1180C08
:101988004FEA0C1C52F80C3043F0010342F80C30BB
:1019980000201DE04C6843EAC403CC6823430CF1E3
:1019A8001804240105682B51BFE7036803EB0E13E5
:1019B800596841F480715960C1E7436A43F40013E0
:1019C8004362012004E0436A43F480234362012018
:1019D80030BD90F820C00CF1FF3C5FFA8CFCBCF1E4
:1019E800010F00F2A58030B451B90468E46814F01E
:1019F800030F10D1436A43F40013436201207EE0D1
:101A08000468246914F0030F05D1436A43F40013F2
:101A18004362012073E0056801F11B0424012C597D
:101A280004F004049460002C6BD1056801F11B04D8
:101A380024012C59640D1460046801F11B0C4FEA51
:101A48000C1C54F80C4004F00204D4600468A4444C
:101A5800DCF8045015F0080F5BD008241461046802
:101A680001F11B0C04EB0C146468C4F307249461A3
:101A7800046804EB0C146468240C5461026802EBDB
:101A88000112D2F8B8211A70026802EB0112D2F8DA
:101A9800B821C2F307225A70026802EB0112D2F889
:101AA800B821C2F307429A70026802EB0112D2F819
:101AB800B821120EDA70026802EB0112D2F8BC21CA
:101AC8001A71026802EB0112D2F8BC21C2F3072294
:101AD8005A71026802EB0112D2F8BC21C2F3074224
:101AE8009A71026802EB0112D2F8BC21120EDA7167
:101AF800C1B90268D36843F02003D360002030BC2A
:101B08007047056801F11B0424012C59E40854604E
:101B180092E701F11B0504EB0514646804F00F0457
:101B280014619CE70268136943F020031361E5E739
:101B3800436A43F4802343620120704790F82030C1
:101B4800013BDBB2012B05D9436A43F4802343628E
:101B580001207047026853690B43536100207047A6
:101B680070477047704770477047704770477047B5
:101B780070477047704770472DE9F84F054603686E
:101B88005C69D3F804809F68D3F80CA0D3F8109050
:101B9800D3F818B014F001063BD017F0010616D0A0
:101BA80001229A6017F0020F08D117F0040F0CD128
:101BB80017F0080606D04FF4805608E0FFF7D0FF6C
:101BC800002604E0FFF7CFFF01E04FF4006617F4AA
:101BD800807F0DD02B684FF480729A6017F4007FD5
:101BE80040F0968017F4806F00F0968046F4005617
:101BF80017F4803F0DD02B684FF480329A6017F4A9
:101C0800003F40F0938017F4802F00F0938046F453
:101C1800004614F0080F07D01AF0100F04D046F44D
:101C280000762B681022DA6014F0040F03D01AF043
:101C3800080F40F0898014F0020F05D02B68DB688C
:101C480013F0030F40F0878014F0400F07D019F00D
:101C5800100F04D046F480662B6810221A6114F025
:101C6800200F02D019F0080F79D114F0100F04D00A
:101C78002B681B6913F0030F78D114F4003F02D0CE
:101C880018F0100F76D114F4803F02D018F0080F26
:101C980077D114F4004F37D018F0040F31D014F472
:101CA800807F04D01BF0010F01D046F0010614F428
:101CB800007F04D01BF0020F01D046F0020614F496
:101CC800806F04D01BF0040F01D046F0040614F412
:101CD800006F16D01BF0700B13D0BBF1400F66D00D
:101CE80056D8BBF1200F5CD0BBF1300F5CD0BBF1F4
:101CF800100F01D146F008062A68936923F0700393
:101D080093612B6804225A60002E56D1BDE8F88FE3
:101D18002846FFF726FF6BE717F4006F02D046F45A
:101D2800804665E72846FFF71FFF61E72846FFF76B
:101D380019FF6EE717F4002F02D046F4803668E7E3
:101D48002846FFF712FF64E72B680822DA60284666
:101D5800FFF70CFF6FE72846FFF71AF974E72B68BF
:101D680008221A612846FFF703FF7EE72846FFF797
:101D7800FEFE82E72B6810225A602846FFF7F9FE1C
:101D880081E72B6808225A602846FFF7F3FE80E7B0
:101D9800BBF1500F0ED0BBF1600FADD146F4807689
:101DA800AAE746F01006A7E746F02006A4E746F0A3
:101DB8004006A1E746F080069EE76B6A33436B62F4
:101DC8002846FFF7D8FEA1E7002807DB00F01F022E
:101DD800400901239340024A42F82030704700BF6F
:101DE80000E100E0002808DB0901C9B200F1604009
:101DF80000F5614080F80013704700F00F000901FA
:101E0800C9B2014B1954704714ED00E000B500F059
:101E18000700C0F1070CBCF1040F28BF4FF0040CF9
:101E2800031D062B0FD9C31E4FF0FF3E0EFA0CF010
:101E380021EA000199400EFA03FE22EA0E0241EA65
:101E480002005DF804FB0023EEE70000074AD368B0
:101E580023F4E0631B041B0C000200F4E06003435E
:101E680043F0BF6343F40033D360704700ED00E0F4
:101E780010B50446054BD868C0F30220FFF7C6FF2B
:101E880001462046FFF7AEFF10BD00BF00ED00E0A1
:101E980008B5FFF799FF08BD0138B0F1807F0BD274
:101EA8004FF0E0235861054AF02182F82310002002
:101EB800986107221A6170470120704700ED00E021
:101EC80000230F2B00F2EC8030B583B068E0856802
:101ED8004FEA430E032404FA0EF425EA0405CC68FD
:101EE80004FA0EF42C438460446824EA02044A6825
:101EF800C2F300129A40224342605FE0DC080834D3
:101F080050F8242003F00705AD004FF00F0E0EFA2D
:101F180005FE22EA0E0E0A69AA4042EA0E0240F8BD
:101F280024205FE0072200E0002202FA0EF22A4392
:101F380002345C4D45F824205B4A94686FEA0C0231
:101F480024EA0C05D1F804E01EF4801F01D04CEA05
:101F58000405554CA560E46802EA0405D1F804E0DC
:101F68001EF4001F01D04CEA04054F4CE56064687C
:101F780002EA0405D1F804E01EF4003F01D04CEA5F
:101F88000405494C6560246822404D6815F4803F7B
:101F980001D04CEA0402444C226001330F2B7DD857
:101FA80001229A400C6804EA020C32EA0404F4D1D3
:101FB8004C6804F00304013C012C88D94A6802F0FB
:101FC8000302032A09D0C4685D000322AA4024EA58
:101FD80002048A68AA402243C2604A6802F00302E7
:101FE800022A8BD004684FEA430E032202FA0EF24B
:101FF80024EA02044A6802F0030202FA0EF22243BB
:1020080002604A6812F4403FC7D000220192274A72
:10201800546C44F480445464526C02F4804201923B
:10202800019A9C08A51C1F4A52F8255003F0030E7C
:102038004FEA8E0E0F2202FA0EF225EA02051C4A1A
:1020480090423FF471AF02F5806290421AD002F5D7
:102058008062904218D002F58062904216D002F554
:102068008062904214D002F58062904212D002F54C
:102078008062904210D002F5806290423FF452AFE5
:10208800082252E7012250E702224EE703224CE7DA
:1020980004224AE7052248E7062246E703B030BD96
:1020A800704700BF00380140003C01400038024042
:1020B800000002400AB181617047090481617047DC
:1020C800436901EA030221EA030141EA024181610D
:1020D80070470000002800F0E08170B582B0044627
:1020E800036813F0010F3BD09F4B9B6803F00C0370
:1020F800042B2CD09C4B9B6803F00C03082B21D09D
:102108006368B3F5803F4FD0B3F5A02F52D0964BFC
:102118001A6822F480321A601A6822F480221A603F
:102128006368002B50D0FFF753FA05468E4B1B68A7
:1021380013F4003F14D1FFF74BFA401B6428F5D97C
:102148000320B1E1884B5B6813F4800FD8D0864B2D
:102158001B6813F4003F03D06368002B00F09F81D5
:10216800236813F0020F54D07F4B9B6813F00C0FB9
:102178003ED07D4B9B6803F00C03082B33D0E368FB
:10218800002B68D0794B01221A60FFF721FA054627
:10219800754B1B6813F0020F54D1FFF719FA401B57
:1021A8000228F5D903207FE16F4A136843F480338E
:1021B8001360B5E76C4B1A6842F480221A601A68FB
:1021C80042F480321A60ABE7FFF702FA0546664B25
:1021D8001B6813F4003FC3D0FFF7FAF9401B6428CB
:1021E800F5D9032060E1604B5B6813F4800FC6D11A
:1021F8005D4B1B6813F0020F03D0E368012B40F01E
:102208005081594A136823F0F803216943EAC1034E
:102218001360236813F0080F42D063696BB3534B04
:102228000122C3F8802EFFF7D3F905464E4B5B6FAA
:1022380013F0020F34D1FFF7CBF9401B0228F5D970
:10224800032031E1484A136823F0F803216943EA7F
:10225800C1031360DDE7454B00221A60FFF7B8F9A8
:102268000546414B1B6813F0020FD2D0FFF7B0F9B7
:10227800401B0228F5D9032016E13C4B0022C3F885
:10228800802EFFF7A5F90546374B5B6F13F0020F59
:1022980006D0FFF79DF9401B0228F5D9032003E17A
:1022A800236813F0040F77D02F4B1B6C13F0805F5B
:1022B80033D1002301932C4B1A6C42F080521A64DC
:1022C8001B6C03F080530193019B0125284B1B686D
:1022D80013F4807F23D0A368012B34D0052B38D08A
:1022E800214B1A6F22F001021A671A6F22F00402BA
:1022F8001A67A368002B3DD0FFF76AF906461A4B08
:102308001B6F13F0020F46D1FFF762F9801B41F2F1
:1023180088339842F3D90320C6E00025D6E7144A4B
:10232800136843F480731360FFF752F90646104BA5
:102338001B6813F4807FCED1FFF74AF9801B02286F
:10234800F5D90320B0E0084A136F43F0010313677F
:10235800CFE7054B1A6F42F004021A671A6F42F072
:1023680001021A67C5E700BF003802400000474273
:1023780000700040FFF72CF90646524B1B6F13F014
:10238800020F08D0FFF724F9801B41F288339842E6
:10239800F3D9032088E0EDB9A369002B00F083800E
:1023A800484A926802F00C02082A51D0022B17D032
:1023B800454B00221A66FFF70BF90446414B1B6890
:1023C80013F0007F42D0FFF703F9001B0228F5D96C
:1023D800032069E03B4A136C23F080531364DBE766
:1023E800394B00221A66FFF7F3F80546354B1B6890
:1023F80013F0007F06D0FFF7EBF8401B0228F5D951
:10240800032051E0E369226A1343626A43EA8213B4
:10241800A26A5208013A43EA0243E26A43EA0263C3
:10242800284A5360284B01221A66FFF7D1F8044660
:10243800244B1B6813F0007F06D1FFF7C9F8001B77
:102448000228F5D903202FE000202DE000202BE002
:10245800012B2BD01B4B5B6803F48001E26991428E
:1024680026D103F03F02216A8A4223D1616A47F6E6
:10247800C0721A40B2EB811F1ED103F44031A26A28
:102488005208013AB1EB024F18D103F07063E26AC7
:10249800B3EB026F14D1002006E001207047012041
:1024A80002E0012000E0002002B070BD0120FBE73F
:1024B8000120F9E70120F7E70120F5E70120F3E71C
:1024C8000120F1E7003802400000474208B5264BDA
:1024D8009B6803F00C03042B41D0082B41D1224BFD
:1024E8005A6802F03F025B6813F4800F12D01E4B4B
:1024F8005968C1F388111D480023A1FB0001FEF7AC
:10250800BBFC194B5B68C3F3014301335B00B0FBB1
:10251800F3F008BD144B5868C0F388104FEA401C0C
:10252800BCEB000C6EEB0E0E4FEA8E1343EA9C6375
:102538004FEA8C11B1EB0C0163EB0E03DB0043EAAD
:102548005173C90011EB000C43F1000399020023F9
:102558004FEA8C2041EA9C51FEF78EFCD1E70348F4
:10256800D7E70348D5E700BF00380240001BB70093
:102578000024F400002800F09B8070B50D46044646
:102588004F4B1B6803F007038B4208D2CBB24C4A6F
:102598001370136803F007038B4240F08B802368A5
:1025A80013F0020F17D013F0040F04D0454A9368B4
:1025B80043F4E0539360236813F0080F04D0414AB2
:1025C800936843F4604393603E4A936823F0F003B2
:1025D800A1680B439360236813F0010F32D063683E
:1025E800012B21D09A1E012A25D9364A126812F0E9
:1025F800020F61D033498A6822F0030213438B60CB
:10260800FEF7E6FF06462F4B9B6803F00C03626853
:10261800B3EB820F16D0FEF7DBFF801B41F2883345
:102628009842F0D9032042E0264A126812F4003F8B
:10263800E0D101203BE0234A126812F0007FD9D193
:10264800012034E01E4B1B6803F00703AB4207D997
:10265800EAB21B4B1A701B6803F00703AB422DD17B
:10266800236813F0040F06D0164A936823F4E05346
:10267800E1680B439360236813F0080F07D0114AF1
:10268800936823F46043216943EAC1039360FFF729
:102698001DFF0C4B9B68C3F303130B4AD35CD84054
:1026A8000A4B18600A4B1868FEF746FF002070BDF9
:1026B800012070470120FAE70120F8E70120F6E73A
:1026C800003C024000380240A82B0008000000200F
:1026D800080000202DE9F047089D0F4604468C4667
:1026E800002B48D18A42164661D9B2FA82F34BB11F
:1026F800C3F1200201FA03FC20FA02F29E4042EAEA
:102708000C0C9C404FEA164EB7B2BCFBFEF1220CF3
:102718000EFB11CC42EA0C4201FB07F0904209D9AA
:10272800B21801F1FF3C80F0EE80904240F2EB805D
:1027380002393244121AA4B2B2FBFEF00EFB102288
:1027480044EA024400FB07F7A74209D9341900F10B
:10275800FF3280F0DA80A74240F2D7803444023852
:1027680040EA0140E41B00211DB1DC400023C5E91B
:102778000043BDE8F0878B4206D90DB1C5E90001D9
:1027880000210846BDE8F087B3FA83F1002948D153
:10279800BB4202D3824200F20781841A67EB03022C
:1027A80001209446002DE4D0C5E9004CE1E7002A59
:1027B80000F09280B2FA82F3002B40F0A8808A1AC7
:1027C8004FEA164E1FFA86FC0121200CB2FBFEF7D9
:1027D8000EFB172240EA02420CFB07F0904207D991
:1027E800B21807F1FF3802D2904200F2E280474661
:1027F800121AA4B2B2FBFEF00EFB102244EA024405
:102808000CFB00FCA44507D9341900F1FF3202D2B1
:10281800A44500F2CB801046A4EB0C0440EA074024
:10282800A2E7C1F120068B4022FA06FC4CEA030C11
:1028380007FA01F420FA06F3F7404FEA1C4923434C
:1028480000FA01F81FFA8CFEB7FBF9F01C0C09FB23
:10285800107744EA074400FB0EF7A74202FA01F298
:102868000AD91CEB040400F1FF3A80F09B80A742D0
:1028780040F2988002386444E41B9FB2B4FBF9F339
:1028880009FB134447EA044403FB0EFEA64509D995
:102898001CEB040403F1FF3780F08280A6457FD942
:1028A800023B644443EA0040A4EB0E04A0FB02E7A9
:1028B800BC427346B94663D360D05DB1B8EB03023E
:1028C80064EB090404FA06F622FA01F31E43CC402D
:1028D800C5E9006400214CE76208480842EAC17172
:1028E8000B0C43EA00438AB242EA0342B3FBF6F117
:1028F800E407B4463746B6461F23B0FBF6F0D21BB2
:1029080041EA004161E7614614E7104628E7C3F150
:10291800200120FA01F29E4027FA01F19F403A4334
:102928004FEA164E1FFA86FCB1FBFEF70EFB171096
:10293800110C41EA004107FB0CF8884504FA03F43E
:102948003AD9711807F1FF3001D288451FD8A1EB99
:102958000801B1FBFEF808FB0CF70EFB181192B248
:1029680042EA0142BA422FD2B21808F1FF31C6D268
:10297800BA42C4D2A8F102013244C0E7F0459CD261
:10298800BEEB020367EB0C070138B94695E7A6EBE7
:1029980008084144B81EB1FBFEF808FB0CF7DCE759
:1029A8003B467FE7504667E70846FBE63444023873
:1029B80032E7023F32441BE7A1EB08013846B1FB7E
:1029C800FEF808FB0CF7C8E7414698E7830730B5DF
:1029D80046D08418844604E003F8011B9D0704D000
:1029E8009C46A4456346F7D130BD013A0244A2EBA8
:1029F8000C02032A29D9CCB204EB04240F2A04EBD5
:102A080004442FD9A2F1100C2CF00F0C03F110057F
:102A1800AC44C3E90044C3E9024410336345F8D128
:102A280012F00C0F02F00F0E18D02EF0030C9C447D
:102A3800AEF104051A4642F8044B6245FBD125F075
:102A4800030404330EF003022344002ACCD0C9B295
:102A58001A4403F8011B9342FBD130BD7246F4E7D8
:102A68000346C6E79646E0E770B50F4B0F4DAB42FD
:102A7800A3EB050607D0B610002455F8043B013433
:102A88009847A642F9D800F07FF8094D094B5E1B1C
:102A9800AB424FEAA60606D0002455F8043B0134A1
:102AA8009847A642F9D870BDC02B0008C02B000873
:102AB800C02B0008C82B0008704700BF704700BF34
:102AC800024B13B1024800F005B87047000000003F
:102AD800E92A0008002301461A46184600F014B8EF
:102AE80038B5074D074C2C1BA41005D0013C55F8F0
:102AF800043D9847002CF9D1BDE8384000F04AB8A9
:102B0800CC2B0008C82B00082DE9F8431B4D0646BE
:102B1800286898460F469146FFF7CEFF184B1C6869
:102B28001CB3286865681F2D22DC4EB96B1C023562
:102B3800636044F82570FFF7C1FF0020BDE8F88303
:102B480004EB85010123C1F88890D4F88821AB40B3
:102B58001A43022EC4F88821C1F80881E6D1D4F8B6
:102B68008C211A43C4F88C21E0E7064C1C60D8E796
:102B7800FFF7A4FF4FF0FF30E0E700BF0C00002094
:102B8800DC000020E0000020F8B500BFF8BC08BC5D
:102B98009E467047F8B500BFF8BC08BC9E46704713
:102BA80000000000000000000102030406070809F5
:082BB80024FBFF7F0100000077
:082BC000C92A00081D0F0008DE
:042BC800F50E0008FE
:102BCC000024F4000100000010000000D8000020D8
:04000005080014EDEE
:00000001FF
